{
  "_format": "hh-sol-artifact-1",
  "contractName": "ERC20R",
  "sourceName": "contracts/ERC20R.sol",
  "abi": [
    {
      "inputs": [
        {
          "internalType": "string",
          "name": "name_",
          "type": "string"
        },
        {
          "internalType": "string",
          "name": "symbol_",
          "type": "string"
        },
        {
          "internalType": "uint256",
          "name": "reversiblePeriod_",
          "type": "uint256"
        },
        {
          "internalType": "address",
          "name": "governanceContract_",
          "type": "address"
        }
      ],
      "stateMutability": "nonpayable",
      "type": "constructor"
    },
    {
      "anonymous": false,
      "inputs": [
        {
          "indexed": true,
          "internalType": "address",
          "name": "owner",
          "type": "address"
        },
        {
          "indexed": true,
          "internalType": "address",
          "name": "spender",
          "type": "address"
        },
        {
          "indexed": false,
          "internalType": "uint256",
          "name": "value",
          "type": "uint256"
        }
      ],
      "name": "Approval",
      "type": "event"
    },
    {
      "anonymous": false,
      "inputs": [
        {
          "indexed": false,
          "internalType": "uint256",
          "name": "length",
          "type": "uint256"
        },
        {
          "indexed": false,
          "internalType": "uint256",
          "name": "blockNum",
          "type": "uint256"
        }
      ],
      "name": "ClearedDataInTimeblock",
      "type": "event"
    },
    {
      "anonymous": false,
      "inputs": [
        {
          "indexed": false,
          "internalType": "address",
          "name": "from",
          "type": "address"
        },
        {
          "indexed": false,
          "internalType": "address",
          "name": "to",
          "type": "address"
        },
        {
          "indexed": false,
          "internalType": "uint256",
          "name": "amount",
          "type": "uint256"
        },
        {
          "indexed": false,
          "internalType": "uint256",
          "name": "blockNumber",
          "type": "uint256"
        },
        {
          "indexed": false,
          "internalType": "uint256",
          "name": "index",
          "type": "uint256"
        },
        {
          "indexed": false,
          "internalType": "bytes32",
          "name": "claimID",
          "type": "bytes32"
        }
      ],
      "name": "FreezeSuccessful",
      "type": "event"
    },
    {
      "anonymous": false,
      "inputs": [
        {
          "indexed": false,
          "internalType": "bytes32",
          "name": "claimID",
          "type": "bytes32"
        }
      ],
      "name": "ReverseRejected",
      "type": "event"
    },
    {
      "anonymous": false,
      "inputs": [
        {
          "indexed": false,
          "internalType": "bytes32",
          "name": "claimID",
          "type": "bytes32"
        }
      ],
      "name": "ReverseSuccessful",
      "type": "event"
    },
    {
      "anonymous": false,
      "inputs": [
        {
          "indexed": true,
          "internalType": "address",
          "name": "from",
          "type": "address"
        },
        {
          "indexed": true,
          "internalType": "address",
          "name": "to",
          "type": "address"
        },
        {
          "indexed": false,
          "internalType": "uint256",
          "name": "value",
          "type": "uint256"
        }
      ],
      "name": "Transfer",
      "type": "event"
    },
    {
      "inputs": [],
      "name": "DELTA",
      "outputs": [
        {
          "internalType": "uint256",
          "name": "",
          "type": "uint256"
        }
      ],
      "stateMutability": "view",
      "type": "function"
    },
    {
      "inputs": [
        {
          "internalType": "address",
          "name": "owner",
          "type": "address"
        },
        {
          "internalType": "address",
          "name": "spender",
          "type": "address"
        }
      ],
      "name": "allowance",
      "outputs": [
        {
          "internalType": "uint256",
          "name": "",
          "type": "uint256"
        }
      ],
      "stateMutability": "view",
      "type": "function"
    },
    {
      "inputs": [
        {
          "internalType": "address",
          "name": "spender",
          "type": "address"
        },
        {
          "internalType": "uint256",
          "name": "amount",
          "type": "uint256"
        }
      ],
      "name": "approve",
      "outputs": [
        {
          "internalType": "bool",
          "name": "",
          "type": "bool"
        }
      ],
      "stateMutability": "nonpayable",
      "type": "function"
    },
    {
      "inputs": [
        {
          "internalType": "address",
          "name": "account",
          "type": "address"
        }
      ],
      "name": "balanceOf",
      "outputs": [
        {
          "internalType": "uint256",
          "name": "",
          "type": "uint256"
        }
      ],
      "stateMutability": "view",
      "type": "function"
    },
    {
      "inputs": [
        {
          "internalType": "address[]",
          "name": "addresses",
          "type": "address[]"
        },
        {
          "internalType": "uint256",
          "name": "epoch",
          "type": "uint256"
        }
      ],
      "name": "clean",
      "outputs": [],
      "stateMutability": "nonpayable",
      "type": "function"
    },
    {
      "inputs": [],
      "name": "decimals",
      "outputs": [
        {
          "internalType": "uint8",
          "name": "",
          "type": "uint8"
        }
      ],
      "stateMutability": "view",
      "type": "function"
    },
    {
      "inputs": [
        {
          "internalType": "address",
          "name": "spender",
          "type": "address"
        },
        {
          "internalType": "uint256",
          "name": "subtractedValue",
          "type": "uint256"
        }
      ],
      "name": "decreaseAllowance",
      "outputs": [
        {
          "internalType": "bool",
          "name": "",
          "type": "bool"
        }
      ],
      "stateMutability": "nonpayable",
      "type": "function"
    },
    {
      "inputs": [
        {
          "internalType": "address",
          "name": "from",
          "type": "address"
        },
        {
          "internalType": "address",
          "name": "to",
          "type": "address"
        },
        {
          "internalType": "uint256",
          "name": "amount",
          "type": "uint256"
        },
        {
          "internalType": "uint256",
          "name": "blockNumber",
          "type": "uint256"
        },
        {
          "internalType": "uint256",
          "name": "index",
          "type": "uint256"
        }
      ],
      "name": "freeze",
      "outputs": [
        {
          "internalType": "bytes32",
          "name": "claimID",
          "type": "bytes32"
        }
      ],
      "stateMutability": "nonpayable",
      "type": "function"
    },
    {
      "inputs": [
        {
          "internalType": "address",
          "name": "",
          "type": "address"
        }
      ],
      "name": "frozen",
      "outputs": [
        {
          "internalType": "uint256",
          "name": "",
          "type": "uint256"
        }
      ],
      "stateMutability": "view",
      "type": "function"
    },
    {
      "inputs": [
        {
          "internalType": "uint256",
          "name": "epoch",
          "type": "uint256"
        },
        {
          "internalType": "address",
          "name": "from",
          "type": "address"
        }
      ],
      "name": "getSpenditures",
      "outputs": [
        {
          "components": [
            {
              "internalType": "address",
              "name": "from",
              "type": "address"
            },
            {
              "internalType": "address",
              "name": "to",
              "type": "address"
            },
            {
              "internalType": "uint256",
              "name": "amount",
              "type": "uint256"
            },
            {
              "internalType": "uint256",
              "name": "block_number",
              "type": "uint256"
            }
          ],
          "internalType": "struct ERC20R.Spenditure[]",
          "name": "",
          "type": "tuple[]"
        }
      ],
      "stateMutability": "view",
      "type": "function"
    },
    {
      "inputs": [
        {
          "internalType": "address",
          "name": "spender",
          "type": "address"
        },
        {
          "internalType": "uint256",
          "name": "addedValue",
          "type": "uint256"
        }
      ],
      "name": "increaseAllowance",
      "outputs": [
        {
          "internalType": "bool",
          "name": "",
          "type": "bool"
        }
      ],
      "stateMutability": "nonpayable",
      "type": "function"
    },
    {
      "inputs": [],
      "name": "name",
      "outputs": [
        {
          "internalType": "string",
          "name": "",
          "type": "string"
        }
      ],
      "stateMutability": "view",
      "type": "function"
    },
    {
      "inputs": [
        {
          "internalType": "bytes32",
          "name": "claimID",
          "type": "bytes32"
        }
      ],
      "name": "rejectReverse",
      "outputs": [],
      "stateMutability": "nonpayable",
      "type": "function"
    },
    {
      "inputs": [
        {
          "internalType": "bytes32",
          "name": "claimID",
          "type": "bytes32"
        }
      ],
      "name": "reverse",
      "outputs": [],
      "stateMutability": "nonpayable",
      "type": "function"
    },
    {
      "inputs": [],
      "name": "symbol",
      "outputs": [
        {
          "internalType": "string",
          "name": "",
          "type": "string"
        }
      ],
      "stateMutability": "view",
      "type": "function"
    },
    {
      "inputs": [],
      "name": "totalSupply",
      "outputs": [
        {
          "internalType": "uint256",
          "name": "",
          "type": "uint256"
        }
      ],
      "stateMutability": "view",
      "type": "function"
    },
    {
      "inputs": [
        {
          "internalType": "address",
          "name": "to",
          "type": "address"
        },
        {
          "internalType": "uint256",
          "name": "amount",
          "type": "uint256"
        }
      ],
      "name": "transfer",
      "outputs": [
        {
          "internalType": "bool",
          "name": "",
          "type": "bool"
        }
      ],
      "stateMutability": "nonpayable",
      "type": "function"
    },
    {
      "inputs": [
        {
          "internalType": "address",
          "name": "from",
          "type": "address"
        },
        {
          "internalType": "address",
          "name": "to",
          "type": "address"
        },
        {
          "internalType": "uint256",
          "name": "amount",
          "type": "uint256"
        }
      ],
      "name": "transferFrom",
      "outputs": [
        {
          "internalType": "bool",
          "name": "",
          "type": "bool"
        }
      ],
      "stateMutability": "nonpayable",
      "type": "function"
    }
  ],
  "bytecode": "0x60806040526103e86005553480156200001757600080fd5b50604051620045a7380380620045a783398181016040528101906200003d919062000211565b83600a908051906020019062000055929190620000c1565b5082600b90805190602001906200006e929190620000c1565b508160068190555080600960006101000a81548173ffffffffffffffffffffffffffffffffffffffff021916908373ffffffffffffffffffffffffffffffffffffffff1602179055505050505062000491565b828054620000cf9062000382565b90600052602060002090601f016020900481019282620000f357600085556200013f565b82601f106200010e57805160ff19168380011785556200013f565b828001600101855582156200013f579182015b828111156200013e57825182559160200191906001019062000121565b5b5090506200014e919062000152565b5090565b5b808211156200016d57600081600090555060010162000153565b5090565b6000620001886200018284620002d8565b620002af565b905082815260208101848484011115620001a157600080fd5b620001ae8482856200034c565b509392505050565b600081519050620001c7816200045d565b92915050565b600082601f830112620001df57600080fd5b8151620001f184826020860162000171565b91505092915050565b6000815190506200020b8162000477565b92915050565b600080600080608085870312156200022857600080fd5b600085015167ffffffffffffffff8111156200024357600080fd5b6200025187828801620001cd565b945050602085015167ffffffffffffffff8111156200026f57600080fd5b6200027d87828801620001cd565b93505060406200029087828801620001fa565b9250506060620002a387828801620001b6565b91505092959194509250565b6000620002bb620002ce565b9050620002c98282620003b8565b919050565b6000604051905090565b600067ffffffffffffffff821115620002f657620002f56200041d565b5b62000301826200044c565b9050602081019050919050565b60006200031b8262000322565b9050919050565b600073ffffffffffffffffffffffffffffffffffffffff82169050919050565b6000819050919050565b60005b838110156200036c5780820151818401526020810190506200034f565b838111156200037c576000848401525b50505050565b600060028204905060018216806200039b57607f821691505b60208210811415620003b257620003b1620003ee565b5b50919050565b620003c3826200044c565b810181811067ffffffffffffffff82111715620003e557620003e46200041d565b5b80604052505050565b7f4e487b7100000000000000000000000000000000000000000000000000000000600052602260045260246000fd5b7f4e487b7100000000000000000000000000000000000000000000000000000000600052604160045260246000fd5b6000601f19601f8301169050919050565b62000468816200030e565b81146200047457600080fd5b50565b620004828162000342565b81146200048e57600080fd5b50565b61410680620004a16000396000f3fe608060405234801561001057600080fd5b50600436106101165760003560e01c806370a08231116100a2578063a9059cbb11610071578063a9059cbb14610307578063bbe06c3714610337578063d051665014610367578063dd62ed3e14610397578063ecb5fff6146103c757610116565b806370a082311461025957806387a3b25b1461028957806395d89b41146102b9578063a457c2d7146102d757610116565b8063313ce567116100e9578063313ce567146101b757806337b34974146101d557806339509351146101f157806341c4ee281461022157806359a37e991461023d57610116565b806306fdde031461011b578063095ea7b31461013957806318160ddd1461016957806323b872dd14610187575b600080fd5b6101236103e5565b604051610130919061357b565b60405180910390f35b610153600480360381019061014e9190612fa9565b610477565b6040516101609190613545565b60405180910390f35b61017161049a565b60405161017e91906137b8565b60405180910390f35b6101a1600480360381019061019c9190612ee3565b6104a4565b6040516101ae9190613545565b60405180910390f35b6101bf6104d3565b6040516101cc91906137fc565b60405180910390f35b6101ef60048036038101906101ea919061303d565b6104dc565b005b61020b60048036038101906102069190612fa9565b61072e565b6040516102189190613545565b60405180910390f35b61023b6004803603810190610236919061303d565b610765565b005b61025760048036038101906102529190612fe5565b61095f565b005b610273600480360381019061026e9190612e7e565b610c33565b60405161028091906137b8565b60405180910390f35b6102a3600480360381019061029e9190612f32565b610c7b565b6040516102b09190613560565b60405180910390f35b6102c1611214565b6040516102ce919061357b565b60405180910390f35b6102f160048036038101906102ec9190612fa9565b6112a6565b6040516102fe9190613545565b60405180910390f35b610321600480360381019061031c9190612fa9565b61131d565b60405161032e9190613545565b60405180910390f35b610351600480360381019061034c9190613066565b611340565b60405161035e9190613523565b60405180910390f35b610381600480360381019061037c9190612e7e565b6114b0565b60405161038e91906137b8565b60405180910390f35b6103b160048036038101906103ac9190612ea7565b6114c8565b6040516103be91906137b8565b60405180910390f35b6103cf61154f565b6040516103dc91906137b8565b60405180910390f35b6060600a80546103f490613a67565b80601f016020809104026020016040519081016040528092919081815260200182805461042090613a67565b801561046d5780601f106104425761010080835404028352916020019161046d565b820191906000526020600020905b81548152906001019060200180831161045057829003601f168201915b5050505050905090565b600080610482611555565b905061048f81858561155d565b600191505092915050565b6000600854905090565b6000806104af611555565b90506104bc858285611728565b6104c78585856117b4565b60019150509392505050565b60006012905090565b600960009054906101000a900473ffffffffffffffffffffffffffffffffffffffff1673ffffffffffffffffffffffffffffffffffffffff163373ffffffffffffffffffffffffffffffffffffffff161461056c576040517f08c379a00000000000000000000000000000000000000000000000000000000081526004016105639061371d565b60405180910390fd5b60005b60036000838152602001908152602001600020805490508110156106f35760006003600084815260200190815260200160002082815481106105da577f4e487b7100000000000000000000000000000000000000000000000000000000600052603260045260246000fd5b906000526020600020906004020190508060020154600160008360000160009054906101000a900473ffffffffffffffffffffffffffffffffffffffff1673ffffffffffffffffffffffffffffffffffffffff1673ffffffffffffffffffffffffffffffffffffffff1681526020019081526020016000206000828254610661919061394d565b925050819055506106bf8160010160009054906101000a900473ffffffffffffffffffffffffffffffffffffffff168260000160009054906101000a900473ffffffffffffffffffffffffffffffffffffffff1683600201546104a4565b506003600084815260200190815260200160002060006106df9190612d08565b5080806106eb90613acd565b91505061056f565b507fc3a0e8130148823fcfd1380b4d489a6c12a064caec2e9cf7d1ba333cfd8c5aea816040516107239190613560565b60405180910390a150565b600080610739611555565b905061075a81858561074b85896114c8565b610755919061386c565b61155d565b600191505092915050565b600960009054906101000a900473ffffffffffffffffffffffffffffffffffffffff1673ffffffffffffffffffffffffffffffffffffffff163373ffffffffffffffffffffffffffffffffffffffff16146107f5576040517f08c379a00000000000000000000000000000000000000000000000000000000081526004016107ec9061371d565b60405180910390fd5b60005b6003600083815260200190815260200160002080549050811015610924576000600360008481526020019081526020016000208281548110610863577f4e487b7100000000000000000000000000000000000000000000000000000000600052603260045260246000fd5b906000526020600020906004020190508060020154600160008360000160009054906101000a900473ffffffffffffffffffffffffffffffffffffffff1673ffffffffffffffffffffffffffffffffffffffff1673ffffffffffffffffffffffffffffffffffffffff16815260200190815260200160002060008282546108ea919061394d565b925050819055506003600084815260200190815260200160002060006109109190612d08565b50808061091c90613acd565b9150506107f8565b507f551751f171fd2d638d77a5321747fbffc37bc708e7386a753a8c823e84192b27816040516109549190613560565b60405180910390a150565b6006544361096d919061394d565b600160055460018461097f919061386c565b61098991906138f3565b610993919061394d565b106109d3576040517f08c379a00000000000000000000000000000000000000000000000000000000081526004016109ca9061369d565b60405180910390fd5b82829050600460008381526020019081526020016000205414610a2b576040517f08c379a0000000000000000000000000000000000000000000000000000000008152600401610a229061375d565b60405180910390fd5b60005b83839050811015610bd8576000600260008481526020019081526020016000206000868685818110610a89577f4e487b7100000000000000000000000000000000000000000000000000000000600052603260045260246000fd5b9050602002016020810190610a9e9190612e7e565b73ffffffffffffffffffffffffffffffffffffffff1673ffffffffffffffffffffffffffffffffffffffff1681526020019081526020016000208054905011610b1c576040517f08c379a0000000000000000000000000000000000000000000000000000000008152600401610b139061367d565b60405180910390fd5b600260008381526020019081526020016000206000858584818110610b6a577f4e487b7100000000000000000000000000000000000000000000000000000000600052603260045260246000fd5b9050602002016020810190610b7f9190612e7e565b73ffffffffffffffffffffffffffffffffffffffff1673ffffffffffffffffffffffffffffffffffffffff1681526020019081526020016000206000610bc59190612d08565b8080610bd090613acd565b915050610a2e565b50600060046000838152602001908152602001600020819055507f3ce34dbb485a137c63892e885619c05579a67d2142677223383f3344045b1da58383905082604051610c269291906137d3565b60405180910390a1505050565b60008060008373ffffffffffffffffffffffffffffffffffffffff1673ffffffffffffffffffffffffffffffffffffffff168152602001908152602001600020549050919050565b6000600960009054906101000a900473ffffffffffffffffffffffffffffffffffffffff1673ffffffffffffffffffffffffffffffffffffffff163373ffffffffffffffffffffffffffffffffffffffff1614610d0d576040517f08c379a0000000000000000000000000000000000000000000000000000000008152600401610d049061371d565b60405180910390fd5b600654431115610d685760065443610d25919061394d565b831015610d67576040517f08c379a0000000000000000000000000000000000000000000000000000000008152600401610d5e9061373d565b60405180910390fd5b5b43831115610dab576040517f08c379a0000000000000000000000000000000000000000000000000000000008152600401610da2906135bd565b60405180910390fd5b600060055484610dbb91906138c2565b905060006002600083815260200190815260200160002060008973ffffffffffffffffffffffffffffffffffffffff1673ffffffffffffffffffffffffffffffffffffffff16815260200190815260200160002080549050905060008410158015610e2557508084105b610e64576040517f08c379a0000000000000000000000000000000000000000000000000000000008152600401610e5b906136dd565b60405180910390fd5b8673ffffffffffffffffffffffffffffffffffffffff166002600084815260200190815260200160002060008a73ffffffffffffffffffffffffffffffffffffffff1673ffffffffffffffffffffffffffffffffffffffff1681526020019081526020016000208581548110610f03577f4e487b7100000000000000000000000000000000000000000000000000000000600052603260045260246000fd5b906000526020600020906004020160010160009054906101000a900473ffffffffffffffffffffffffffffffffffffffff1673ffffffffffffffffffffffffffffffffffffffff16148015610ff05750856002600084815260200190815260200160002060008a73ffffffffffffffffffffffffffffffffffffffff1673ffffffffffffffffffffffffffffffffffffffff1681526020019081526020016000208581548110610fdc577f4e487b7100000000000000000000000000000000000000000000000000000000600052603260045260246000fd5b906000526020600020906004020160020154145b61102f576040517f08c379a00000000000000000000000000000000000000000000000000000000081526004016110269061365d565b60405180910390fd5b60006002600084815260200190815260200160002060008a73ffffffffffffffffffffffffffffffffffffffff1673ffffffffffffffffffffffffffffffffffffffff16815260200190815260200160002085815481106110b9577f4e487b7100000000000000000000000000000000000000000000000000000000600052603260045260246000fd5b90600052602060002090600402019050806040516020016110da919061379d565b6040516020818303038152906040528051906020012093506111c7816040518060800160405290816000820160009054906101000a900473ffffffffffffffffffffffffffffffffffffffff1673ffffffffffffffffffffffffffffffffffffffff1673ffffffffffffffffffffffffffffffffffffffff1681526020016001820160009054906101000a900473ffffffffffffffffffffffffffffffffffffffff1673ffffffffffffffffffffffffffffffffffffffff1673ffffffffffffffffffffffffffffffffffffffff1681526020016002820154815260200160038201548152505085611ccc565b7fa3ab10ebc8699a3ce657eefeca53683f268623eb4481d6846d50ae63744b7deb898989898989604051611200969594939291906134c2565b60405180910390a150505095945050505050565b6060600b805461122390613a67565b80601f016020809104026020016040519081016040528092919081815260200182805461124f90613a67565b801561129c5780601f106112715761010080835404028352916020019161129c565b820191906000526020600020905b81548152906001019060200180831161127f57829003601f168201915b5050505050905090565b6000806112b1611555565b905060006112bf82866114c8565b905083811015611304576040517f08c379a00000000000000000000000000000000000000000000000000000000081526004016112fb9061377d565b60405180910390fd5b611311828686840361155d565b60019250505092915050565b600080611328611555565b90506113358185856117b4565b600191505092915050565b60606002600084815260200190815260200160002060008373ffffffffffffffffffffffffffffffffffffffff1673ffffffffffffffffffffffffffffffffffffffff168152602001908152602001600020805480602002602001604051908101604052809291908181526020016000905b828210156114a457838290600052602060002090600402016040518060800160405290816000820160009054906101000a900473ffffffffffffffffffffffffffffffffffffffff1673ffffffffffffffffffffffffffffffffffffffff1673ffffffffffffffffffffffffffffffffffffffff1681526020016001820160009054906101000a900473ffffffffffffffffffffffffffffffffffffffff1673ffffffffffffffffffffffffffffffffffffffff1673ffffffffffffffffffffffffffffffffffffffff16815260200160028201548152602001600382015481525050815260200190600101906113b2565b50505050905092915050565b60016020528060005260406000206000915090505481565b6000600760008473ffffffffffffffffffffffffffffffffffffffff1673ffffffffffffffffffffffffffffffffffffffff16815260200190815260200160002060008373ffffffffffffffffffffffffffffffffffffffff1673ffffffffffffffffffffffffffffffffffffffff16815260200190815260200160002054905092915050565b60055481565b600033905090565b600073ffffffffffffffffffffffffffffffffffffffff168373ffffffffffffffffffffffffffffffffffffffff1614156115cd576040517f08c379a00000000000000000000000000000000000000000000000000000000081526004016115c4906136fd565b60405180910390fd5b600073ffffffffffffffffffffffffffffffffffffffff168273ffffffffffffffffffffffffffffffffffffffff16141561163d576040517f08c379a0000000000000000000000000000000000000000000000000000000008152600401611634906135dd565b60405180910390fd5b80600760008573ffffffffffffffffffffffffffffffffffffffff1673ffffffffffffffffffffffffffffffffffffffff16815260200190815260200160002060008473ffffffffffffffffffffffffffffffffffffffff1673ffffffffffffffffffffffffffffffffffffffff168152602001908152602001600020819055508173ffffffffffffffffffffffffffffffffffffffff168373ffffffffffffffffffffffffffffffffffffffff167f8c5be1e5ebec7d5bd14f71427d1e84f3dd0314c0f7b2291e5b200ac8c7c3b9258360405161171b91906137b8565b60405180910390a3505050565b600061173484846114c8565b90507fffffffffffffffffffffffffffffffffffffffffffffffffffffffffffffffff81146117ae57818110156117a0576040517f08c379a00000000000000000000000000000000000000000000000000000000081526004016117979061361d565b60405180910390fd5b6117ad848484840361155d565b5b50505050565b600073ffffffffffffffffffffffffffffffffffffffff168373ffffffffffffffffffffffffffffffffffffffff161415611824576040517f08c379a000000000000000000000000000000000000000000000000000000000815260040161181b906136bd565b60405180910390fd5b600073ffffffffffffffffffffffffffffffffffffffff168273ffffffffffffffffffffffffffffffffffffffff161415611894576040517f08c379a000000000000000000000000000000000000000000000000000000000815260040161188b9061359d565b60405180910390fd5b61189f838383612227565b60008060008573ffffffffffffffffffffffffffffffffffffffff1673ffffffffffffffffffffffffffffffffffffffff16815260200190815260200160002054905081811015611925576040517f08c379a000000000000000000000000000000000000000000000000000000000815260040161191c9061363d565b60405180910390fd5b60008282611933919061394d565b9050600160008673ffffffffffffffffffffffffffffffffffffffff1673ffffffffffffffffffffffffffffffffffffffff1681526020019081526020016000205481116119b6576040517f08c379a00000000000000000000000000000000000000000000000000000000081526004016119ad906135fd565b60405180910390fd5b8282036000808773ffffffffffffffffffffffffffffffffffffffff1673ffffffffffffffffffffffffffffffffffffffff16815260200190815260200160002081905550826000808673ffffffffffffffffffffffffffffffffffffffff1673ffffffffffffffffffffffffffffffffffffffff1681526020019081526020016000206000828254611a49919061386c565b92505081905550600060055443611a6091906138c2565b905060006002600083815260200190815260200160002060008873ffffffffffffffffffffffffffffffffffffffff1673ffffffffffffffffffffffffffffffffffffffff168152602001908152602001600020805490501415611aea576001600460008381526020019081526020016000206000828254611ae2919061386c565b925050819055505b6002600082815260200190815260200160002060008773ffffffffffffffffffffffffffffffffffffffff1673ffffffffffffffffffffffffffffffffffffffff16815260200190815260200160002060405180608001604052808873ffffffffffffffffffffffffffffffffffffffff1681526020018773ffffffffffffffffffffffffffffffffffffffff16815260200186815260200143815250908060018154018082558091505060019003906000526020600020906004020160009091909190915060008201518160000160006101000a81548173ffffffffffffffffffffffffffffffffffffffff021916908373ffffffffffffffffffffffffffffffffffffffff16021790555060208201518160010160006101000a81548173ffffffffffffffffffffffffffffffffffffffff021916908373ffffffffffffffffffffffffffffffffffffffff160217905550604082015181600201556060820151816003015550508473ffffffffffffffffffffffffffffffffffffffff168673ffffffffffffffffffffffffffffffffffffffff167fddf252ad1be2c89b69c2b068fc378daa952ba7f163c4a11628f55a4df523b3ef86604051611cb191906137b8565b60405180910390a3611cc486868661222c565b505050505050565b600060016000846020015173ffffffffffffffffffffffffffffffffffffffff1673ffffffffffffffffffffffffffffffffffffffff16815260200190815260200160002054600080856020015173ffffffffffffffffffffffffffffffffffffffff1673ffffffffffffffffffffffffffffffffffffffff16815260200190815260200160002054611d5f919061394d565b905080836040015111611eb057826040015160016000856020015173ffffffffffffffffffffffffffffffffffffffff1673ffffffffffffffffffffffffffffffffffffffff1681526020019081526020016000206000828254611dc3919061386c565b925050819055506003600083815260200190815260200160002083908060018154018082558091505060019003906000526020600020906004020160009091909190915060008201518160000160006101000a81548173ffffffffffffffffffffffffffffffffffffffff021916908373ffffffffffffffffffffffffffffffffffffffff16021790555060208201518160010160006101000a81548173ffffffffffffffffffffffffffffffffffffffff021916908373ffffffffffffffffffffffffffffffffffffffff16021790555060408201518160020155606082015181600301555050612222565b8060016000856020015173ffffffffffffffffffffffffffffffffffffffff1673ffffffffffffffffffffffffffffffffffffffff1681526020019081526020016000206000828254611f03919061386c565b92505081905550600360008381526020019081526020016000206040518060800160405280856000015173ffffffffffffffffffffffffffffffffffffffff168152602001856020015173ffffffffffffffffffffffffffffffffffffffff1681526020018381526020018560600151815250908060018154018082558091505060019003906000526020600020906004020160009091909190915060008201518160000160006101000a81548173ffffffffffffffffffffffffffffffffffffffff021916908373ffffffffffffffffffffffffffffffffffffffff16021790555060208201518160010160006101000a81548173ffffffffffffffffffffffffffffffffffffffff021916908373ffffffffffffffffffffffffffffffffffffffff1602179055506040820151816002015560608201518160030155505060008061206485602001516001876060015161205f919061386c565b612231565b91509150600083866040015161207a919061394d565b905060005b835181101561221d57600060405180608001604052808684815181106120ce577f4e487b7100000000000000000000000000000000000000000000000000000000600052603260045260246000fd5b60200260200101516000015173ffffffffffffffffffffffffffffffffffffffff16815260200186848151811061212e577f4e487b7100000000000000000000000000000000000000000000000000000000600052603260045260246000fd5b60200260200101516020015173ffffffffffffffffffffffffffffffffffffffff1681526020018587858151811061218f577f4e487b7100000000000000000000000000000000000000000000000000000000600052603260045260246000fd5b602002602001015160400151866121a691906138f3565b6121b091906138c2565b81526020018684815181106121ee577f4e487b7100000000000000000000000000000000000000000000000000000000600052603260045260246000fd5b60200260200101516060015181525090506122098188611ccc565b50808061221590613acd565b91505061207f565b505050505b505050565b505050565b505050565b60606000806005548461224491906138c2565b905060006002600083815260200190815260200160002060008773ffffffffffffffffffffffffffffffffffffffff1673ffffffffffffffffffffffffffffffffffffffff16815260200190815260200160002080549050905060006122ae83886000858a612a1c565b905060008094506000600554436122c591906138c2565b90507fffffffffffffffffffffffffffffffffffffffffffffffffffffffffffffffff83146123085782846122fa919061394d565b82612305919061386c565b91505b6000600186612317919061386c565b90505b81811015612396576002600082815260200190815260200160002060008b73ffffffffffffffffffffffffffffffffffffffff1673ffffffffffffffffffffffffffffffffffffffff1681526020019081526020016000208054905083612381919061386c565b9250808061238e90613acd565b91505061231a565b508167ffffffffffffffff8111156123d7577f4e487b7100000000000000000000000000000000000000000000000000000000600052604160045260246000fd5b60405190808252806020026020018201604052801561241057816020015b6123fd612d2c565b8152602001906001900390816123f55790505b50965060007fffffffffffffffffffffffffffffffffffffffffffffffffffffffffffffffff8414612715575b848410156127145760006002600088815260200190815260200160002060008c73ffffffffffffffffffffffffffffffffffffffff1673ffffffffffffffffffffffffffffffffffffffff16815260200190815260200160002085815481106124cf577f4e487b7100000000000000000000000000000000000000000000000000000000600052603260045260246000fd5b90600052602060002090600402016040518060800160405290816000820160009054906101000a900473ffffffffffffffffffffffffffffffffffffffff1673ffffffffffffffffffffffffffffffffffffffff1673ffffffffffffffffffffffffffffffffffffffff1681526020016001820160009054906101000a900473ffffffffffffffffffffffffffffffffffffffff1673ffffffffffffffffffffffffffffffffffffffff1673ffffffffffffffffffffffffffffffffffffffff1681526020016002820154815260200160038201548152505090506040518060800160405280826000015173ffffffffffffffffffffffffffffffffffffffff168152602001826020015173ffffffffffffffffffffffffffffffffffffffff168152602001826040015181526020018260600151815250898381518110612640577f4e487b7100000000000000000000000000000000000000000000000000000000600052603260045260246000fd5b60200260200101819052506002600088815260200190815260200160002060008c73ffffffffffffffffffffffffffffffffffffffff1673ffffffffffffffffffffffffffffffffffffffff16815260200190815260200160002085815481106126d3577f4e487b7100000000000000000000000000000000000000000000000000000000600052603260045260246000fd5b906000526020600020906004020160020154886126f0919061386c565b975081806126fd90613acd565b92505050838061270c90613acd565b94505061243d565b5b6000600187612724919061386c565b90505b82811015612a0e5760005b6002600083815260200190815260200160002060008d73ffffffffffffffffffffffffffffffffffffffff1673ffffffffffffffffffffffffffffffffffffffff168152602001908152602001600020805490508110156129ec576002600083815260200190815260200160002060008d73ffffffffffffffffffffffffffffffffffffffff1673ffffffffffffffffffffffffffffffffffffffff1681526020019081526020016000208181548110612815577f4e487b7100000000000000000000000000000000000000000000000000000000600052603260045260246000fd5b90600052602060002090600402016040518060800160405290816000820160009054906101000a900473ffffffffffffffffffffffffffffffffffffffff1673ffffffffffffffffffffffffffffffffffffffff1673ffffffffffffffffffffffffffffffffffffffff1681526020016001820160009054906101000a900473ffffffffffffffffffffffffffffffffffffffff1673ffffffffffffffffffffffffffffffffffffffff1673ffffffffffffffffffffffffffffffffffffffff168152602001600282015481526020016003820154815250508a8481518110612927577f4e487b7100000000000000000000000000000000000000000000000000000000600052603260045260246000fd5b60200260200101819052506002600083815260200190815260200160002060008d73ffffffffffffffffffffffffffffffffffffffff1673ffffffffffffffffffffffffffffffffffffffff16815260200190815260200160002081815481106129ba577f4e487b7100000000000000000000000000000000000000000000000000000000600052603260045260246000fd5b906000526020600020906004020160020154896129d7919061386c565b985080806129e490613acd565b915050612732565b5081806129f890613acd565b9250508080612a0690613acd565b915050612727565b505050505050509250929050565b6000808484612a2b919061394d565b90506000811480612ae05750600181148015612adf5750826002600089815260200190815260200160002060008873ffffffffffffffffffffffffffffffffffffffff1673ffffffffffffffffffffffffffffffffffffffff1681526020019081526020016000208681548110612acb577f4e487b7100000000000000000000000000000000000000000000000000000000600052603260045260246000fd5b906000526020600020906004020160030154105b5b15612b0e577fffffffffffffffffffffffffffffffffffffffffffffffffffffffffffffffff915050612cff565b6000600282612b1d91906138c2565b86612b28919061386c565b90506000600260008a815260200190815260200160002060008973ffffffffffffffffffffffffffffffffffffffff1673ffffffffffffffffffffffffffffffffffffffff1681526020019081526020016000208281548110612bb4577f4e487b7100000000000000000000000000000000000000000000000000000000600052603260045260246000fd5b906000526020600020906004020160030154905080851015612be757612bdd8989898589612a1c565b9350505050612cff565b80851115612c1257612c088989600185612c01919061386c565b8989612a1c565b9350505050612cff565b5b600082118015612c3057506000600183612c2d919061394d565b10155b8015612ce0575084600260008b815260200190815260200160002060008a73ffffffffffffffffffffffffffffffffffffffff1673ffffffffffffffffffffffffffffffffffffffff168152602001908152602001600020600184612c95919061394d565b81548110612ccc577f4e487b7100000000000000000000000000000000000000000000000000000000600052603260045260246000fd5b906000526020600020906004020160030154115b15612cf8578180612cf090613a3d565b925050612c13565b8193505050505b95945050505050565b5080546000825560040290600052602060002090810190612d299190612d80565b50565b6040518060800160405280600073ffffffffffffffffffffffffffffffffffffffff168152602001600073ffffffffffffffffffffffffffffffffffffffff16815260200160008152602001600081525090565b5b80821115612df157600080820160006101000a81549073ffffffffffffffffffffffffffffffffffffffff02191690556001820160006101000a81549073ffffffffffffffffffffffffffffffffffffffff02191690556002820160009055600382016000905550600401612d81565b5090565b600081359050612e048161408b565b92915050565b60008083601f840112612e1c57600080fd5b8235905067ffffffffffffffff811115612e3557600080fd5b602083019150836020820283011115612e4d57600080fd5b9250929050565b600081359050612e63816140a2565b92915050565b600081359050612e78816140b9565b92915050565b600060208284031215612e9057600080fd5b6000612e9e84828501612df5565b91505092915050565b60008060408385031215612eba57600080fd5b6000612ec885828601612df5565b9250506020612ed985828601612df5565b9150509250929050565b600080600060608486031215612ef857600080fd5b6000612f0686828701612df5565b9350506020612f1786828701612df5565b9250506040612f2886828701612e69565b9150509250925092565b600080600080600060a08688031215612f4a57600080fd5b6000612f5888828901612df5565b9550506020612f6988828901612df5565b9450506040612f7a88828901612e69565b9350506060612f8b88828901612e69565b9250506080612f9c88828901612e69565b9150509295509295909350565b60008060408385031215612fbc57600080fd5b6000612fca85828601612df5565b9250506020612fdb85828601612e69565b9150509250929050565b600080600060408486031215612ffa57600080fd5b600084013567ffffffffffffffff81111561301457600080fd5b61302086828701612e0a565b9350935050602061303386828701612e69565b9150509250925092565b60006020828403121561304f57600080fd5b600061305d84828501612e54565b91505092915050565b6000806040838503121561307957600080fd5b600061308785828601612e69565b925050602061309885828601612df5565b9150509250929050565b60006130ae83836133bd565b60808301905092915050565b6130c3816139ab565b82525050565b6130d2816139ab565b82525050565b60006130e382613827565b6130ed818561384a565b93506130f883613817565b8060005b8381101561312957815161311088826130a2565b975061311b8361383d565b9250506001810190506130fc565b5085935050505092915050565b61313f816139bd565b82525050565b61314e816139c9565b82525050565b600061315f82613832565b613169818561385b565b9350613179818560208601613a0a565b61318281613ba3565b840191505092915050565b600061319a60238361385b565b91506131a582613bc1565b604082019050919050565b60006131bd60548361385b565b91506131c882613c10565b606082019050919050565b60006131e060228361385b565b91506131eb82613c85565b604082019050919050565b6000613203602d8361385b565b915061320e82613cd4565b604082019050919050565b6000613226601d8361385b565b915061323182613d23565b602082019050919050565b600061324960268361385b565b915061325482613d4c565b604082019050919050565b600061326c602d8361385b565b915061327782613d9b565b604082019050919050565b600061328f60528361385b565b915061329a82613dea565b606082019050919050565b60006132b260368361385b565b91506132bd82613e5f565b604082019050919050565b60006132d560258361385b565b91506132e082613eae565b604082019050919050565b60006132f8601f8361385b565b915061330382613efd565b602082019050919050565b600061331b60248361385b565b915061332682613f26565b604082019050919050565b600061333e601b8361385b565b915061334982613f75565b602082019050919050565b600061336160368361385b565b915061336c82613f9e565b604082019050919050565b600061338460398361385b565b915061338f82613fed565b604082019050919050565b60006133a760258361385b565b91506133b28261403c565b604082019050919050565b6080820160008201516133d360008501826130ba565b5060208201516133e660208501826130ba565b5060408201516133f96040850182613495565b50606082015161340c6060850182613495565b50505050565b60808201600080830154905061342781613a99565b61343460008601826130ba565b506001830154905061344581613a99565b61345260208601826130ba565b506002830154905061346381613ab3565b6134706040860182613495565b506003830154905061348181613ab3565b61348e6060860182613495565b5050505050565b61349e816139f3565b82525050565b6134ad816139f3565b82525050565b6134bc816139fd565b82525050565b600060c0820190506134d760008301896130c9565b6134e460208301886130c9565b6134f160408301876134a4565b6134fe60608301866134a4565b61350b60808301856134a4565b61351860a0830184613145565b979650505050505050565b6000602082019050818103600083015261353d81846130d8565b905092915050565b600060208201905061355a6000830184613136565b92915050565b60006020820190506135756000830184613145565b92915050565b600060208201905081810360008301526135958184613154565b905092915050565b600060208201905081810360008301526135b68161318d565b9050919050565b600060208201905081810360008301526135d6816131b0565b9050919050565b600060208201905081810360008301526135f6816131d3565b9050919050565b60006020820190508181036000830152613616816131f6565b9050919050565b6000602082019050818103600083015261363681613219565b9050919050565b600060208201905081810360008301526136568161323c565b9050919050565b600060208201905081810360008301526136768161325f565b9050919050565b6000602082019050818103600083015261369681613282565b9050919050565b600060208201905081810360008301526136b6816132a5565b9050919050565b600060208201905081810360008301526136d6816132c8565b9050919050565b600060208201905081810360008301526136f6816132eb565b9050919050565b600060208201905081810360008301526137168161330e565b9050919050565b6000602082019050818103600083015261373681613331565b9050919050565b6000602082019050818103600083015261375681613354565b9050919050565b6000602082019050818103600083015261377681613377565b9050919050565b600060208201905081810360008301526137968161339a565b9050919050565b60006080820190506137b26000830184613412565b92915050565b60006020820190506137cd60008301846134a4565b92915050565b60006040820190506137e860008301856134a4565b6137f560208301846134a4565b9392505050565b600060208201905061381160008301846134b3565b92915050565b6000819050602082019050919050565b600081519050919050565b600081519050919050565b6000602082019050919050565b600082825260208201905092915050565b600082825260208201905092915050565b6000613877826139f3565b9150613882836139f3565b9250827fffffffffffffffffffffffffffffffffffffffffffffffffffffffffffffffff038211156138b7576138b6613b16565b5b828201905092915050565b60006138cd826139f3565b91506138d8836139f3565b9250826138e8576138e7613b45565b5b828204905092915050565b60006138fe826139f3565b9150613909836139f3565b9250817fffffffffffffffffffffffffffffffffffffffffffffffffffffffffffffffff048311821515161561394257613941613b16565b5b828202905092915050565b6000613958826139f3565b9150613963836139f3565b92508282101561397657613975613b16565b5b828203905092915050565b600073ffffffffffffffffffffffffffffffffffffffff82169050919050565b6000819050919050565b60006139b6826139d3565b9050919050565b60008115159050919050565b6000819050919050565b600073ffffffffffffffffffffffffffffffffffffffff82169050919050565b6000819050919050565b600060ff82169050919050565b60005b83811015613a28578082015181840152602081019050613a0d565b83811115613a37576000848401525b50505050565b6000613a48826139f3565b91506000821415613a5c57613a5b613b16565b5b600182039050919050565b60006002820490506001821680613a7f57607f821691505b60208210811415613a9357613a92613b74565b5b50919050565b6000613aac613aa783613bb4565b613981565b9050919050565b6000613ac6613ac183613bb4565b6139a1565b9050919050565b6000613ad8826139f3565b91507fffffffffffffffffffffffffffffffffffffffffffffffffffffffffffffffff821415613b0b57613b0a613b16565b5b600182019050919050565b7f4e487b7100000000000000000000000000000000000000000000000000000000600052601160045260246000fd5b7f4e487b7100000000000000000000000000000000000000000000000000000000600052601260045260246000fd5b7f4e487b7100000000000000000000000000000000000000000000000000000000600052602260045260246000fd5b6000601f19601f8301169050919050565b60008160001c9050919050565b7f45524332303a207472616e7366657220746f20746865207a65726f206164647260008201527f6573730000000000000000000000000000000000000000000000000000000000602082015250565b7f4552433230523a20737065636966696564207472616e73616374696f6e20626c60008201527f6f636b206e756d6265722069732067726561746572207468616e20746865206360208201527f757272656e7420626c6f636b206e756d6265722e000000000000000000000000604082015250565b7f45524332303a20617070726f766520746f20746865207a65726f20616464726560008201527f7373000000000000000000000000000000000000000000000000000000000000602082015250565b7f4552433230523a2043616e6e6f74207370656e642066726f7a656e206d6f6e6560008201527f7920696e206163636f756e742e00000000000000000000000000000000000000602082015250565b7f45524332303a20696e73756666696369656e7420616c6c6f77616e6365000000600082015250565b7f45524332303a207472616e7366657220616d6f756e742065786365656473206260008201527f616c616e63650000000000000000000000000000000000000000000000000000602082015250565b7f4552433230523a20696e64657820676976656e20646f6573206e6f74206d617460008201527f6368207370656e64697475726500000000000000000000000000000000000000602082015250565b7f4552433230523a2061646472657373657320746f20636c65616e20666f72206260008201527f6c6f636b2045706f636820646f6573206e6f74206d617463682074686520616360208201527f7475616c20646174612073746f726167652e0000000000000000000000000000604082015250565b7f45524332302d523a20426c6f636b2045706f6368206973206e6f7420616c6c6f60008201527f77656420746f20626520636c6561726564207965742e00000000000000000000602082015250565b7f45524332303a207472616e736665722066726f6d20746865207a65726f20616460008201527f6472657373000000000000000000000000000000000000000000000000000000602082015250565b7f4552433230523a20496e76616c696420696e6465782070726f76696465642e00600082015250565b7f45524332303a20617070726f76652066726f6d20746865207a65726f2061646460008201527f7265737300000000000000000000000000000000000000000000000000000000602082015250565b7f455243373231523a20556e617574686f72697a65642063616c6c2e0000000000600082015250565b7f4552433230523a20737065636966696564207472616e73616374696f6e20697360008201527f206e6f206c6f6e6765722072657665727369626c652e00000000000000000000602082015250565b7f4552433230523a204d75737420636c6561722074686520656e7469726520626c60008201527f6f636b2045706f636827732064617461206174206f6e63652e00000000000000602082015250565b7f45524332303a2064656372656173656420616c6c6f77616e63652062656c6f7760008201527f207a65726f000000000000000000000000000000000000000000000000000000602082015250565b614094816139ab565b811461409f57600080fd5b50565b6140ab816139c9565b81146140b657600080fd5b50565b6140c2816139f3565b81146140cd57600080fd5b5056fea2646970667358221220c3fe2b88c9a8ade8c30255826c908837a55b200e26aec482782ad6a4cd9dff6b64736f6c63430008010033",
  "linkReferences": {},
  "deployedLinkReferences": {}
}