{
  "_format": "hh-sol-artifact-1",
  "contractName": "ERC20R",
  "sourceName": "contracts/ERC20R.sol",
  "abi": [
    {
      "inputs": [
        {
          "internalType": "string",
          "name": "name_",
          "type": "string"
        },
        {
          "internalType": "string",
          "name": "symbol_",
          "type": "string"
        },
        {
          "internalType": "uint256",
          "name": "reversiblePeriod_",
          "type": "uint256"
        },
        {
          "internalType": "address",
          "name": "governanceContract_",
          "type": "address"
        }
      ],
      "stateMutability": "nonpayable",
      "type": "constructor"
    },
    {
      "anonymous": false,
      "inputs": [
        {
          "indexed": true,
          "internalType": "address",
          "name": "owner",
          "type": "address"
        },
        {
          "indexed": true,
          "internalType": "address",
          "name": "spender",
          "type": "address"
        },
        {
          "indexed": false,
          "internalType": "uint256",
          "name": "value",
          "type": "uint256"
        }
      ],
      "name": "Approval",
      "type": "event"
    },
    {
      "anonymous": false,
      "inputs": [
        {
          "indexed": false,
          "internalType": "uint256",
          "name": "length",
          "type": "uint256"
        },
        {
          "indexed": false,
          "internalType": "uint256",
          "name": "blockNum",
          "type": "uint256"
        }
      ],
      "name": "ClearedDataInTimeblock",
      "type": "event"
    },
    {
      "anonymous": false,
      "inputs": [
        {
          "indexed": false,
          "internalType": "address",
          "name": "from",
          "type": "address"
        },
        {
          "indexed": false,
          "internalType": "address",
          "name": "to",
          "type": "address"
        },
        {
          "indexed": false,
          "internalType": "uint256",
          "name": "amount",
          "type": "uint256"
        },
        {
          "indexed": false,
          "internalType": "uint256",
          "name": "blockNumber",
          "type": "uint256"
        },
        {
          "indexed": false,
          "internalType": "uint256",
          "name": "index",
          "type": "uint256"
        },
        {
          "indexed": false,
          "internalType": "bytes32",
          "name": "claimID",
          "type": "bytes32"
        }
      ],
      "name": "FreezeSuccessful",
      "type": "event"
    },
    {
      "anonymous": false,
      "inputs": [
        {
          "indexed": false,
          "internalType": "bytes32",
          "name": "claimID",
          "type": "bytes32"
        }
      ],
      "name": "ReverseRejected",
      "type": "event"
    },
    {
      "anonymous": false,
      "inputs": [
        {
          "indexed": false,
          "internalType": "bytes32",
          "name": "claimID",
          "type": "bytes32"
        }
      ],
      "name": "ReverseSuccessful",
      "type": "event"
    },
    {
      "anonymous": false,
      "inputs": [
        {
          "indexed": true,
          "internalType": "address",
          "name": "from",
          "type": "address"
        },
        {
          "indexed": true,
          "internalType": "address",
          "name": "to",
          "type": "address"
        },
        {
          "indexed": false,
          "internalType": "uint256",
          "name": "value",
          "type": "uint256"
        }
      ],
      "name": "Transfer",
      "type": "event"
    },
    {
      "inputs": [],
      "name": "DELTA",
      "outputs": [
        {
          "internalType": "uint256",
          "name": "",
          "type": "uint256"
        }
      ],
      "stateMutability": "view",
      "type": "function"
    },
    {
      "inputs": [
        {
          "internalType": "address",
          "name": "owner",
          "type": "address"
        },
        {
          "internalType": "address",
          "name": "spender",
          "type": "address"
        }
      ],
      "name": "allowance",
      "outputs": [
        {
          "internalType": "uint256",
          "name": "",
          "type": "uint256"
        }
      ],
      "stateMutability": "view",
      "type": "function"
    },
    {
      "inputs": [
        {
          "internalType": "address",
          "name": "spender",
          "type": "address"
        },
        {
          "internalType": "uint256",
          "name": "amount",
          "type": "uint256"
        }
      ],
      "name": "approve",
      "outputs": [
        {
          "internalType": "bool",
          "name": "",
          "type": "bool"
        }
      ],
      "stateMutability": "nonpayable",
      "type": "function"
    },
    {
      "inputs": [
        {
          "internalType": "address",
          "name": "account",
          "type": "address"
        }
      ],
      "name": "balanceOf",
      "outputs": [
        {
          "internalType": "uint256",
          "name": "",
          "type": "uint256"
        }
      ],
      "stateMutability": "view",
      "type": "function"
    },
    {
      "inputs": [
        {
          "internalType": "address[]",
          "name": "addresses",
          "type": "address[]"
        },
        {
          "internalType": "uint256",
          "name": "epoch",
          "type": "uint256"
        }
      ],
      "name": "clean",
      "outputs": [],
      "stateMutability": "nonpayable",
      "type": "function"
    },
    {
      "inputs": [],
      "name": "decimals",
      "outputs": [
        {
          "internalType": "uint8",
          "name": "",
          "type": "uint8"
        }
      ],
      "stateMutability": "view",
      "type": "function"
    },
    {
      "inputs": [
        {
          "internalType": "address",
          "name": "spender",
          "type": "address"
        },
        {
          "internalType": "uint256",
          "name": "subtractedValue",
          "type": "uint256"
        }
      ],
      "name": "decreaseAllowance",
      "outputs": [
        {
          "internalType": "bool",
          "name": "",
          "type": "bool"
        }
      ],
      "stateMutability": "nonpayable",
      "type": "function"
    },
    {
      "inputs": [
        {
          "internalType": "address",
          "name": "from",
          "type": "address"
        },
        {
          "internalType": "address",
          "name": "to",
          "type": "address"
        },
        {
          "internalType": "uint256",
          "name": "amount",
          "type": "uint256"
        },
        {
          "internalType": "uint256",
          "name": "blockNumber",
          "type": "uint256"
        },
        {
          "internalType": "uint256",
          "name": "index",
          "type": "uint256"
        }
      ],
      "name": "freeze",
      "outputs": [
        {
          "internalType": "bytes32",
          "name": "claimID",
          "type": "bytes32"
        }
      ],
      "stateMutability": "nonpayable",
      "type": "function"
    },
    {
      "inputs": [
        {
          "internalType": "address",
          "name": "spender",
          "type": "address"
        },
        {
          "internalType": "uint256",
          "name": "addedValue",
          "type": "uint256"
        }
      ],
      "name": "increaseAllowance",
      "outputs": [
        {
          "internalType": "bool",
          "name": "",
          "type": "bool"
        }
      ],
      "stateMutability": "nonpayable",
      "type": "function"
    },
    {
      "inputs": [],
      "name": "name",
      "outputs": [
        {
          "internalType": "string",
          "name": "",
          "type": "string"
        }
      ],
      "stateMutability": "view",
      "type": "function"
    },
    {
      "inputs": [
        {
          "internalType": "bytes32",
          "name": "claimID",
          "type": "bytes32"
        }
      ],
      "name": "rejectReverse",
      "outputs": [],
      "stateMutability": "nonpayable",
      "type": "function"
    },
    {
      "inputs": [
        {
          "internalType": "bytes32",
          "name": "claimID",
          "type": "bytes32"
        }
      ],
      "name": "reverse",
      "outputs": [],
      "stateMutability": "nonpayable",
      "type": "function"
    },
    {
      "inputs": [
        {
          "internalType": "uint256",
          "name": "",
          "type": "uint256"
        },
        {
          "internalType": "address",
          "name": "",
          "type": "address"
        },
        {
          "internalType": "uint256",
          "name": "",
          "type": "uint256"
        }
      ],
      "name": "spenditures",
      "outputs": [
        {
          "internalType": "address",
          "name": "from",
          "type": "address"
        },
        {
          "internalType": "address",
          "name": "to",
          "type": "address"
        },
        {
          "internalType": "uint256",
          "name": "amount",
          "type": "uint256"
        },
        {
          "internalType": "uint256",
          "name": "block_number",
          "type": "uint256"
        }
      ],
      "stateMutability": "view",
      "type": "function"
    },
    {
      "inputs": [],
      "name": "symbol",
      "outputs": [
        {
          "internalType": "string",
          "name": "",
          "type": "string"
        }
      ],
      "stateMutability": "view",
      "type": "function"
    },
    {
      "inputs": [],
      "name": "totalSupply",
      "outputs": [
        {
          "internalType": "uint256",
          "name": "",
          "type": "uint256"
        }
      ],
      "stateMutability": "view",
      "type": "function"
    },
    {
      "inputs": [
        {
          "internalType": "address",
          "name": "to",
          "type": "address"
        },
        {
          "internalType": "uint256",
          "name": "amount",
          "type": "uint256"
        }
      ],
      "name": "transfer",
      "outputs": [
        {
          "internalType": "bool",
          "name": "",
          "type": "bool"
        }
      ],
      "stateMutability": "nonpayable",
      "type": "function"
    },
    {
      "inputs": [
        {
          "internalType": "address",
          "name": "from",
          "type": "address"
        },
        {
          "internalType": "address",
          "name": "to",
          "type": "address"
        },
        {
          "internalType": "uint256",
          "name": "amount",
          "type": "uint256"
        }
      ],
      "name": "transferFrom",
      "outputs": [
        {
          "internalType": "bool",
          "name": "",
          "type": "bool"
        }
      ],
      "stateMutability": "nonpayable",
      "type": "function"
    }
  ],
  "bytecode": "0x60806040526103e86005553480156200001757600080fd5b50604051620043233803806200432383398181016040528101906200003d919062000211565b83600a908051906020019062000055929190620000c1565b5082600b90805190602001906200006e929190620000c1565b508160068190555080600960006101000a81548173ffffffffffffffffffffffffffffffffffffffff021916908373ffffffffffffffffffffffffffffffffffffffff1602179055505050505062000491565b828054620000cf9062000382565b90600052602060002090601f016020900481019282620000f357600085556200013f565b82601f106200010e57805160ff19168380011785556200013f565b828001600101855582156200013f579182015b828111156200013e57825182559160200191906001019062000121565b5b5090506200014e919062000152565b5090565b5b808211156200016d57600081600090555060010162000153565b5090565b6000620001886200018284620002d8565b620002af565b905082815260208101848484011115620001a157600080fd5b620001ae8482856200034c565b509392505050565b600081519050620001c7816200045d565b92915050565b600082601f830112620001df57600080fd5b8151620001f184826020860162000171565b91505092915050565b6000815190506200020b8162000477565b92915050565b600080600080608085870312156200022857600080fd5b600085015167ffffffffffffffff8111156200024357600080fd5b6200025187828801620001cd565b945050602085015167ffffffffffffffff8111156200026f57600080fd5b6200027d87828801620001cd565b93505060406200029087828801620001fa565b9250506060620002a387828801620001b6565b91505092959194509250565b6000620002bb620002ce565b9050620002c98282620003b8565b919050565b6000604051905090565b600067ffffffffffffffff821115620002f657620002f56200041d565b5b62000301826200044c565b9050602081019050919050565b60006200031b8262000322565b9050919050565b600073ffffffffffffffffffffffffffffffffffffffff82169050919050565b6000819050919050565b60005b838110156200036c5780820151818401526020810190506200034f565b838111156200037c576000848401525b50505050565b600060028204905060018216806200039b57607f821691505b60208210811415620003b257620003b1620003ee565b5b50919050565b620003c3826200044c565b810181811067ffffffffffffffff82111715620003e557620003e46200041d565b5b80604052505050565b7f4e487b7100000000000000000000000000000000000000000000000000000000600052602260045260246000fd5b7f4e487b7100000000000000000000000000000000000000000000000000000000600052604160045260246000fd5b6000601f19601f8301169050919050565b62000468816200030e565b81146200047457600080fd5b50565b620004828162000342565b81146200048e57600080fd5b50565b613e8280620004a16000396000f3fe608060405234801561001057600080fd5b506004361061010b5760003560e01c806359a37e99116100a2578063a435ebc311610071578063a435ebc3146102cc578063a457c2d7146102ff578063a9059cbb1461032f578063dd62ed3e1461035f578063ecb5fff61461038f5761010b565b806359a37e991461023257806370a082311461024e57806387a3b25b1461027e57806395d89b41146102ae5761010b565b8063313ce567116100de578063313ce567146101ac57806337b34974146101ca57806339509351146101e657806341c4ee28146102165761010b565b806306fdde0314610110578063095ea7b31461012e57806318160ddd1461015e57806323b872dd1461017c575b600080fd5b6101186103ad565b6040516101259190613330565b60405180910390f35b61014860048036038101906101439190612df3565b61043f565b60405161015591906132fa565b60405180910390f35b610166610462565b604051610173919061356d565b60405180910390f35b61019660048036038101906101919190612d2d565b61046c565b6040516101a391906132fa565b60405180910390f35b6101b461049b565b6040516101c191906135b1565b60405180910390f35b6101e460048036038101906101df9190612e87565b6104a4565b005b61020060048036038101906101fb9190612df3565b6106f6565b60405161020d91906132fa565b60405180910390f35b610230600480360381019061022b9190612e87565b61072d565b005b61024c60048036038101906102479190612e2f565b610927565b005b61026860048036038101906102639190612cc8565b610bfb565b604051610275919061356d565b60405180910390f35b61029860048036038101906102939190612d7c565b610c43565b6040516102a59190613315565b60405180910390f35b6102b66111d1565b6040516102c39190613330565b60405180910390f35b6102e660048036038101906102e19190612eb0565b611263565b6040516102f69493929190613254565b60405180910390f35b61031960048036038101906103149190612df3565b6112fd565b60405161032691906132fa565b60405180910390f35b61034960048036038101906103449190612df3565b611374565b60405161035691906132fa565b60405180910390f35b61037960048036038101906103749190612cf1565b611397565b604051610386919061356d565b60405180910390f35b61039761141e565b6040516103a4919061356d565b60405180910390f35b6060600a80546103bc906137e3565b80601f01602080910402602001604051908101604052809291908181526020018280546103e8906137e3565b80156104355780601f1061040a57610100808354040283529160200191610435565b820191906000526020600020905b81548152906001019060200180831161041857829003601f168201915b5050505050905090565b60008061044a611424565b905061045781858561142c565b600191505092915050565b6000600854905090565b600080610477611424565b90506104848582856115f7565b61048f858585611683565b60019150509392505050565b60006012905090565b600960009054906101000a900473ffffffffffffffffffffffffffffffffffffffff1673ffffffffffffffffffffffffffffffffffffffff163373ffffffffffffffffffffffffffffffffffffffff1614610534576040517f08c379a000000000000000000000000000000000000000000000000000000000815260040161052b906134d2565b60405180910390fd5b60005b60036000838152602001908152602001600020805490508110156106bb5760006003600084815260200190815260200160002082815481106105a2577f4e487b7100000000000000000000000000000000000000000000000000000000600052603260045260246000fd5b906000526020600020906004020190508060020154600160008360000160009054906101000a900473ffffffffffffffffffffffffffffffffffffffff1673ffffffffffffffffffffffffffffffffffffffff1673ffffffffffffffffffffffffffffffffffffffff168152602001908152602001600020600082825461062991906136c9565b925050819055506106878160010160009054906101000a900473ffffffffffffffffffffffffffffffffffffffff168260000160009054906101000a900473ffffffffffffffffffffffffffffffffffffffff16836002015461046c565b506003600084815260200190815260200160002060006106a79190612b52565b5080806106b390613849565b915050610537565b507fc3a0e8130148823fcfd1380b4d489a6c12a064caec2e9cf7d1ba333cfd8c5aea816040516106eb9190613315565b60405180910390a150565b600080610701611424565b90506107228185856107138589611397565b61071d91906135e8565b61142c565b600191505092915050565b600960009054906101000a900473ffffffffffffffffffffffffffffffffffffffff1673ffffffffffffffffffffffffffffffffffffffff163373ffffffffffffffffffffffffffffffffffffffff16146107bd576040517f08c379a00000000000000000000000000000000000000000000000000000000081526004016107b4906134d2565b60405180910390fd5b60005b60036000838152602001908152602001600020805490508110156108ec57600060036000848152602001908152602001600020828154811061082b577f4e487b7100000000000000000000000000000000000000000000000000000000600052603260045260246000fd5b906000526020600020906004020190508060020154600160008360000160009054906101000a900473ffffffffffffffffffffffffffffffffffffffff1673ffffffffffffffffffffffffffffffffffffffff1673ffffffffffffffffffffffffffffffffffffffff16815260200190815260200160002060008282546108b291906136c9565b925050819055506003600084815260200190815260200160002060006108d89190612b52565b5080806108e490613849565b9150506107c0565b507f551751f171fd2d638d77a5321747fbffc37bc708e7386a753a8c823e84192b278160405161091c9190613315565b60405180910390a150565b6006544361093591906136c9565b600160055460018461094791906135e8565b610951919061366f565b61095b91906136c9565b1061099b576040517f08c379a000000000000000000000000000000000000000000000000000000000815260040161099290613452565b60405180910390fd5b828290506004600083815260200190815260200160002054146109f3576040517f08c379a00000000000000000000000000000000000000000000000000000000081526004016109ea90613512565b60405180910390fd5b60005b83839050811015610ba0576000600260008481526020019081526020016000206000868685818110610a51577f4e487b7100000000000000000000000000000000000000000000000000000000600052603260045260246000fd5b9050602002016020810190610a669190612cc8565b73ffffffffffffffffffffffffffffffffffffffff1673ffffffffffffffffffffffffffffffffffffffff1681526020019081526020016000208054905011610ae4576040517f08c379a0000000000000000000000000000000000000000000000000000000008152600401610adb90613432565b60405180910390fd5b600260008381526020019081526020016000206000858584818110610b32577f4e487b7100000000000000000000000000000000000000000000000000000000600052603260045260246000fd5b9050602002016020810190610b479190612cc8565b73ffffffffffffffffffffffffffffffffffffffff1673ffffffffffffffffffffffffffffffffffffffff1681526020019081526020016000206000610b8d9190612b52565b8080610b9890613849565b9150506109f6565b50600060046000838152602001908152602001600020819055507f3ce34dbb485a137c63892e885619c05579a67d2142677223383f3344045b1da58383905082604051610bee929190613588565b60405180910390a1505050565b60008060008373ffffffffffffffffffffffffffffffffffffffff1673ffffffffffffffffffffffffffffffffffffffff168152602001908152602001600020549050919050565b6000600960009054906101000a900473ffffffffffffffffffffffffffffffffffffffff1673ffffffffffffffffffffffffffffffffffffffff163373ffffffffffffffffffffffffffffffffffffffff1614610cd5576040517f08c379a0000000000000000000000000000000000000000000000000000000008152600401610ccc906134d2565b60405180910390fd5b60065443610ce391906136c9565b831015610d25576040517f08c379a0000000000000000000000000000000000000000000000000000000008152600401610d1c906134f2565b60405180910390fd5b43831115610d68576040517f08c379a0000000000000000000000000000000000000000000000000000000008152600401610d5f90613372565b60405180910390fd5b600060055484610d78919061363e565b905060006002600083815260200190815260200160002060008973ffffffffffffffffffffffffffffffffffffffff1673ffffffffffffffffffffffffffffffffffffffff16815260200190815260200160002080549050905060008410158015610de257508084105b610e21576040517f08c379a0000000000000000000000000000000000000000000000000000000008152600401610e1890613492565b60405180910390fd5b8673ffffffffffffffffffffffffffffffffffffffff166002600084815260200190815260200160002060008a73ffffffffffffffffffffffffffffffffffffffff1673ffffffffffffffffffffffffffffffffffffffff1681526020019081526020016000208581548110610ec0577f4e487b7100000000000000000000000000000000000000000000000000000000600052603260045260246000fd5b906000526020600020906004020160010160009054906101000a900473ffffffffffffffffffffffffffffffffffffffff1673ffffffffffffffffffffffffffffffffffffffff16148015610fad5750856002600084815260200190815260200160002060008a73ffffffffffffffffffffffffffffffffffffffff1673ffffffffffffffffffffffffffffffffffffffff1681526020019081526020016000208581548110610f99577f4e487b7100000000000000000000000000000000000000000000000000000000600052603260045260246000fd5b906000526020600020906004020160020154145b610fec576040517f08c379a0000000000000000000000000000000000000000000000000000000008152600401610fe390613412565b60405180910390fd5b60006002600084815260200190815260200160002060008a73ffffffffffffffffffffffffffffffffffffffff1673ffffffffffffffffffffffffffffffffffffffff1681526020019081526020016000208581548110611076577f4e487b7100000000000000000000000000000000000000000000000000000000600052603260045260246000fd5b90600052602060002090600402019050806040516020016110979190613552565b604051602081830303815290604052805190602001209350611184816040518060800160405290816000820160009054906101000a900473ffffffffffffffffffffffffffffffffffffffff1673ffffffffffffffffffffffffffffffffffffffff1673ffffffffffffffffffffffffffffffffffffffff1681526020016001820160009054906101000a900473ffffffffffffffffffffffffffffffffffffffff1673ffffffffffffffffffffffffffffffffffffffff1673ffffffffffffffffffffffffffffffffffffffff1681526020016002820154815260200160038201548152505085611b9b565b7fa3ab10ebc8699a3ce657eefeca53683f268623eb4481d6846d50ae63744b7deb8989898989896040516111bd96959493929190613299565b60405180910390a150505095945050505050565b6060600b80546111e0906137e3565b80601f016020809104026020016040519081016040528092919081815260200182805461120c906137e3565b80156112595780601f1061122e57610100808354040283529160200191611259565b820191906000526020600020905b81548152906001019060200180831161123c57829003601f168201915b5050505050905090565b6002602052826000526040600020602052816000526040600020818154811061128b57600080fd5b906000526020600020906004020160009250925050508060000160009054906101000a900473ffffffffffffffffffffffffffffffffffffffff16908060010160009054906101000a900473ffffffffffffffffffffffffffffffffffffffff16908060020154908060030154905084565b600080611308611424565b905060006113168286611397565b90508381101561135b576040517f08c379a000000000000000000000000000000000000000000000000000000000815260040161135290613532565b60405180910390fd5b611368828686840361142c565b60019250505092915050565b60008061137f611424565b905061138c818585611683565b600191505092915050565b6000600760008473ffffffffffffffffffffffffffffffffffffffff1673ffffffffffffffffffffffffffffffffffffffff16815260200190815260200160002060008373ffffffffffffffffffffffffffffffffffffffff1673ffffffffffffffffffffffffffffffffffffffff16815260200190815260200160002054905092915050565b60055481565b600033905090565b600073ffffffffffffffffffffffffffffffffffffffff168373ffffffffffffffffffffffffffffffffffffffff16141561149c576040517f08c379a0000000000000000000000000000000000000000000000000000000008152600401611493906134b2565b60405180910390fd5b600073ffffffffffffffffffffffffffffffffffffffff168273ffffffffffffffffffffffffffffffffffffffff16141561150c576040517f08c379a000000000000000000000000000000000000000000000000000000000815260040161150390613392565b60405180910390fd5b80600760008573ffffffffffffffffffffffffffffffffffffffff1673ffffffffffffffffffffffffffffffffffffffff16815260200190815260200160002060008473ffffffffffffffffffffffffffffffffffffffff1673ffffffffffffffffffffffffffffffffffffffff168152602001908152602001600020819055508173ffffffffffffffffffffffffffffffffffffffff168373ffffffffffffffffffffffffffffffffffffffff167f8c5be1e5ebec7d5bd14f71427d1e84f3dd0314c0f7b2291e5b200ac8c7c3b925836040516115ea919061356d565b60405180910390a3505050565b60006116038484611397565b90507fffffffffffffffffffffffffffffffffffffffffffffffffffffffffffffffff811461167d578181101561166f576040517f08c379a0000000000000000000000000000000000000000000000000000000008152600401611666906133d2565b60405180910390fd5b61167c848484840361142c565b5b50505050565b600073ffffffffffffffffffffffffffffffffffffffff168373ffffffffffffffffffffffffffffffffffffffff1614156116f3576040517f08c379a00000000000000000000000000000000000000000000000000000000081526004016116ea90613472565b60405180910390fd5b600073ffffffffffffffffffffffffffffffffffffffff168273ffffffffffffffffffffffffffffffffffffffff161415611763576040517f08c379a000000000000000000000000000000000000000000000000000000000815260040161175a90613352565b60405180910390fd5b61176e8383836120d6565b60008060008573ffffffffffffffffffffffffffffffffffffffff1673ffffffffffffffffffffffffffffffffffffffff168152602001908152602001600020549050818110156117f4576040517f08c379a00000000000000000000000000000000000000000000000000000000081526004016117eb906133f2565b60405180910390fd5b6000828261180291906136c9565b9050600160008673ffffffffffffffffffffffffffffffffffffffff1673ffffffffffffffffffffffffffffffffffffffff168152602001908152602001600020548111611885576040517f08c379a000000000000000000000000000000000000000000000000000000000815260040161187c906133b2565b60405180910390fd5b8282036000808773ffffffffffffffffffffffffffffffffffffffff1673ffffffffffffffffffffffffffffffffffffffff16815260200190815260200160002081905550826000808673ffffffffffffffffffffffffffffffffffffffff1673ffffffffffffffffffffffffffffffffffffffff168152602001908152602001600020600082825461191891906135e8565b9250508190555060006005544361192f919061363e565b905060006002600083815260200190815260200160002060008873ffffffffffffffffffffffffffffffffffffffff1673ffffffffffffffffffffffffffffffffffffffff1681526020019081526020016000208054905014156119b95760016004600083815260200190815260200160002060008282546119b191906135e8565b925050819055505b6002600082815260200190815260200160002060008773ffffffffffffffffffffffffffffffffffffffff1673ffffffffffffffffffffffffffffffffffffffff16815260200190815260200160002060405180608001604052808873ffffffffffffffffffffffffffffffffffffffff1681526020018773ffffffffffffffffffffffffffffffffffffffff16815260200186815260200143815250908060018154018082558091505060019003906000526020600020906004020160009091909190915060008201518160000160006101000a81548173ffffffffffffffffffffffffffffffffffffffff021916908373ffffffffffffffffffffffffffffffffffffffff16021790555060208201518160010160006101000a81548173ffffffffffffffffffffffffffffffffffffffff021916908373ffffffffffffffffffffffffffffffffffffffff160217905550604082015181600201556060820151816003015550508473ffffffffffffffffffffffffffffffffffffffff168673ffffffffffffffffffffffffffffffffffffffff167fddf252ad1be2c89b69c2b068fc378daa952ba7f163c4a11628f55a4df523b3ef86604051611b80919061356d565b60405180910390a3611b938686866120db565b505050505050565b600060016000846020015173ffffffffffffffffffffffffffffffffffffffff1673ffffffffffffffffffffffffffffffffffffffff16815260200190815260200160002054600080856020015173ffffffffffffffffffffffffffffffffffffffff1673ffffffffffffffffffffffffffffffffffffffff16815260200190815260200160002054611c2e91906136c9565b905080836040015111611d7f57826040015160016000856020015173ffffffffffffffffffffffffffffffffffffffff1673ffffffffffffffffffffffffffffffffffffffff1681526020019081526020016000206000828254611c9291906135e8565b925050819055506003600083815260200190815260200160002083908060018154018082558091505060019003906000526020600020906004020160009091909190915060008201518160000160006101000a81548173ffffffffffffffffffffffffffffffffffffffff021916908373ffffffffffffffffffffffffffffffffffffffff16021790555060208201518160010160006101000a81548173ffffffffffffffffffffffffffffffffffffffff021916908373ffffffffffffffffffffffffffffffffffffffff160217905550604082015181600201556060820151816003015550506120d1565b8060016000856000015173ffffffffffffffffffffffffffffffffffffffff1673ffffffffffffffffffffffffffffffffffffffff1681526020019081526020016000206000828254611dd291906135e8565b92505081905550600360008381526020019081526020016000206040518060800160405280856000015173ffffffffffffffffffffffffffffffffffffffff168152602001856020015173ffffffffffffffffffffffffffffffffffffffff1681526020018381526020018560600151815250908060018154018082558091505060019003906000526020600020906004020160009091909190915060008201518160000160006101000a81548173ffffffffffffffffffffffffffffffffffffffff021916908373ffffffffffffffffffffffffffffffffffffffff16021790555060208201518160010160006101000a81548173ffffffffffffffffffffffffffffffffffffffff021916908373ffffffffffffffffffffffffffffffffffffffff16021790555060408201518160020155606082015181600301555050600080611f33856020015160018760600151611f2e91906135e8565b6120e0565b9150915060005b82518110156120cd5760006040518060800160405280858481518110611f89577f4e487b7100000000000000000000000000000000000000000000000000000000600052603260045260246000fd5b60200260200101516000015173ffffffffffffffffffffffffffffffffffffffff168152602001858481518110611fe9577f4e487b7100000000000000000000000000000000000000000000000000000000600052603260045260246000fd5b60200260200101516020015173ffffffffffffffffffffffffffffffffffffffff1681526020018486858151811061204a577f4e487b7100000000000000000000000000000000000000000000000000000000600052603260045260246000fd5b602002602001015160400151612060919061363e565b815260200185848151811061209e577f4e487b7100000000000000000000000000000000000000000000000000000000600052603260045260246000fd5b60200260200101516060015181525090506120b98187611b9b565b5080806120c590613849565b915050611f3a565b5050505b505050565b505050565b505050565b6060600080600554846120f3919061363e565b905060006002600083815260200190815260200160002060008773ffffffffffffffffffffffffffffffffffffffff1673ffffffffffffffffffffffffffffffffffffffff168152602001908152602001600020805490509050600061215d83886000858a612871565b9050600093506000818361217191906136c9565b9050600060055443612183919061363e565b9050600060018661219491906135e8565b90505b81811015612213576002600082815260200190815260200160002060008b73ffffffffffffffffffffffffffffffffffffffff1673ffffffffffffffffffffffffffffffffffffffff16815260200190815260200160002080549050836121fe91906135e8565b9250808061220b90613849565b915050612197565b508167ffffffffffffffff811115612254577f4e487b7100000000000000000000000000000000000000000000000000000000600052604160045260246000fd5b60405190808252806020026020018201604052801561228d57816020015b61227a612b76565b8152602001906001900390816122725790505b50965060005b8484101561256a5760006002600088815260200190815260200160002060008c73ffffffffffffffffffffffffffffffffffffffff1673ffffffffffffffffffffffffffffffffffffffff1681526020019081526020016000208581548110612325577f4e487b7100000000000000000000000000000000000000000000000000000000600052603260045260246000fd5b90600052602060002090600402016040518060800160405290816000820160009054906101000a900473ffffffffffffffffffffffffffffffffffffffff1673ffffffffffffffffffffffffffffffffffffffff1673ffffffffffffffffffffffffffffffffffffffff1681526020016001820160009054906101000a900473ffffffffffffffffffffffffffffffffffffffff1673ffffffffffffffffffffffffffffffffffffffff1673ffffffffffffffffffffffffffffffffffffffff1681526020016002820154815260200160038201548152505090506040518060800160405280826000015173ffffffffffffffffffffffffffffffffffffffff168152602001826020015173ffffffffffffffffffffffffffffffffffffffff168152602001826040015181526020018260600151815250898381518110612496577f4e487b7100000000000000000000000000000000000000000000000000000000600052603260045260246000fd5b60200260200101819052506002600088815260200190815260200160002060008c73ffffffffffffffffffffffffffffffffffffffff1673ffffffffffffffffffffffffffffffffffffffff1681526020019081526020016000208581548110612529577f4e487b7100000000000000000000000000000000000000000000000000000000600052603260045260246000fd5b9060005260206000209060040201600201548861254691906135e8565b9750818061255390613849565b92505050838061256290613849565b945050612293565b600060018761257991906135e8565b90505b828110156128635760005b6002600083815260200190815260200160002060008d73ffffffffffffffffffffffffffffffffffffffff1673ffffffffffffffffffffffffffffffffffffffff16815260200190815260200160002080549050811015612841576002600083815260200190815260200160002060008d73ffffffffffffffffffffffffffffffffffffffff1673ffffffffffffffffffffffffffffffffffffffff168152602001908152602001600020818154811061266a577f4e487b7100000000000000000000000000000000000000000000000000000000600052603260045260246000fd5b90600052602060002090600402016040518060800160405290816000820160009054906101000a900473ffffffffffffffffffffffffffffffffffffffff1673ffffffffffffffffffffffffffffffffffffffff1673ffffffffffffffffffffffffffffffffffffffff1681526020016001820160009054906101000a900473ffffffffffffffffffffffffffffffffffffffff1673ffffffffffffffffffffffffffffffffffffffff1673ffffffffffffffffffffffffffffffffffffffff168152602001600282015481526020016003820154815250508a848151811061277c577f4e487b7100000000000000000000000000000000000000000000000000000000600052603260045260246000fd5b60200260200101819052506002600083815260200190815260200160002060008d73ffffffffffffffffffffffffffffffffffffffff1673ffffffffffffffffffffffffffffffffffffffff168152602001908152602001600020818154811061280f577f4e487b7100000000000000000000000000000000000000000000000000000000600052603260045260246000fd5b9060005260206000209060040201600201548961282c91906135e8565b9850808061283990613849565b915050612587565b50818061284d90613849565b925050808061285b90613849565b91505061257c565b505050505050509250929050565b600080848461288091906136c9565b9050600081148061293657506001811480156129355750826002600089815260200190815260200160002060008873ffffffffffffffffffffffffffffffffffffffff1673ffffffffffffffffffffffffffffffffffffffff1681526020019081526020016000208681548110612920577f4e487b7100000000000000000000000000000000000000000000000000000000600052603260045260246000fd5b90600052602060002090600402016003015414155b5b15612964577fffffffffffffffffffffffffffffffffffffffffffffffffffffffffffffffff915050612b49565b6000600282612973919061363e565b8661297e91906135e8565b90506000600260008a815260200190815260200160002060008973ffffffffffffffffffffffffffffffffffffffff1673ffffffffffffffffffffffffffffffffffffffff1681526020019081526020016000208281548110612a0a577f4e487b7100000000000000000000000000000000000000000000000000000000600052603260045260246000fd5b906000526020600020906004020160030154905080851015612a3d57612a338989898589612871565b9350505050612b49565b80851115612a6857612a5e8989600185612a5791906135e8565b8989612871565b9350505050612b49565b5b6000600183612a7891906136c9565b10158015612b2a575084600260008b815260200190815260200160002060008a73ffffffffffffffffffffffffffffffffffffffff1673ffffffffffffffffffffffffffffffffffffffff168152602001908152602001600020600184612adf91906136c9565b81548110612b16577f4e487b7100000000000000000000000000000000000000000000000000000000600052603260045260246000fd5b906000526020600020906004020160030154145b15612b42578180612b3a906137b9565b925050612a69565b8193505050505b95945050505050565b5080546000825560040290600052602060002090810190612b739190612bca565b50565b6040518060800160405280600073ffffffffffffffffffffffffffffffffffffffff168152602001600073ffffffffffffffffffffffffffffffffffffffff16815260200160008152602001600081525090565b5b80821115612c3b57600080820160006101000a81549073ffffffffffffffffffffffffffffffffffffffff02191690556001820160006101000a81549073ffffffffffffffffffffffffffffffffffffffff02191690556002820160009055600382016000905550600401612bcb565b5090565b600081359050612c4e81613e07565b92915050565b60008083601f840112612c6657600080fd5b8235905067ffffffffffffffff811115612c7f57600080fd5b602083019150836020820283011115612c9757600080fd5b9250929050565b600081359050612cad81613e1e565b92915050565b600081359050612cc281613e35565b92915050565b600060208284031215612cda57600080fd5b6000612ce884828501612c3f565b91505092915050565b60008060408385031215612d0457600080fd5b6000612d1285828601612c3f565b9250506020612d2385828601612c3f565b9150509250929050565b600080600060608486031215612d4257600080fd5b6000612d5086828701612c3f565b9350506020612d6186828701612c3f565b9250506040612d7286828701612cb3565b9150509250925092565b600080600080600060a08688031215612d9457600080fd5b6000612da288828901612c3f565b9550506020612db388828901612c3f565b9450506040612dc488828901612cb3565b9350506060612dd588828901612cb3565b9250506080612de688828901612cb3565b9150509295509295909350565b60008060408385031215612e0657600080fd5b6000612e1485828601612c3f565b9250506020612e2585828601612cb3565b9150509250929050565b600080600060408486031215612e4457600080fd5b600084013567ffffffffffffffff811115612e5e57600080fd5b612e6a86828701612c54565b93509350506020612e7d86828701612cb3565b9150509250925092565b600060208284031215612e9957600080fd5b6000612ea784828501612c9e565b91505092915050565b600080600060608486031215612ec557600080fd5b6000612ed386828701612cb3565b9350506020612ee486828701612c3f565b9250506040612ef586828701612cb3565b9150509250925092565b612f0881613727565b82525050565b612f1781613727565b82525050565b612f2681613739565b82525050565b612f3581613745565b82525050565b6000612f46826135cc565b612f5081856135d7565b9350612f60818560208601613786565b612f698161391f565b840191505092915050565b6000612f816023836135d7565b9150612f8c8261393d565b604082019050919050565b6000612fa46054836135d7565b9150612faf8261398c565b606082019050919050565b6000612fc76022836135d7565b9150612fd282613a01565b604082019050919050565b6000612fea602d836135d7565b9150612ff582613a50565b604082019050919050565b600061300d601d836135d7565b915061301882613a9f565b602082019050919050565b60006130306026836135d7565b915061303b82613ac8565b604082019050919050565b6000613053602d836135d7565b915061305e82613b17565b604082019050919050565b60006130766052836135d7565b915061308182613b66565b606082019050919050565b60006130996036836135d7565b91506130a482613bdb565b604082019050919050565b60006130bc6025836135d7565b91506130c782613c2a565b604082019050919050565b60006130df601f836135d7565b91506130ea82613c79565b602082019050919050565b60006131026024836135d7565b915061310d82613ca2565b604082019050919050565b6000613125601b836135d7565b915061313082613cf1565b602082019050919050565b60006131486036836135d7565b915061315382613d1a565b604082019050919050565b600061316b6039836135d7565b915061317682613d69565b604082019050919050565b600061318e6025836135d7565b915061319982613db8565b604082019050919050565b6080820160008083015490506131b981613815565b6131c66000860182612eff565b50600183015490506131d781613815565b6131e46020860182612eff565b50600283015490506131f58161382f565b6132026040860182613227565b50600383015490506132138161382f565b6132206060860182613227565b5050505050565b6132308161376f565b82525050565b61323f8161376f565b82525050565b61324e81613779565b82525050565b60006080820190506132696000830187612f0e565b6132766020830186612f0e565b6132836040830185613236565b6132906060830184613236565b95945050505050565b600060c0820190506132ae6000830189612f0e565b6132bb6020830188612f0e565b6132c86040830187613236565b6132d56060830186613236565b6132e26080830185613236565b6132ef60a0830184612f2c565b979650505050505050565b600060208201905061330f6000830184612f1d565b92915050565b600060208201905061332a6000830184612f2c565b92915050565b6000602082019050818103600083015261334a8184612f3b565b905092915050565b6000602082019050818103600083015261336b81612f74565b9050919050565b6000602082019050818103600083015261338b81612f97565b9050919050565b600060208201905081810360008301526133ab81612fba565b9050919050565b600060208201905081810360008301526133cb81612fdd565b9050919050565b600060208201905081810360008301526133eb81613000565b9050919050565b6000602082019050818103600083015261340b81613023565b9050919050565b6000602082019050818103600083015261342b81613046565b9050919050565b6000602082019050818103600083015261344b81613069565b9050919050565b6000602082019050818103600083015261346b8161308c565b9050919050565b6000602082019050818103600083015261348b816130af565b9050919050565b600060208201905081810360008301526134ab816130d2565b9050919050565b600060208201905081810360008301526134cb816130f5565b9050919050565b600060208201905081810360008301526134eb81613118565b9050919050565b6000602082019050818103600083015261350b8161313b565b9050919050565b6000602082019050818103600083015261352b8161315e565b9050919050565b6000602082019050818103600083015261354b81613181565b9050919050565b600060808201905061356760008301846131a4565b92915050565b60006020820190506135826000830184613236565b92915050565b600060408201905061359d6000830185613236565b6135aa6020830184613236565b9392505050565b60006020820190506135c66000830184613245565b92915050565b600081519050919050565b600082825260208201905092915050565b60006135f38261376f565b91506135fe8361376f565b9250827fffffffffffffffffffffffffffffffffffffffffffffffffffffffffffffffff0382111561363357613632613892565b5b828201905092915050565b60006136498261376f565b91506136548361376f565b925082613664576136636138c1565b5b828204905092915050565b600061367a8261376f565b91506136858361376f565b9250817fffffffffffffffffffffffffffffffffffffffffffffffffffffffffffffffff04831182151516156136be576136bd613892565b5b828202905092915050565b60006136d48261376f565b91506136df8361376f565b9250828210156136f2576136f1613892565b5b828203905092915050565b600073ffffffffffffffffffffffffffffffffffffffff82169050919050565b6000819050919050565b60006137328261374f565b9050919050565b60008115159050919050565b6000819050919050565b600073ffffffffffffffffffffffffffffffffffffffff82169050919050565b6000819050919050565b600060ff82169050919050565b60005b838110156137a4578082015181840152602081019050613789565b838111156137b3576000848401525b50505050565b60006137c48261376f565b915060008214156137d8576137d7613892565b5b600182039050919050565b600060028204905060018216806137fb57607f821691505b6020821081141561380f5761380e6138f0565b5b50919050565b600061382861382383613930565b6136fd565b9050919050565b600061384261383d83613930565b61371d565b9050919050565b60006138548261376f565b91507fffffffffffffffffffffffffffffffffffffffffffffffffffffffffffffffff82141561388757613886613892565b5b600182019050919050565b7f4e487b7100000000000000000000000000000000000000000000000000000000600052601160045260246000fd5b7f4e487b7100000000000000000000000000000000000000000000000000000000600052601260045260246000fd5b7f4e487b7100000000000000000000000000000000000000000000000000000000600052602260045260246000fd5b6000601f19601f8301169050919050565b60008160001c9050919050565b7f45524332303a207472616e7366657220746f20746865207a65726f206164647260008201527f6573730000000000000000000000000000000000000000000000000000000000602082015250565b7f4552433230523a20737065636966696564207472616e73616374696f6e20626c60008201527f6f636b206e756d6265722069732067726561746572207468616e20746865206360208201527f757272656e7420626c6f636b206e756d6265722e000000000000000000000000604082015250565b7f45524332303a20617070726f766520746f20746865207a65726f20616464726560008201527f7373000000000000000000000000000000000000000000000000000000000000602082015250565b7f4552433230523a2043616e6e6f74207370656e642066726f7a656e206d6f6e6560008201527f7920696e206163636f756e742e00000000000000000000000000000000000000602082015250565b7f45524332303a20696e73756666696369656e7420616c6c6f77616e6365000000600082015250565b7f45524332303a207472616e7366657220616d6f756e742065786365656473206260008201527f616c616e63650000000000000000000000000000000000000000000000000000602082015250565b7f4552433230523a20696e64657820676976656e20646f6573206e6f74206d617460008201527f6368207370656e64697475726500000000000000000000000000000000000000602082015250565b7f4552433230523a2061646472657373657320746f20636c65616e20666f72206260008201527f6c6f636b2045706f636820646f6573206e6f74206d617463682074686520616360208201527f7475616c20646174612073746f726167652e0000000000000000000000000000604082015250565b7f45524332302d523a20426c6f636b2045706f6368206973206e6f7420616c6c6f60008201527f77656420746f20626520636c6561726564207965742e00000000000000000000602082015250565b7f45524332303a207472616e736665722066726f6d20746865207a65726f20616460008201527f6472657373000000000000000000000000000000000000000000000000000000602082015250565b7f4552433230523a20496e76616c696420696e6465782070726f76696465642e00600082015250565b7f45524332303a20617070726f76652066726f6d20746865207a65726f2061646460008201527f7265737300000000000000000000000000000000000000000000000000000000602082015250565b7f455243373231523a20556e617574686f72697a65642063616c6c2e0000000000600082015250565b7f4552433230523a20737065636966696564207472616e73616374696f6e20697360008201527f206e6f206c6f6e6765722072657665727369626c652e00000000000000000000602082015250565b7f4552433230523a204d75737420636c6561722074686520656e7469726520626c60008201527f6f636b2045706f636827732064617461206174206f6e63652e00000000000000602082015250565b7f45524332303a2064656372656173656420616c6c6f77616e63652062656c6f7760008201527f207a65726f000000000000000000000000000000000000000000000000000000602082015250565b613e1081613727565b8114613e1b57600080fd5b50565b613e2781613745565b8114613e3257600080fd5b50565b613e3e8161376f565b8114613e4957600080fd5b5056fea2646970667358221220c0fc3e3f0e3b9d0e9e09f5cbaf0e7707183c56cd366a01df665055a96b29a9e564736f6c63430008010033",
  "linkReferences": {},
  "deployedLinkReferences": {}
}