{
  "_format": "hh-sol-artifact-1",
  "contractName": "ERC20R",
  "sourceName": "contracts/ERC20R.sol",
  "abi": [
    {
      "inputs": [
        {
          "internalType": "string",
          "name": "name_",
          "type": "string"
        },
        {
          "internalType": "string",
          "name": "symbol_",
          "type": "string"
        },
        {
          "internalType": "uint256",
          "name": "reversiblePeriod_",
          "type": "uint256"
        },
        {
          "internalType": "address",
          "name": "governanceContract_",
          "type": "address"
        }
      ],
      "stateMutability": "nonpayable",
      "type": "constructor"
    },
    {
      "anonymous": false,
      "inputs": [
        {
          "indexed": true,
          "internalType": "address",
          "name": "owner",
          "type": "address"
        },
        {
          "indexed": true,
          "internalType": "address",
          "name": "spender",
          "type": "address"
        },
        {
          "indexed": false,
          "internalType": "uint256",
          "name": "value",
          "type": "uint256"
        }
      ],
      "name": "Approval",
      "type": "event"
    },
    {
      "anonymous": false,
      "inputs": [
        {
          "indexed": false,
          "internalType": "uint256",
          "name": "length",
          "type": "uint256"
        },
        {
          "indexed": false,
          "internalType": "uint256",
          "name": "blockNum",
          "type": "uint256"
        }
      ],
      "name": "ClearedDataInTimeblock",
      "type": "event"
    },
    {
      "anonymous": false,
      "inputs": [
        {
          "indexed": false,
          "internalType": "address",
          "name": "from",
          "type": "address"
        },
        {
          "indexed": false,
          "internalType": "address",
          "name": "to",
          "type": "address"
        },
        {
          "indexed": false,
          "internalType": "uint256",
          "name": "amount",
          "type": "uint256"
        },
        {
          "indexed": false,
          "internalType": "uint256",
          "name": "blockNumber",
          "type": "uint256"
        },
        {
          "indexed": false,
          "internalType": "uint256",
          "name": "index",
          "type": "uint256"
        },
        {
          "indexed": false,
          "internalType": "bytes32",
          "name": "claimID",
          "type": "bytes32"
        }
      ],
      "name": "FreezeSuccessful",
      "type": "event"
    },
    {
      "anonymous": false,
      "inputs": [
        {
          "indexed": false,
          "internalType": "bytes32",
          "name": "claimID",
          "type": "bytes32"
        }
      ],
      "name": "ReverseRejected",
      "type": "event"
    },
    {
      "anonymous": false,
      "inputs": [
        {
          "indexed": false,
          "internalType": "bytes32",
          "name": "claimID",
          "type": "bytes32"
        }
      ],
      "name": "ReverseSuccessful",
      "type": "event"
    },
    {
      "anonymous": false,
      "inputs": [
        {
          "indexed": true,
          "internalType": "address",
          "name": "from",
          "type": "address"
        },
        {
          "indexed": true,
          "internalType": "address",
          "name": "to",
          "type": "address"
        },
        {
          "indexed": false,
          "internalType": "uint256",
          "name": "value",
          "type": "uint256"
        }
      ],
      "name": "Transfer",
      "type": "event"
    },
    {
      "inputs": [],
      "name": "DELTA",
      "outputs": [
        {
          "internalType": "uint256",
          "name": "",
          "type": "uint256"
        }
      ],
      "stateMutability": "view",
      "type": "function"
    },
    {
      "inputs": [],
      "name": "NUM_REVERSIBLE_BLOCKS",
      "outputs": [
        {
          "internalType": "uint256",
          "name": "",
          "type": "uint256"
        }
      ],
      "stateMutability": "view",
      "type": "function"
    },
    {
      "inputs": [
        {
          "internalType": "address",
          "name": "owner",
          "type": "address"
        },
        {
          "internalType": "address",
          "name": "spender",
          "type": "address"
        }
      ],
      "name": "allowance",
      "outputs": [
        {
          "internalType": "uint256",
          "name": "",
          "type": "uint256"
        }
      ],
      "stateMutability": "view",
      "type": "function"
    },
    {
      "inputs": [
        {
          "internalType": "address",
          "name": "spender",
          "type": "address"
        },
        {
          "internalType": "uint256",
          "name": "amount",
          "type": "uint256"
        }
      ],
      "name": "approve",
      "outputs": [
        {
          "internalType": "bool",
          "name": "",
          "type": "bool"
        }
      ],
      "stateMutability": "nonpayable",
      "type": "function"
    },
    {
      "inputs": [
        {
          "internalType": "address",
          "name": "account",
          "type": "address"
        }
      ],
      "name": "balanceOf",
      "outputs": [
        {
          "internalType": "uint256",
          "name": "",
          "type": "uint256"
        }
      ],
      "stateMutability": "view",
      "type": "function"
    },
    {
      "inputs": [
        {
          "internalType": "address[]",
          "name": "addresses",
          "type": "address[]"
        },
        {
          "internalType": "uint256",
          "name": "epoch",
          "type": "uint256"
        }
      ],
      "name": "clean",
      "outputs": [],
      "stateMutability": "nonpayable",
      "type": "function"
    },
    {
      "inputs": [],
      "name": "decimals",
      "outputs": [
        {
          "internalType": "uint8",
          "name": "",
          "type": "uint8"
        }
      ],
      "stateMutability": "view",
      "type": "function"
    },
    {
      "inputs": [
        {
          "internalType": "address",
          "name": "spender",
          "type": "address"
        },
        {
          "internalType": "uint256",
          "name": "subtractedValue",
          "type": "uint256"
        }
      ],
      "name": "decreaseAllowance",
      "outputs": [
        {
          "internalType": "bool",
          "name": "",
          "type": "bool"
        }
      ],
      "stateMutability": "nonpayable",
      "type": "function"
    },
    {
      "inputs": [
        {
          "internalType": "address",
          "name": "from",
          "type": "address"
        },
        {
          "internalType": "address",
          "name": "to",
          "type": "address"
        },
        {
          "internalType": "uint256",
          "name": "amount",
          "type": "uint256"
        },
        {
          "internalType": "uint256",
          "name": "blockNumber",
          "type": "uint256"
        },
        {
          "internalType": "uint256",
          "name": "index",
          "type": "uint256"
        }
      ],
      "name": "freeze",
      "outputs": [
        {
          "internalType": "bytes32",
          "name": "claimID",
          "type": "bytes32"
        }
      ],
      "stateMutability": "nonpayable",
      "type": "function"
    },
    {
      "inputs": [
        {
          "internalType": "address",
          "name": "",
          "type": "address"
        }
      ],
      "name": "frozen",
      "outputs": [
        {
          "internalType": "uint256",
          "name": "",
          "type": "uint256"
        }
      ],
      "stateMutability": "view",
      "type": "function"
    },
    {
      "inputs": [
        {
          "internalType": "uint256",
          "name": "epoch",
          "type": "uint256"
        },
        {
          "internalType": "address",
          "name": "from",
          "type": "address"
        }
      ],
      "name": "getSpenditures",
      "outputs": [
        {
          "components": [
            {
              "internalType": "address",
              "name": "from",
              "type": "address"
            },
            {
              "internalType": "address",
              "name": "to",
              "type": "address"
            },
            {
              "internalType": "uint256",
              "name": "amount",
              "type": "uint256"
            },
            {
              "internalType": "uint256",
              "name": "block_number",
              "type": "uint256"
            }
          ],
          "internalType": "struct ERC20R.Spenditure[]",
          "name": "",
          "type": "tuple[]"
        }
      ],
      "stateMutability": "view",
      "type": "function"
    },
    {
      "inputs": [
        {
          "internalType": "address",
          "name": "spender",
          "type": "address"
        },
        {
          "internalType": "uint256",
          "name": "addedValue",
          "type": "uint256"
        }
      ],
      "name": "increaseAllowance",
      "outputs": [
        {
          "internalType": "bool",
          "name": "",
          "type": "bool"
        }
      ],
      "stateMutability": "nonpayable",
      "type": "function"
    },
    {
      "inputs": [],
      "name": "name",
      "outputs": [
        {
          "internalType": "string",
          "name": "",
          "type": "string"
        }
      ],
      "stateMutability": "view",
      "type": "function"
    },
    {
      "inputs": [
        {
          "internalType": "bytes32",
          "name": "claimID",
          "type": "bytes32"
        }
      ],
      "name": "rejectReverse",
      "outputs": [],
      "stateMutability": "nonpayable",
      "type": "function"
    },
    {
      "inputs": [
        {
          "internalType": "bytes32",
          "name": "claimID",
          "type": "bytes32"
        }
      ],
      "name": "reverse",
      "outputs": [],
      "stateMutability": "nonpayable",
      "type": "function"
    },
    {
      "inputs": [],
      "name": "symbol",
      "outputs": [
        {
          "internalType": "string",
          "name": "",
          "type": "string"
        }
      ],
      "stateMutability": "view",
      "type": "function"
    },
    {
      "inputs": [],
      "name": "totalSupply",
      "outputs": [
        {
          "internalType": "uint256",
          "name": "",
          "type": "uint256"
        }
      ],
      "stateMutability": "view",
      "type": "function"
    },
    {
      "inputs": [
        {
          "internalType": "address",
          "name": "to",
          "type": "address"
        },
        {
          "internalType": "uint256",
          "name": "amount",
          "type": "uint256"
        }
      ],
      "name": "transfer",
      "outputs": [
        {
          "internalType": "bool",
          "name": "",
          "type": "bool"
        }
      ],
      "stateMutability": "nonpayable",
      "type": "function"
    },
    {
      "inputs": [
        {
          "internalType": "address",
          "name": "from",
          "type": "address"
        },
        {
          "internalType": "address",
          "name": "to",
          "type": "address"
        },
        {
          "internalType": "uint256",
          "name": "amount",
          "type": "uint256"
        }
      ],
      "name": "transferFrom",
      "outputs": [
        {
          "internalType": "bool",
          "name": "",
          "type": "bool"
        }
      ],
      "stateMutability": "nonpayable",
      "type": "function"
    }
  ],
  "bytecode": "0x608060405260646005553480156200001657600080fd5b50604051620048e7380380620048e783398181016040528101906200003c919062000210565b83600a908051906020019062000054929190620000c0565b5082600b90805190602001906200006d929190620000c0565b508160068190555080600960006101000a81548173ffffffffffffffffffffffffffffffffffffffff021916908373ffffffffffffffffffffffffffffffffffffffff1602179055505050505062000490565b828054620000ce9062000381565b90600052602060002090601f016020900481019282620000f257600085556200013e565b82601f106200010d57805160ff19168380011785556200013e565b828001600101855582156200013e579182015b828111156200013d57825182559160200191906001019062000120565b5b5090506200014d919062000151565b5090565b5b808211156200016c57600081600090555060010162000152565b5090565b6000620001876200018184620002d7565b620002ae565b905082815260208101848484011115620001a057600080fd5b620001ad8482856200034b565b509392505050565b600081519050620001c6816200045c565b92915050565b600082601f830112620001de57600080fd5b8151620001f084826020860162000170565b91505092915050565b6000815190506200020a8162000476565b92915050565b600080600080608085870312156200022757600080fd5b600085015167ffffffffffffffff8111156200024257600080fd5b6200025087828801620001cc565b945050602085015167ffffffffffffffff8111156200026e57600080fd5b6200027c87828801620001cc565b93505060406200028f87828801620001f9565b9250506060620002a287828801620001b5565b91505092959194509250565b6000620002ba620002cd565b9050620002c88282620003b7565b919050565b6000604051905090565b600067ffffffffffffffff821115620002f557620002f46200041c565b5b62000300826200044b565b9050602081019050919050565b60006200031a8262000321565b9050919050565b600073ffffffffffffffffffffffffffffffffffffffff82169050919050565b6000819050919050565b60005b838110156200036b5780820151818401526020810190506200034e565b838111156200037b576000848401525b50505050565b600060028204905060018216806200039a57607f821691505b60208210811415620003b157620003b0620003ed565b5b50919050565b620003c2826200044b565b810181811067ffffffffffffffff82111715620003e457620003e36200041c565b5b80604052505050565b7f4e487b7100000000000000000000000000000000000000000000000000000000600052602260045260246000fd5b7f4e487b7100000000000000000000000000000000000000000000000000000000600052604160045260246000fd5b6000601f19601f8301169050919050565b62000467816200030d565b81146200047357600080fd5b50565b620004818162000341565b81146200048d57600080fd5b50565b61444780620004a06000396000f3fe608060405234801561001057600080fd5b50600436106101215760003560e01c806360927b21116100ad578063a9059cbb11610071578063a9059cbb14610330578063bbe06c3714610360578063d051665014610390578063dd62ed3e146103c0578063ecb5fff6146103f057610121565b806360927b211461026457806370a082311461028257806387a3b25b146102b257806395d89b41146102e2578063a457c2d71461030057610121565b8063313ce567116100f4578063313ce567146101c257806337b34974146101e057806339509351146101fc57806341c4ee281461022c57806359a37e991461024857610121565b806306fdde0314610126578063095ea7b31461014457806318160ddd1461017457806323b872dd14610192575b600080fd5b61012e61040e565b60405161013b919061388c565b60405180910390f35b61015e60048036038101906101599190613283565b6104a0565b60405161016b9190613856565b60405180910390f35b61017c6104c3565b6040516101899190613af9565b60405180910390f35b6101ac60048036038101906101a791906131bd565b6104cd565b6040516101b99190613856565b60405180910390f35b6101ca6104fc565b6040516101d79190613b3d565b60405180910390f35b6101fa60048036038101906101f59190613317565b610505565b005b61021660048036038101906102119190613283565b610837565b6040516102239190613856565b60405180910390f35b61024660048036038101906102419190613317565b61086e565b005b610262600480360381019061025d91906132bf565b610a68565b005b61026c610d49565b6040516102799190613af9565b60405180910390f35b61029c60048036038101906102979190613158565b610d4f565b6040516102a99190613af9565b60405180910390f35b6102cc60048036038101906102c7919061320c565b610d97565b6040516102d99190613871565b60405180910390f35b6102ea611330565b6040516102f7919061388c565b60405180910390f35b61031a60048036038101906103159190613283565b6113c2565b6040516103279190613856565b60405180910390f35b61034a60048036038101906103459190613283565b611439565b6040516103579190613856565b60405180910390f35b61037a60048036038101906103759190613340565b61145c565b6040516103879190613834565b60405180910390f35b6103aa60048036038101906103a59190613158565b6115cc565b6040516103b79190613af9565b60405180910390f35b6103da60048036038101906103d59190613181565b6115e4565b6040516103e79190613af9565b60405180910390f35b6103f861166b565b6040516104059190613af9565b60405180910390f35b6060600a805461041d90613da8565b80601f016020809104026020016040519081016040528092919081815260200182805461044990613da8565b80156104965780601f1061046b57610100808354040283529160200191610496565b820191906000526020600020905b81548152906001019060200180831161047957829003601f168201915b5050505050905090565b6000806104ab611671565b90506104b8818585611679565b600191505092915050565b6000600854905090565b6000806104d8611671565b90506104e5858285611844565b6104f08585856118d0565b60019150509392505050565b60006012905090565b600960009054906101000a900473ffffffffffffffffffffffffffffffffffffffff1673ffffffffffffffffffffffffffffffffffffffff163373ffffffffffffffffffffffffffffffffffffffff1614610595576040517f08c379a000000000000000000000000000000000000000000000000000000000815260040161058c90613a5e565b60405180910390fd5b6105b46003600083815260200190815260200160002080549050611de9565b60005b60036000838152602001908152602001600020805490508110156107dd576000600360008481526020019081526020016000208281548110610622577f4e487b7100000000000000000000000000000000000000000000000000000000600052603260045260246000fd5b906000526020600020906004020190506106898160000160009054906101000a900473ffffffffffffffffffffffffffffffffffffffff168260010160009054906101000a900473ffffffffffffffffffffffffffffffffffffffff168360020154611e82565b6106f46040518060400160405280600f81526020017f62616c616e636520696e20746f3a2000000000000000000000000000000000008152506106ef8360010160009054906101000a900473ffffffffffffffffffffffffffffffffffffffff16610d4f565b611f21565b8060020154600160008360010160009054906101000a900473ffffffffffffffffffffffffffffffffffffffff1673ffffffffffffffffffffffffffffffffffffffff1673ffffffffffffffffffffffffffffffffffffffff168152602001908152602001600020600082825461076b9190613c8e565b925050819055506107c98160010160009054906101000a900473ffffffffffffffffffffffffffffffffffffffff168260000160009054906101000a900473ffffffffffffffffffffffffffffffffffffffff1683600201546118d0565b5080806107d590613e0e565b9150506105b7565b506003600082815260200190815260200160002060006107fd9190612fe2565b7fc3a0e8130148823fcfd1380b4d489a6c12a064caec2e9cf7d1ba333cfd8c5aea8160405161082c9190613871565b60405180910390a150565b600080610842611671565b905061086381858561085485896115e4565b61085e9190613bad565b611679565b600191505092915050565b600960009054906101000a900473ffffffffffffffffffffffffffffffffffffffff1673ffffffffffffffffffffffffffffffffffffffff163373ffffffffffffffffffffffffffffffffffffffff16146108fe576040517f08c379a00000000000000000000000000000000000000000000000000000000081526004016108f590613a5e565b60405180910390fd5b60005b6003600083815260200190815260200160002080549050811015610a2d57600060036000848152602001908152602001600020828154811061096c577f4e487b7100000000000000000000000000000000000000000000000000000000600052603260045260246000fd5b906000526020600020906004020190508060020154600160008360010160009054906101000a900473ffffffffffffffffffffffffffffffffffffffff1673ffffffffffffffffffffffffffffffffffffffff1673ffffffffffffffffffffffffffffffffffffffff16815260200190815260200160002060008282546109f39190613c8e565b92505081905550600360008481526020019081526020016000206000610a199190612fe2565b508080610a2590613e0e565b915050610901565b507f551751f171fd2d638d77a5321747fbffc37bc708e7386a753a8c823e84192b2781604051610a5d9190613871565b60405180910390a150565b60065443118015610aaa575060065443610a829190613c8e565b6001600554600184610a949190613bad565b610a9e9190613c34565b610aa89190613c8e565b105b610ae9576040517f08c379a0000000000000000000000000000000000000000000000000000000008152600401610ae0906139de565b60405180910390fd5b82829050600460008381526020019081526020016000205414610b41576040517f08c379a0000000000000000000000000000000000000000000000000000000008152600401610b3890613a9e565b60405180910390fd5b60005b83839050811015610cee576000600260008481526020019081526020016000206000868685818110610b9f577f4e487b7100000000000000000000000000000000000000000000000000000000600052603260045260246000fd5b9050602002016020810190610bb49190613158565b73ffffffffffffffffffffffffffffffffffffffff1673ffffffffffffffffffffffffffffffffffffffff1681526020019081526020016000208054905011610c32576040517f08c379a0000000000000000000000000000000000000000000000000000000008152600401610c29906139be565b60405180910390fd5b600260008381526020019081526020016000206000858584818110610c80577f4e487b7100000000000000000000000000000000000000000000000000000000600052603260045260246000fd5b9050602002016020810190610c959190613158565b73ffffffffffffffffffffffffffffffffffffffff1673ffffffffffffffffffffffffffffffffffffffff1681526020019081526020016000206000610cdb9190612fe2565b8080610ce690613e0e565b915050610b44565b50600060046000838152602001908152602001600020819055507f3ce34dbb485a137c63892e885619c05579a67d2142677223383f3344045b1da58383905082604051610d3c929190613b14565b60405180910390a1505050565b60065481565b60008060008373ffffffffffffffffffffffffffffffffffffffff1673ffffffffffffffffffffffffffffffffffffffff168152602001908152602001600020549050919050565b6000600960009054906101000a900473ffffffffffffffffffffffffffffffffffffffff1673ffffffffffffffffffffffffffffffffffffffff163373ffffffffffffffffffffffffffffffffffffffff1614610e29576040517f08c379a0000000000000000000000000000000000000000000000000000000008152600401610e2090613a5e565b60405180910390fd5b600654431115610e845760065443610e419190613c8e565b831015610e83576040517f08c379a0000000000000000000000000000000000000000000000000000000008152600401610e7a90613a7e565b60405180910390fd5b5b43831115610ec7576040517f08c379a0000000000000000000000000000000000000000000000000000000008152600401610ebe906138fe565b60405180910390fd5b600060055484610ed79190613c03565b905060006002600083815260200190815260200160002060008973ffffffffffffffffffffffffffffffffffffffff1673ffffffffffffffffffffffffffffffffffffffff16815260200190815260200160002080549050905060008410158015610f4157508084105b610f80576040517f08c379a0000000000000000000000000000000000000000000000000000000008152600401610f7790613a1e565b60405180910390fd5b8673ffffffffffffffffffffffffffffffffffffffff166002600084815260200190815260200160002060008a73ffffffffffffffffffffffffffffffffffffffff1673ffffffffffffffffffffffffffffffffffffffff168152602001908152602001600020858154811061101f577f4e487b7100000000000000000000000000000000000000000000000000000000600052603260045260246000fd5b906000526020600020906004020160010160009054906101000a900473ffffffffffffffffffffffffffffffffffffffff1673ffffffffffffffffffffffffffffffffffffffff1614801561110c5750856002600084815260200190815260200160002060008a73ffffffffffffffffffffffffffffffffffffffff1673ffffffffffffffffffffffffffffffffffffffff16815260200190815260200160002085815481106110f8577f4e487b7100000000000000000000000000000000000000000000000000000000600052603260045260246000fd5b906000526020600020906004020160020154145b61114b576040517f08c379a00000000000000000000000000000000000000000000000000000000081526004016111429061399e565b60405180910390fd5b60006002600084815260200190815260200160002060008a73ffffffffffffffffffffffffffffffffffffffff1673ffffffffffffffffffffffffffffffffffffffff16815260200190815260200160002085815481106111d5577f4e487b7100000000000000000000000000000000000000000000000000000000600052603260045260246000fd5b90600052602060002090600402019050806040516020016111f69190613ade565b6040516020818303038152906040528051906020012093506112e3816040518060800160405290816000820160009054906101000a900473ffffffffffffffffffffffffffffffffffffffff1673ffffffffffffffffffffffffffffffffffffffff1673ffffffffffffffffffffffffffffffffffffffff1681526020016001820160009054906101000a900473ffffffffffffffffffffffffffffffffffffffff1673ffffffffffffffffffffffffffffffffffffffff1673ffffffffffffffffffffffffffffffffffffffff1681526020016002820154815260200160038201548152505085611fbd565b7fa3ab10ebc8699a3ce657eefeca53683f268623eb4481d6846d50ae63744b7deb89898989898960405161131c969594939291906137d3565b60405180910390a150505095945050505050565b6060600b805461133f90613da8565b80601f016020809104026020016040519081016040528092919081815260200182805461136b90613da8565b80156113b85780601f1061138d576101008083540402835291602001916113b8565b820191906000526020600020905b81548152906001019060200180831161139b57829003601f168201915b5050505050905090565b6000806113cd611671565b905060006113db82866115e4565b905083811015611420576040517f08c379a000000000000000000000000000000000000000000000000000000000815260040161141790613abe565b60405180910390fd5b61142d8286868403611679565b60019250505092915050565b600080611444611671565b90506114518185856118d0565b600191505092915050565b60606002600084815260200190815260200160002060008373ffffffffffffffffffffffffffffffffffffffff1673ffffffffffffffffffffffffffffffffffffffff168152602001908152602001600020805480602002602001604051908101604052809291908181526020016000905b828210156115c057838290600052602060002090600402016040518060800160405290816000820160009054906101000a900473ffffffffffffffffffffffffffffffffffffffff1673ffffffffffffffffffffffffffffffffffffffff1673ffffffffffffffffffffffffffffffffffffffff1681526020016001820160009054906101000a900473ffffffffffffffffffffffffffffffffffffffff1673ffffffffffffffffffffffffffffffffffffffff1673ffffffffffffffffffffffffffffffffffffffff16815260200160028201548152602001600382015481525050815260200190600101906114ce565b50505050905092915050565b60016020528060005260406000206000915090505481565b6000600760008473ffffffffffffffffffffffffffffffffffffffff1673ffffffffffffffffffffffffffffffffffffffff16815260200190815260200160002060008373ffffffffffffffffffffffffffffffffffffffff1673ffffffffffffffffffffffffffffffffffffffff16815260200190815260200160002054905092915050565b60055481565b600033905090565b600073ffffffffffffffffffffffffffffffffffffffff168373ffffffffffffffffffffffffffffffffffffffff1614156116e9576040517f08c379a00000000000000000000000000000000000000000000000000000000081526004016116e090613a3e565b60405180910390fd5b600073ffffffffffffffffffffffffffffffffffffffff168273ffffffffffffffffffffffffffffffffffffffff161415611759576040517f08c379a00000000000000000000000000000000000000000000000000000000081526004016117509061391e565b60405180910390fd5b80600760008573ffffffffffffffffffffffffffffffffffffffff1673ffffffffffffffffffffffffffffffffffffffff16815260200190815260200160002060008473ffffffffffffffffffffffffffffffffffffffff1673ffffffffffffffffffffffffffffffffffffffff168152602001908152602001600020819055508173ffffffffffffffffffffffffffffffffffffffff168373ffffffffffffffffffffffffffffffffffffffff167f8c5be1e5ebec7d5bd14f71427d1e84f3dd0314c0f7b2291e5b200ac8c7c3b925836040516118379190613af9565b60405180910390a3505050565b600061185084846115e4565b90507fffffffffffffffffffffffffffffffffffffffffffffffffffffffffffffffff81146118ca57818110156118bc576040517f08c379a00000000000000000000000000000000000000000000000000000000081526004016118b39061395e565b60405180910390fd5b6118c98484848403611679565b5b50505050565b600073ffffffffffffffffffffffffffffffffffffffff168373ffffffffffffffffffffffffffffffffffffffff161415611940576040517f08c379a0000000000000000000000000000000000000000000000000000000008152600401611937906139fe565b60405180910390fd5b600073ffffffffffffffffffffffffffffffffffffffff168273ffffffffffffffffffffffffffffffffffffffff1614156119b0576040517f08c379a00000000000000000000000000000000000000000000000000000000081526004016119a7906138de565b60405180910390fd5b6119bb8383836124d8565b60008060008573ffffffffffffffffffffffffffffffffffffffff1673ffffffffffffffffffffffffffffffffffffffff16815260200190815260200160002054905081811015611a41576040517f08c379a0000000000000000000000000000000000000000000000000000000008152600401611a389061397e565b60405180910390fd5b60008282611a4f9190613c8e565b9050600160008673ffffffffffffffffffffffffffffffffffffffff1673ffffffffffffffffffffffffffffffffffffffff16815260200190815260200160002054811015611ad3576040517f08c379a0000000000000000000000000000000000000000000000000000000008152600401611aca9061393e565b60405180910390fd5b8282036000808773ffffffffffffffffffffffffffffffffffffffff1673ffffffffffffffffffffffffffffffffffffffff16815260200190815260200160002081905550826000808673ffffffffffffffffffffffffffffffffffffffff1673ffffffffffffffffffffffffffffffffffffffff1681526020019081526020016000206000828254611b669190613bad565b92505081905550600060055443611b7d9190613c03565b905060006002600083815260200190815260200160002060008873ffffffffffffffffffffffffffffffffffffffff1673ffffffffffffffffffffffffffffffffffffffff168152602001908152602001600020805490501415611c07576001600460008381526020019081526020016000206000828254611bff9190613bad565b925050819055505b6002600082815260200190815260200160002060008773ffffffffffffffffffffffffffffffffffffffff1673ffffffffffffffffffffffffffffffffffffffff16815260200190815260200160002060405180608001604052808873ffffffffffffffffffffffffffffffffffffffff1681526020018773ffffffffffffffffffffffffffffffffffffffff16815260200186815260200143815250908060018154018082558091505060019003906000526020600020906004020160009091909190915060008201518160000160006101000a81548173ffffffffffffffffffffffffffffffffffffffff021916908373ffffffffffffffffffffffffffffffffffffffff16021790555060208201518160010160006101000a81548173ffffffffffffffffffffffffffffffffffffffff021916908373ffffffffffffffffffffffffffffffffffffffff160217905550604082015181600201556060820151816003015550508473ffffffffffffffffffffffffffffffffffffffff168673ffffffffffffffffffffffffffffffffffffffff167fddf252ad1be2c89b69c2b068fc378daa952ba7f163c4a11628f55a4df523b3ef86604051611dce9190613af9565b60405180910390a3611de18686866124dd565b505050505050565b611e7f81604051602401611dfd9190613af9565b6040516020818303038152906040527ff5b1bba9000000000000000000000000000000000000000000000000000000007bffffffffffffffffffffffffffffffffffffffffffffffffffffffff19166020820180517bffffffffffffffffffffffffffffffffffffffffffffffffffffffff83818316178352505050506124e2565b50565b611f1c838383604051602401611e9a9392919061379c565b6040516020818303038152906040527f6c366d72000000000000000000000000000000000000000000000000000000007bffffffffffffffffffffffffffffffffffffffffffffffffffffffff19166020820180517bffffffffffffffffffffffffffffffffffffffffffffffffffffffff83818316178352505050506124e2565b505050565b611fb98282604051602401611f379291906138ae565b6040516020818303038152906040527f9710a9d0000000000000000000000000000000000000000000000000000000007bffffffffffffffffffffffffffffffffffffffffffffffffffffffff19166020820180517bffffffffffffffffffffffffffffffffffffffffffffffffffffffff83818316178352505050506124e2565b5050565b600060016000846020015173ffffffffffffffffffffffffffffffffffffffff1673ffffffffffffffffffffffffffffffffffffffff16815260200190815260200160002054600080856020015173ffffffffffffffffffffffffffffffffffffffff1673ffffffffffffffffffffffffffffffffffffffff168152602001908152602001600020546120509190613c8e565b9050808360400151116121a157826040015160016000856020015173ffffffffffffffffffffffffffffffffffffffff1673ffffffffffffffffffffffffffffffffffffffff16815260200190815260200160002060008282546120b49190613bad565b925050819055506003600083815260200190815260200160002083908060018154018082558091505060019003906000526020600020906004020160009091909190915060008201518160000160006101000a81548173ffffffffffffffffffffffffffffffffffffffff021916908373ffffffffffffffffffffffffffffffffffffffff16021790555060208201518160010160006101000a81548173ffffffffffffffffffffffffffffffffffffffff021916908373ffffffffffffffffffffffffffffffffffffffff160217905550604082015181600201556060820151816003015550506124d3565b8060016000856020015173ffffffffffffffffffffffffffffffffffffffff1673ffffffffffffffffffffffffffffffffffffffff16815260200190815260200160002060008282546121f49190613bad565b92505081905550600360008381526020019081526020016000206040518060800160405280856000015173ffffffffffffffffffffffffffffffffffffffff168152602001856020015173ffffffffffffffffffffffffffffffffffffffff1681526020018381526020018560600151815250908060018154018082558091505060019003906000526020600020906004020160009091909190915060008201518160000160006101000a81548173ffffffffffffffffffffffffffffffffffffffff021916908373ffffffffffffffffffffffffffffffffffffffff16021790555060208201518160010160006101000a81548173ffffffffffffffffffffffffffffffffffffffff021916908373ffffffffffffffffffffffffffffffffffffffff160217905550604082015181600201556060820151816003015550506000806123558560200151600187606001516123509190613bad565b61250b565b91509150600083866040015161236b9190613c8e565b905060005b83518110156124ce5760006040518060800160405280896000015173ffffffffffffffffffffffffffffffffffffffff1681526020018684815181106123df577f4e487b7100000000000000000000000000000000000000000000000000000000600052603260045260246000fd5b60200260200101516020015173ffffffffffffffffffffffffffffffffffffffff16815260200185878581518110612440577f4e487b7100000000000000000000000000000000000000000000000000000000600052603260045260246000fd5b602002602001015160400151866124579190613c34565b6124619190613c03565b815260200186848151811061249f577f4e487b7100000000000000000000000000000000000000000000000000000000600052603260045260246000fd5b60200260200101516060015181525090506124ba8188611fbd565b5080806124c690613e0e565b915050612370565b505050505b505050565b505050565b505050565b60008151905060006a636f6e736f6c652e6c6f679050602083016000808483855afa5050505050565b60606000806005548461251e9190613c03565b905060006002600083815260200190815260200160002060008773ffffffffffffffffffffffffffffffffffffffff1673ffffffffffffffffffffffffffffffffffffffff168152602001908152602001600020805490509050600061258883886000858a612cf6565b9050600080945060006005544361259f9190613c03565b90507fffffffffffffffffffffffffffffffffffffffffffffffffffffffffffffffff83146125e25782846125d49190613c8e565b826125df9190613bad565b91505b60006001866125f19190613bad565b90505b81811015612670576002600082815260200190815260200160002060008b73ffffffffffffffffffffffffffffffffffffffff1673ffffffffffffffffffffffffffffffffffffffff168152602001908152602001600020805490508361265b9190613bad565b9250808061266890613e0e565b9150506125f4565b508167ffffffffffffffff8111156126b1577f4e487b7100000000000000000000000000000000000000000000000000000000600052604160045260246000fd5b6040519080825280602002602001820160405280156126ea57816020015b6126d7613006565b8152602001906001900390816126cf5790505b50965060007fffffffffffffffffffffffffffffffffffffffffffffffffffffffffffffffff84146129ef575b848410156129ee5760006002600088815260200190815260200160002060008c73ffffffffffffffffffffffffffffffffffffffff1673ffffffffffffffffffffffffffffffffffffffff16815260200190815260200160002085815481106127a9577f4e487b7100000000000000000000000000000000000000000000000000000000600052603260045260246000fd5b90600052602060002090600402016040518060800160405290816000820160009054906101000a900473ffffffffffffffffffffffffffffffffffffffff1673ffffffffffffffffffffffffffffffffffffffff1673ffffffffffffffffffffffffffffffffffffffff1681526020016001820160009054906101000a900473ffffffffffffffffffffffffffffffffffffffff1673ffffffffffffffffffffffffffffffffffffffff1673ffffffffffffffffffffffffffffffffffffffff1681526020016002820154815260200160038201548152505090506040518060800160405280826000015173ffffffffffffffffffffffffffffffffffffffff168152602001826020015173ffffffffffffffffffffffffffffffffffffffff16815260200182604001518152602001826060015181525089838151811061291a577f4e487b7100000000000000000000000000000000000000000000000000000000600052603260045260246000fd5b60200260200101819052506002600088815260200190815260200160002060008c73ffffffffffffffffffffffffffffffffffffffff1673ffffffffffffffffffffffffffffffffffffffff16815260200190815260200160002085815481106129ad577f4e487b7100000000000000000000000000000000000000000000000000000000600052603260045260246000fd5b906000526020600020906004020160020154886129ca9190613bad565b975081806129d790613e0e565b9250505083806129e690613e0e565b945050612717565b5b60006001876129fe9190613bad565b90505b82811015612ce85760005b6002600083815260200190815260200160002060008d73ffffffffffffffffffffffffffffffffffffffff1673ffffffffffffffffffffffffffffffffffffffff16815260200190815260200160002080549050811015612cc6576002600083815260200190815260200160002060008d73ffffffffffffffffffffffffffffffffffffffff1673ffffffffffffffffffffffffffffffffffffffff1681526020019081526020016000208181548110612aef577f4e487b7100000000000000000000000000000000000000000000000000000000600052603260045260246000fd5b90600052602060002090600402016040518060800160405290816000820160009054906101000a900473ffffffffffffffffffffffffffffffffffffffff1673ffffffffffffffffffffffffffffffffffffffff1673ffffffffffffffffffffffffffffffffffffffff1681526020016001820160009054906101000a900473ffffffffffffffffffffffffffffffffffffffff1673ffffffffffffffffffffffffffffffffffffffff1673ffffffffffffffffffffffffffffffffffffffff168152602001600282015481526020016003820154815250508a8481518110612c01577f4e487b7100000000000000000000000000000000000000000000000000000000600052603260045260246000fd5b60200260200101819052506002600083815260200190815260200160002060008d73ffffffffffffffffffffffffffffffffffffffff1673ffffffffffffffffffffffffffffffffffffffff1681526020019081526020016000208181548110612c94577f4e487b7100000000000000000000000000000000000000000000000000000000600052603260045260246000fd5b90600052602060002090600402016002015489612cb19190613bad565b98508080612cbe90613e0e565b915050612a0c565b508180612cd290613e0e565b9250508080612ce090613e0e565b915050612a01565b505050505050509250929050565b6000808484612d059190613c8e565b90506000811480612dba5750600181148015612db95750826002600089815260200190815260200160002060008873ffffffffffffffffffffffffffffffffffffffff1673ffffffffffffffffffffffffffffffffffffffff1681526020019081526020016000208681548110612da5577f4e487b7100000000000000000000000000000000000000000000000000000000600052603260045260246000fd5b906000526020600020906004020160030154105b5b15612de8577fffffffffffffffffffffffffffffffffffffffffffffffffffffffffffffffff915050612fd9565b6000600282612df79190613c03565b86612e029190613bad565b90506000600260008a815260200190815260200160002060008973ffffffffffffffffffffffffffffffffffffffff1673ffffffffffffffffffffffffffffffffffffffff1681526020019081526020016000208281548110612e8e577f4e487b7100000000000000000000000000000000000000000000000000000000600052603260045260246000fd5b906000526020600020906004020160030154905080851015612ec157612eb78989898589612cf6565b9350505050612fd9565b80851115612eec57612ee28989600185612edb9190613bad565b8989612cf6565b9350505050612fd9565b5b600082118015612f0a57506000600183612f079190613c8e565b10155b8015612fba575084600260008b815260200190815260200160002060008a73ffffffffffffffffffffffffffffffffffffffff1673ffffffffffffffffffffffffffffffffffffffff168152602001908152602001600020600184612f6f9190613c8e565b81548110612fa6577f4e487b7100000000000000000000000000000000000000000000000000000000600052603260045260246000fd5b906000526020600020906004020160030154115b15612fd2578180612fca90613d7e565b925050612eed565b8193505050505b95945050505050565b5080546000825560040290600052602060002090810190613003919061305a565b50565b6040518060800160405280600073ffffffffffffffffffffffffffffffffffffffff168152602001600073ffffffffffffffffffffffffffffffffffffffff16815260200160008152602001600081525090565b5b808211156130cb57600080820160006101000a81549073ffffffffffffffffffffffffffffffffffffffff02191690556001820160006101000a81549073ffffffffffffffffffffffffffffffffffffffff0219169055600282016000905560038201600090555060040161305b565b5090565b6000813590506130de816143cc565b92915050565b60008083601f8401126130f657600080fd5b8235905067ffffffffffffffff81111561310f57600080fd5b60208301915083602082028301111561312757600080fd5b9250929050565b60008135905061313d816143e3565b92915050565b600081359050613152816143fa565b92915050565b60006020828403121561316a57600080fd5b6000613178848285016130cf565b91505092915050565b6000806040838503121561319457600080fd5b60006131a2858286016130cf565b92505060206131b3858286016130cf565b9150509250929050565b6000806000606084860312156131d257600080fd5b60006131e0868287016130cf565b93505060206131f1868287016130cf565b925050604061320286828701613143565b9150509250925092565b600080600080600060a0868803121561322457600080fd5b6000613232888289016130cf565b9550506020613243888289016130cf565b945050604061325488828901613143565b935050606061326588828901613143565b925050608061327688828901613143565b9150509295509295909350565b6000806040838503121561329657600080fd5b60006132a4858286016130cf565b92505060206132b585828601613143565b9150509250929050565b6000806000604084860312156132d457600080fd5b600084013567ffffffffffffffff8111156132ee57600080fd5b6132fa868287016130e4565b9350935050602061330d86828701613143565b9150509250925092565b60006020828403121561332957600080fd5b60006133378482850161312e565b91505092915050565b6000806040838503121561335357600080fd5b600061336185828601613143565b9250506020613372858286016130cf565b9150509250929050565b60006133888383613697565b60808301905092915050565b61339d81613cec565b82525050565b6133ac81613cec565b82525050565b60006133bd82613b68565b6133c78185613b8b565b93506133d283613b58565b8060005b838110156134035781516133ea888261337c565b97506133f583613b7e565b9250506001810190506133d6565b5085935050505092915050565b61341981613cfe565b82525050565b61342881613d0a565b82525050565b600061343982613b73565b6134438185613b9c565b9350613453818560208601613d4b565b61345c81613ee4565b840191505092915050565b6000613474602383613b9c565b915061347f82613f02565b604082019050919050565b6000613497605483613b9c565b91506134a282613f51565b606082019050919050565b60006134ba602283613b9c565b91506134c582613fc6565b604082019050919050565b60006134dd602d83613b9c565b91506134e882614015565b604082019050919050565b6000613500601d83613b9c565b915061350b82614064565b602082019050919050565b6000613523602683613b9c565b915061352e8261408d565b604082019050919050565b6000613546602d83613b9c565b9150613551826140dc565b604082019050919050565b6000613569605283613b9c565b91506135748261412b565b606082019050919050565b600061358c603683613b9c565b9150613597826141a0565b604082019050919050565b60006135af602583613b9c565b91506135ba826141ef565b604082019050919050565b60006135d2601f83613b9c565b91506135dd8261423e565b602082019050919050565b60006135f5602483613b9c565b915061360082614267565b604082019050919050565b6000613618601b83613b9c565b9150613623826142b6565b602082019050919050565b600061363b603683613b9c565b9150613646826142df565b604082019050919050565b600061365e603983613b9c565b91506136698261432e565b604082019050919050565b6000613681602583613b9c565b915061368c8261437d565b604082019050919050565b6080820160008201516136ad6000850182613394565b5060208201516136c06020850182613394565b5060408201516136d3604085018261376f565b5060608201516136e6606085018261376f565b50505050565b60808201600080830154905061370181613dda565b61370e6000860182613394565b506001830154905061371f81613dda565b61372c6020860182613394565b506002830154905061373d81613df4565b61374a604086018261376f565b506003830154905061375b81613df4565b613768606086018261376f565b5050505050565b61377881613d34565b82525050565b61378781613d34565b82525050565b61379681613d3e565b82525050565b60006060820190506137b160008301866133a3565b6137be60208301856133a3565b6137cb604083018461377e565b949350505050565b600060c0820190506137e860008301896133a3565b6137f560208301886133a3565b613802604083018761377e565b61380f606083018661377e565b61381c608083018561377e565b61382960a083018461341f565b979650505050505050565b6000602082019050818103600083015261384e81846133b2565b905092915050565b600060208201905061386b6000830184613410565b92915050565b6000602082019050613886600083018461341f565b92915050565b600060208201905081810360008301526138a6818461342e565b905092915050565b600060408201905081810360008301526138c8818561342e565b90506138d7602083018461377e565b9392505050565b600060208201905081810360008301526138f781613467565b9050919050565b600060208201905081810360008301526139178161348a565b9050919050565b60006020820190508181036000830152613937816134ad565b9050919050565b60006020820190508181036000830152613957816134d0565b9050919050565b60006020820190508181036000830152613977816134f3565b9050919050565b6000602082019050818103600083015261399781613516565b9050919050565b600060208201905081810360008301526139b781613539565b9050919050565b600060208201905081810360008301526139d78161355c565b9050919050565b600060208201905081810360008301526139f78161357f565b9050919050565b60006020820190508181036000830152613a17816135a2565b9050919050565b60006020820190508181036000830152613a37816135c5565b9050919050565b60006020820190508181036000830152613a57816135e8565b9050919050565b60006020820190508181036000830152613a778161360b565b9050919050565b60006020820190508181036000830152613a978161362e565b9050919050565b60006020820190508181036000830152613ab781613651565b9050919050565b60006020820190508181036000830152613ad781613674565b9050919050565b6000608082019050613af360008301846136ec565b92915050565b6000602082019050613b0e600083018461377e565b92915050565b6000604082019050613b29600083018561377e565b613b36602083018461377e565b9392505050565b6000602082019050613b52600083018461378d565b92915050565b6000819050602082019050919050565b600081519050919050565b600081519050919050565b6000602082019050919050565b600082825260208201905092915050565b600082825260208201905092915050565b6000613bb882613d34565b9150613bc383613d34565b9250827fffffffffffffffffffffffffffffffffffffffffffffffffffffffffffffffff03821115613bf857613bf7613e57565b5b828201905092915050565b6000613c0e82613d34565b9150613c1983613d34565b925082613c2957613c28613e86565b5b828204905092915050565b6000613c3f82613d34565b9150613c4a83613d34565b9250817fffffffffffffffffffffffffffffffffffffffffffffffffffffffffffffffff0483118215151615613c8357613c82613e57565b5b828202905092915050565b6000613c9982613d34565b9150613ca483613d34565b925082821015613cb757613cb6613e57565b5b828203905092915050565b600073ffffffffffffffffffffffffffffffffffffffff82169050919050565b6000819050919050565b6000613cf782613d14565b9050919050565b60008115159050919050565b6000819050919050565b600073ffffffffffffffffffffffffffffffffffffffff82169050919050565b6000819050919050565b600060ff82169050919050565b60005b83811015613d69578082015181840152602081019050613d4e565b83811115613d78576000848401525b50505050565b6000613d8982613d34565b91506000821415613d9d57613d9c613e57565b5b600182039050919050565b60006002820490506001821680613dc057607f821691505b60208210811415613dd457613dd3613eb5565b5b50919050565b6000613ded613de883613ef5565b613cc2565b9050919050565b6000613e07613e0283613ef5565b613ce2565b9050919050565b6000613e1982613d34565b91507fffffffffffffffffffffffffffffffffffffffffffffffffffffffffffffffff821415613e4c57613e4b613e57565b5b600182019050919050565b7f4e487b7100000000000000000000000000000000000000000000000000000000600052601160045260246000fd5b7f4e487b7100000000000000000000000000000000000000000000000000000000600052601260045260246000fd5b7f4e487b7100000000000000000000000000000000000000000000000000000000600052602260045260246000fd5b6000601f19601f8301169050919050565b60008160001c9050919050565b7f45524332303a207472616e7366657220746f20746865207a65726f206164647260008201527f6573730000000000000000000000000000000000000000000000000000000000602082015250565b7f4552433230523a20737065636966696564207472616e73616374696f6e20626c60008201527f6f636b206e756d6265722069732067726561746572207468616e20746865206360208201527f757272656e7420626c6f636b206e756d6265722e000000000000000000000000604082015250565b7f45524332303a20617070726f766520746f20746865207a65726f20616464726560008201527f7373000000000000000000000000000000000000000000000000000000000000602082015250565b7f4552433230523a2043616e6e6f74207370656e642066726f7a656e206d6f6e6560008201527f7920696e206163636f756e742e00000000000000000000000000000000000000602082015250565b7f45524332303a20696e73756666696369656e7420616c6c6f77616e6365000000600082015250565b7f45524332303a207472616e7366657220616d6f756e742065786365656473206260008201527f616c616e63650000000000000000000000000000000000000000000000000000602082015250565b7f4552433230523a20696e64657820676976656e20646f6573206e6f74206d617460008201527f6368207370656e64697475726500000000000000000000000000000000000000602082015250565b7f4552433230523a2061646472657373657320746f20636c65616e20666f72206260008201527f6c6f636b2045706f636820646f6573206e6f74206d617463682074686520616360208201527f7475616c20646174612073746f726167652e0000000000000000000000000000604082015250565b7f45524332302d523a20426c6f636b2045706f6368206973206e6f7420616c6c6f60008201527f77656420746f20626520636c6561726564207965742e00000000000000000000602082015250565b7f45524332303a207472616e736665722066726f6d20746865207a65726f20616460008201527f6472657373000000000000000000000000000000000000000000000000000000602082015250565b7f4552433230523a20496e76616c696420696e6465782070726f76696465642e00600082015250565b7f45524332303a20617070726f76652066726f6d20746865207a65726f2061646460008201527f7265737300000000000000000000000000000000000000000000000000000000602082015250565b7f455243373231523a20556e617574686f72697a65642063616c6c2e0000000000600082015250565b7f4552433230523a20737065636966696564207472616e73616374696f6e20697360008201527f206e6f206c6f6e6765722072657665727369626c652e00000000000000000000602082015250565b7f4552433230523a204d75737420636c6561722074686520656e7469726520626c60008201527f6f636b2045706f636827732064617461206174206f6e63652e00000000000000602082015250565b7f45524332303a2064656372656173656420616c6c6f77616e63652062656c6f7760008201527f207a65726f000000000000000000000000000000000000000000000000000000602082015250565b6143d581613cec565b81146143e057600080fd5b50565b6143ec81613d0a565b81146143f757600080fd5b50565b61440381613d34565b811461440e57600080fd5b5056fea2646970667358221220262a57042ceb3937d815dd6d4595f731f6868f0acb5674f8ea84bca6083077b364736f6c63430008010033",
  "linkReferences": {},
  "deployedLinkReferences": {}
}