{
  "_format": "hh-sol-artifact-1",
  "contractName": "ExampleERC20R",
  "sourceName": "contracts/exampleERC20R.sol",
  "abi": [
    {
      "inputs": [
        {
          "internalType": "uint256",
          "name": "totalSupply_",
          "type": "uint256"
        },
        {
          "internalType": "uint256",
          "name": "numReversibleBlocks",
          "type": "uint256"
        },
        {
          "internalType": "address",
          "name": "governanceContract",
          "type": "address"
        }
      ],
      "stateMutability": "nonpayable",
      "type": "constructor"
    },
    {
      "anonymous": false,
      "inputs": [
        {
          "indexed": true,
          "internalType": "address",
          "name": "owner",
          "type": "address"
        },
        {
          "indexed": true,
          "internalType": "address",
          "name": "spender",
          "type": "address"
        },
        {
          "indexed": false,
          "internalType": "uint256",
          "name": "value",
          "type": "uint256"
        }
      ],
      "name": "Approval",
      "type": "event"
    },
    {
      "anonymous": false,
      "inputs": [
        {
          "indexed": false,
          "internalType": "uint256",
          "name": "length",
          "type": "uint256"
        },
        {
          "indexed": false,
          "internalType": "uint256",
          "name": "blockNum",
          "type": "uint256"
        }
      ],
      "name": "ClearedDataInTimeblock",
      "type": "event"
    },
    {
      "anonymous": false,
      "inputs": [
        {
          "indexed": false,
          "internalType": "address",
          "name": "from",
          "type": "address"
        },
        {
          "indexed": false,
          "internalType": "address",
          "name": "to",
          "type": "address"
        },
        {
          "indexed": false,
          "internalType": "uint256",
          "name": "amount",
          "type": "uint256"
        },
        {
          "indexed": false,
          "internalType": "uint256",
          "name": "blockNumber",
          "type": "uint256"
        },
        {
          "indexed": false,
          "internalType": "uint256",
          "name": "index",
          "type": "uint256"
        },
        {
          "indexed": false,
          "internalType": "bytes32",
          "name": "claimID",
          "type": "bytes32"
        }
      ],
      "name": "FreezeSuccessful",
      "type": "event"
    },
    {
      "anonymous": false,
      "inputs": [
        {
          "indexed": false,
          "internalType": "bytes32",
          "name": "claimID",
          "type": "bytes32"
        }
      ],
      "name": "ReverseRejected",
      "type": "event"
    },
    {
      "anonymous": false,
      "inputs": [
        {
          "indexed": false,
          "internalType": "bytes32",
          "name": "claimID",
          "type": "bytes32"
        }
      ],
      "name": "ReverseSuccessful",
      "type": "event"
    },
    {
      "anonymous": false,
      "inputs": [
        {
          "indexed": true,
          "internalType": "address",
          "name": "from",
          "type": "address"
        },
        {
          "indexed": true,
          "internalType": "address",
          "name": "to",
          "type": "address"
        },
        {
          "indexed": false,
          "internalType": "uint256",
          "name": "value",
          "type": "uint256"
        }
      ],
      "name": "Transfer",
      "type": "event"
    },
    {
      "inputs": [],
      "name": "DELTA",
      "outputs": [
        {
          "internalType": "uint256",
          "name": "",
          "type": "uint256"
        }
      ],
      "stateMutability": "view",
      "type": "function"
    },
    {
      "inputs": [],
      "name": "NUM_REVERSIBLE_BLOCKS",
      "outputs": [
        {
          "internalType": "uint256",
          "name": "",
          "type": "uint256"
        }
      ],
      "stateMutability": "view",
      "type": "function"
    },
    {
      "inputs": [
        {
          "internalType": "address",
          "name": "owner",
          "type": "address"
        },
        {
          "internalType": "address",
          "name": "spender",
          "type": "address"
        }
      ],
      "name": "allowance",
      "outputs": [
        {
          "internalType": "uint256",
          "name": "",
          "type": "uint256"
        }
      ],
      "stateMutability": "view",
      "type": "function"
    },
    {
      "inputs": [
        {
          "internalType": "address",
          "name": "spender",
          "type": "address"
        },
        {
          "internalType": "uint256",
          "name": "amount",
          "type": "uint256"
        }
      ],
      "name": "approve",
      "outputs": [
        {
          "internalType": "bool",
          "name": "",
          "type": "bool"
        }
      ],
      "stateMutability": "nonpayable",
      "type": "function"
    },
    {
      "inputs": [
        {
          "internalType": "address",
          "name": "account",
          "type": "address"
        }
      ],
      "name": "balanceOf",
      "outputs": [
        {
          "internalType": "uint256",
          "name": "",
          "type": "uint256"
        }
      ],
      "stateMutability": "view",
      "type": "function"
    },
    {
      "inputs": [
        {
          "internalType": "address[]",
          "name": "addresses",
          "type": "address[]"
        },
        {
          "internalType": "uint256",
          "name": "epoch",
          "type": "uint256"
        }
      ],
      "name": "clean",
      "outputs": [],
      "stateMutability": "nonpayable",
      "type": "function"
    },
    {
      "inputs": [],
      "name": "decimals",
      "outputs": [
        {
          "internalType": "uint8",
          "name": "",
          "type": "uint8"
        }
      ],
      "stateMutability": "view",
      "type": "function"
    },
    {
      "inputs": [
        {
          "internalType": "address",
          "name": "spender",
          "type": "address"
        },
        {
          "internalType": "uint256",
          "name": "subtractedValue",
          "type": "uint256"
        }
      ],
      "name": "decreaseAllowance",
      "outputs": [
        {
          "internalType": "bool",
          "name": "",
          "type": "bool"
        }
      ],
      "stateMutability": "nonpayable",
      "type": "function"
    },
    {
      "inputs": [
        {
          "internalType": "address",
          "name": "from",
          "type": "address"
        },
        {
          "internalType": "address",
          "name": "to",
          "type": "address"
        },
        {
          "internalType": "uint256",
          "name": "amount",
          "type": "uint256"
        },
        {
          "internalType": "uint256",
          "name": "blockNumber",
          "type": "uint256"
        },
        {
          "internalType": "uint256",
          "name": "index",
          "type": "uint256"
        }
      ],
      "name": "freeze",
      "outputs": [
        {
          "internalType": "bytes32",
          "name": "claimID",
          "type": "bytes32"
        }
      ],
      "stateMutability": "nonpayable",
      "type": "function"
    },
    {
      "inputs": [
        {
          "internalType": "address",
          "name": "",
          "type": "address"
        }
      ],
      "name": "frozen",
      "outputs": [
        {
          "internalType": "uint256",
          "name": "",
          "type": "uint256"
        }
      ],
      "stateMutability": "view",
      "type": "function"
    },
    {
      "inputs": [
        {
          "internalType": "uint256",
          "name": "epoch",
          "type": "uint256"
        },
        {
          "internalType": "address",
          "name": "from",
          "type": "address"
        }
      ],
      "name": "getSpenditures",
      "outputs": [
        {
          "components": [
            {
              "internalType": "address",
              "name": "from",
              "type": "address"
            },
            {
              "internalType": "address",
              "name": "to",
              "type": "address"
            },
            {
              "internalType": "uint256",
              "name": "amount",
              "type": "uint256"
            },
            {
              "internalType": "uint256",
              "name": "block_number",
              "type": "uint256"
            }
          ],
          "internalType": "struct ERC20R.Spenditure[]",
          "name": "",
          "type": "tuple[]"
        }
      ],
      "stateMutability": "view",
      "type": "function"
    },
    {
      "inputs": [
        {
          "internalType": "address",
          "name": "spender",
          "type": "address"
        },
        {
          "internalType": "uint256",
          "name": "addedValue",
          "type": "uint256"
        }
      ],
      "name": "increaseAllowance",
      "outputs": [
        {
          "internalType": "bool",
          "name": "",
          "type": "bool"
        }
      ],
      "stateMutability": "nonpayable",
      "type": "function"
    },
    {
      "inputs": [],
      "name": "name",
      "outputs": [
        {
          "internalType": "string",
          "name": "",
          "type": "string"
        }
      ],
      "stateMutability": "view",
      "type": "function"
    },
    {
      "inputs": [
        {
          "internalType": "bytes32",
          "name": "claimID",
          "type": "bytes32"
        }
      ],
      "name": "rejectReverse",
      "outputs": [],
      "stateMutability": "nonpayable",
      "type": "function"
    },
    {
      "inputs": [
        {
          "internalType": "bytes32",
          "name": "claimID",
          "type": "bytes32"
        }
      ],
      "name": "reverse",
      "outputs": [],
      "stateMutability": "nonpayable",
      "type": "function"
    },
    {
      "inputs": [],
      "name": "symbol",
      "outputs": [
        {
          "internalType": "string",
          "name": "",
          "type": "string"
        }
      ],
      "stateMutability": "view",
      "type": "function"
    },
    {
      "inputs": [],
      "name": "totalSupply",
      "outputs": [
        {
          "internalType": "uint256",
          "name": "",
          "type": "uint256"
        }
      ],
      "stateMutability": "view",
      "type": "function"
    },
    {
      "inputs": [
        {
          "internalType": "address",
          "name": "to",
          "type": "address"
        },
        {
          "internalType": "uint256",
          "name": "amount",
          "type": "uint256"
        }
      ],
      "name": "transfer",
      "outputs": [
        {
          "internalType": "bool",
          "name": "",
          "type": "bool"
        }
      ],
      "stateMutability": "nonpayable",
      "type": "function"
    },
    {
      "inputs": [
        {
          "internalType": "address",
          "name": "from",
          "type": "address"
        },
        {
          "internalType": "address",
          "name": "to",
          "type": "address"
        },
        {
          "internalType": "uint256",
          "name": "amount",
          "type": "uint256"
        }
      ],
      "name": "transferFrom",
      "outputs": [
        {
          "internalType": "bool",
          "name": "",
          "type": "bool"
        }
      ],
      "stateMutability": "nonpayable",
      "type": "function"
    }
  ],
  "bytecode": "0x608060405260646005553480156200001657600080fd5b50604051620047603803806200476083398181016040528101906200003c9190620003a4565b6040518060400160405280600481526020017f54657374000000000000000000000000000000000000000000000000000000008152506040518060400160405280600481526020017f5354414e00000000000000000000000000000000000000000000000000000000815250838383600a9080519060200190620000c2929190620002c6565b5082600b9080519060200190620000db929190620002c6565b508160068190555080600960006101000a81548173ffffffffffffffffffffffffffffffffffffffff021916908373ffffffffffffffffffffffffffffffffffffffff160217905550505050506200013a33846200014360201b60201c565b5050506200060e565b600073ffffffffffffffffffffffffffffffffffffffff168273ffffffffffffffffffffffffffffffffffffffff161415620001b6576040517f08c379a0000000000000000000000000000000000000000000000000000000008152600401620001ad9062000432565b60405180910390fd5b620001ca60008383620002bc60201b60201c565b8060086000828254620001de919062000482565b92505081905550806000808473ffffffffffffffffffffffffffffffffffffffff1673ffffffffffffffffffffffffffffffffffffffff168152602001908152602001600020600082825462000235919062000482565b925050819055508173ffffffffffffffffffffffffffffffffffffffff16600073ffffffffffffffffffffffffffffffffffffffff167fddf252ad1be2c89b69c2b068fc378daa952ba7f163c4a11628f55a4df523b3ef836040516200029c919062000454565b60405180910390a3620002b860008383620002c160201b60201c565b5050565b505050565b505050565b828054620002d4906200051d565b90600052602060002090601f016020900481019282620002f8576000855562000344565b82601f106200031357805160ff191683800117855562000344565b8280016001018555821562000344579182015b828111156200034357825182559160200191906001019062000326565b5b50905062000353919062000357565b5090565b5b808211156200037257600081600090555060010162000358565b5090565b6000815190506200038781620005da565b92915050565b6000815190506200039e81620005f4565b92915050565b600080600060608486031215620003ba57600080fd5b6000620003ca868287016200038d565b9350506020620003dd868287016200038d565b9250506040620003f08682870162000376565b9150509250925092565b600062000409601f8362000471565b91506200041682620005b1565b602082019050919050565b6200042c8162000513565b82525050565b600060208201905081810360008301526200044d81620003fa565b9050919050565b60006020820190506200046b600083018462000421565b92915050565b600082825260208201905092915050565b60006200048f8262000513565b91506200049c8362000513565b9250827fffffffffffffffffffffffffffffffffffffffffffffffffffffffffffffffff03821115620004d457620004d362000553565b5b828201905092915050565b6000620004ec82620004f3565b9050919050565b600073ffffffffffffffffffffffffffffffffffffffff82169050919050565b6000819050919050565b600060028204905060018216806200053657607f821691505b602082108114156200054d576200054c62000582565b5b50919050565b7f4e487b7100000000000000000000000000000000000000000000000000000000600052601160045260246000fd5b7f4e487b7100000000000000000000000000000000000000000000000000000000600052602260045260246000fd5b7f45524332303a206d696e7420746f20746865207a65726f206164647265737300600082015250565b620005e581620004df565b8114620005f157600080fd5b50565b620005ff8162000513565b81146200060b57600080fd5b50565b614142806200061e6000396000f3fe608060405234801561001057600080fd5b50600436106101215760003560e01c806360927b21116100ad578063a9059cbb11610071578063a9059cbb14610330578063bbe06c3714610360578063d051665014610390578063dd62ed3e146103c0578063ecb5fff6146103f057610121565b806360927b211461026457806370a082311461028257806387a3b25b146102b257806395d89b41146102e2578063a457c2d71461030057610121565b8063313ce567116100f4578063313ce567146101c257806337b34974146101e057806339509351146101fc57806341c4ee281461022c57806359a37e991461024857610121565b806306fdde0314610126578063095ea7b31461014457806318160ddd1461017457806323b872dd14610192575b600080fd5b61012e61040e565b60405161013b91906135b7565b60405180910390f35b61015e60048036038101906101599190612fe5565b6104a0565b60405161016b9190613581565b60405180910390f35b61017c6104c3565b60405161018991906137f4565b60405180910390f35b6101ac60048036038101906101a79190612f1f565b6104cd565b6040516101b99190613581565b60405180910390f35b6101ca6104fc565b6040516101d79190613838565b60405180910390f35b6101fa60048036038101906101f59190613079565b610505565b005b61021660048036038101906102119190612fe5565b610756565b6040516102239190613581565b60405180910390f35b61024660048036038101906102419190613079565b61078d565b005b610262600480360381019061025d9190613021565b610987565b005b61026c610c68565b60405161027991906137f4565b60405180910390f35b61029c60048036038101906102979190612eba565b610c6e565b6040516102a991906137f4565b60405180910390f35b6102cc60048036038101906102c79190612f6e565b610cb6565b6040516102d9919061359c565b60405180910390f35b6102ea61124f565b6040516102f791906135b7565b60405180910390f35b61031a60048036038101906103159190612fe5565b6112e1565b6040516103279190613581565b60405180910390f35b61034a60048036038101906103459190612fe5565b611358565b6040516103579190613581565b60405180910390f35b61037a600480360381019061037591906130a2565b61137b565b604051610387919061355f565b60405180910390f35b6103aa60048036038101906103a59190612eba565b6114eb565b6040516103b791906137f4565b60405180910390f35b6103da60048036038101906103d59190612ee3565b611503565b6040516103e791906137f4565b60405180910390f35b6103f861158a565b60405161040591906137f4565b60405180910390f35b6060600a805461041d90613aa3565b80601f016020809104026020016040519081016040528092919081815260200182805461044990613aa3565b80156104965780601f1061046b57610100808354040283529160200191610496565b820191906000526020600020905b81548152906001019060200180831161047957829003601f168201915b5050505050905090565b6000806104ab611590565b90506104b8818585611598565b600191505092915050565b6000600854905090565b6000806104d8611590565b90506104e5858285611763565b6104f08585856117ef565b60019150509392505050565b60006012905090565b600960009054906101000a900473ffffffffffffffffffffffffffffffffffffffff1673ffffffffffffffffffffffffffffffffffffffff163373ffffffffffffffffffffffffffffffffffffffff1614610595576040517f08c379a000000000000000000000000000000000000000000000000000000000815260040161058c90613759565b60405180910390fd5b60005b600360008381526020019081526020016000208054905081101561071b576000600360008481526020019081526020016000208281548110610603577f4e487b7100000000000000000000000000000000000000000000000000000000600052603260045260246000fd5b906000526020600020906004020190508060020154600160008360010160009054906101000a900473ffffffffffffffffffffffffffffffffffffffff1673ffffffffffffffffffffffffffffffffffffffff1673ffffffffffffffffffffffffffffffffffffffff168152602001908152602001600020600082825461068a9190613989565b925050819055506106e88160010160009054906101000a900473ffffffffffffffffffffffffffffffffffffffff168260000160009054906101000a900473ffffffffffffffffffffffffffffffffffffffff1683600201546117ef565b6003600084815260200190815260200160002060006107079190612d44565b50808061071390613b09565b915050610598565b507fc3a0e8130148823fcfd1380b4d489a6c12a064caec2e9cf7d1ba333cfd8c5aea8160405161074b919061359c565b60405180910390a150565b600080610761611590565b90506107828185856107738589611503565b61077d91906138a8565b611598565b600191505092915050565b600960009054906101000a900473ffffffffffffffffffffffffffffffffffffffff1673ffffffffffffffffffffffffffffffffffffffff163373ffffffffffffffffffffffffffffffffffffffff161461081d576040517f08c379a000000000000000000000000000000000000000000000000000000000815260040161081490613759565b60405180910390fd5b60005b600360008381526020019081526020016000208054905081101561094c57600060036000848152602001908152602001600020828154811061088b577f4e487b7100000000000000000000000000000000000000000000000000000000600052603260045260246000fd5b906000526020600020906004020190508060020154600160008360010160009054906101000a900473ffffffffffffffffffffffffffffffffffffffff1673ffffffffffffffffffffffffffffffffffffffff1673ffffffffffffffffffffffffffffffffffffffff16815260200190815260200160002060008282546109129190613989565b925050819055506003600084815260200190815260200160002060006109389190612d44565b50808061094490613b09565b915050610820565b507f551751f171fd2d638d77a5321747fbffc37bc708e7386a753a8c823e84192b278160405161097c919061359c565b60405180910390a150565b600654431180156109c95750600654436109a19190613989565b60016005546001846109b391906138a8565b6109bd919061392f565b6109c79190613989565b105b610a08576040517f08c379a00000000000000000000000000000000000000000000000000000000081526004016109ff906136d9565b60405180910390fd5b82829050600460008381526020019081526020016000205414610a60576040517f08c379a0000000000000000000000000000000000000000000000000000000008152600401610a5790613799565b60405180910390fd5b60005b83839050811015610c0d576000600260008481526020019081526020016000206000868685818110610abe577f4e487b7100000000000000000000000000000000000000000000000000000000600052603260045260246000fd5b9050602002016020810190610ad39190612eba565b73ffffffffffffffffffffffffffffffffffffffff1673ffffffffffffffffffffffffffffffffffffffff1681526020019081526020016000208054905011610b51576040517f08c379a0000000000000000000000000000000000000000000000000000000008152600401610b48906136b9565b60405180910390fd5b600260008381526020019081526020016000206000858584818110610b9f577f4e487b7100000000000000000000000000000000000000000000000000000000600052603260045260246000fd5b9050602002016020810190610bb49190612eba565b73ffffffffffffffffffffffffffffffffffffffff1673ffffffffffffffffffffffffffffffffffffffff1681526020019081526020016000206000610bfa9190612d44565b8080610c0590613b09565b915050610a63565b50600060046000838152602001908152602001600020819055507f3ce34dbb485a137c63892e885619c05579a67d2142677223383f3344045b1da58383905082604051610c5b92919061380f565b60405180910390a1505050565b60065481565b60008060008373ffffffffffffffffffffffffffffffffffffffff1673ffffffffffffffffffffffffffffffffffffffff168152602001908152602001600020549050919050565b6000600960009054906101000a900473ffffffffffffffffffffffffffffffffffffffff1673ffffffffffffffffffffffffffffffffffffffff163373ffffffffffffffffffffffffffffffffffffffff1614610d48576040517f08c379a0000000000000000000000000000000000000000000000000000000008152600401610d3f90613759565b60405180910390fd5b600654431115610da35760065443610d609190613989565b831015610da2576040517f08c379a0000000000000000000000000000000000000000000000000000000008152600401610d9990613779565b60405180910390fd5b5b43831115610de6576040517f08c379a0000000000000000000000000000000000000000000000000000000008152600401610ddd906135f9565b60405180910390fd5b600060055484610df691906138fe565b905060006002600083815260200190815260200160002060008973ffffffffffffffffffffffffffffffffffffffff1673ffffffffffffffffffffffffffffffffffffffff16815260200190815260200160002080549050905060008410158015610e6057508084105b610e9f576040517f08c379a0000000000000000000000000000000000000000000000000000000008152600401610e9690613719565b60405180910390fd5b8673ffffffffffffffffffffffffffffffffffffffff166002600084815260200190815260200160002060008a73ffffffffffffffffffffffffffffffffffffffff1673ffffffffffffffffffffffffffffffffffffffff1681526020019081526020016000208581548110610f3e577f4e487b7100000000000000000000000000000000000000000000000000000000600052603260045260246000fd5b906000526020600020906004020160010160009054906101000a900473ffffffffffffffffffffffffffffffffffffffff1673ffffffffffffffffffffffffffffffffffffffff1614801561102b5750856002600084815260200190815260200160002060008a73ffffffffffffffffffffffffffffffffffffffff1673ffffffffffffffffffffffffffffffffffffffff1681526020019081526020016000208581548110611017577f4e487b7100000000000000000000000000000000000000000000000000000000600052603260045260246000fd5b906000526020600020906004020160020154145b61106a576040517f08c379a000000000000000000000000000000000000000000000000000000000815260040161106190613699565b60405180910390fd5b60006002600084815260200190815260200160002060008a73ffffffffffffffffffffffffffffffffffffffff1673ffffffffffffffffffffffffffffffffffffffff16815260200190815260200160002085815481106110f4577f4e487b7100000000000000000000000000000000000000000000000000000000600052603260045260246000fd5b906000526020600020906004020190508060405160200161111591906137d9565b604051602081830303815290604052805190602001209350611202816040518060800160405290816000820160009054906101000a900473ffffffffffffffffffffffffffffffffffffffff1673ffffffffffffffffffffffffffffffffffffffff1673ffffffffffffffffffffffffffffffffffffffff1681526020016001820160009054906101000a900473ffffffffffffffffffffffffffffffffffffffff1673ffffffffffffffffffffffffffffffffffffffff1673ffffffffffffffffffffffffffffffffffffffff1681526020016002820154815260200160038201548152505085611d08565b7fa3ab10ebc8699a3ce657eefeca53683f268623eb4481d6846d50ae63744b7deb89898989898960405161123b969594939291906134fe565b60405180910390a150505095945050505050565b6060600b805461125e90613aa3565b80601f016020809104026020016040519081016040528092919081815260200182805461128a90613aa3565b80156112d75780601f106112ac576101008083540402835291602001916112d7565b820191906000526020600020905b8154815290600101906020018083116112ba57829003601f168201915b5050505050905090565b6000806112ec611590565b905060006112fa8286611503565b90508381101561133f576040517f08c379a0000000000000000000000000000000000000000000000000000000008152600401611336906137b9565b60405180910390fd5b61134c8286868403611598565b60019250505092915050565b600080611363611590565b90506113708185856117ef565b600191505092915050565b60606002600084815260200190815260200160002060008373ffffffffffffffffffffffffffffffffffffffff1673ffffffffffffffffffffffffffffffffffffffff168152602001908152602001600020805480602002602001604051908101604052809291908181526020016000905b828210156114df57838290600052602060002090600402016040518060800160405290816000820160009054906101000a900473ffffffffffffffffffffffffffffffffffffffff1673ffffffffffffffffffffffffffffffffffffffff1673ffffffffffffffffffffffffffffffffffffffff1681526020016001820160009054906101000a900473ffffffffffffffffffffffffffffffffffffffff1673ffffffffffffffffffffffffffffffffffffffff1673ffffffffffffffffffffffffffffffffffffffff16815260200160028201548152602001600382015481525050815260200190600101906113ed565b50505050905092915050565b60016020528060005260406000206000915090505481565b6000600760008473ffffffffffffffffffffffffffffffffffffffff1673ffffffffffffffffffffffffffffffffffffffff16815260200190815260200160002060008373ffffffffffffffffffffffffffffffffffffffff1673ffffffffffffffffffffffffffffffffffffffff16815260200190815260200160002054905092915050565b60055481565b600033905090565b600073ffffffffffffffffffffffffffffffffffffffff168373ffffffffffffffffffffffffffffffffffffffff161415611608576040517f08c379a00000000000000000000000000000000000000000000000000000000081526004016115ff90613739565b60405180910390fd5b600073ffffffffffffffffffffffffffffffffffffffff168273ffffffffffffffffffffffffffffffffffffffff161415611678576040517f08c379a000000000000000000000000000000000000000000000000000000000815260040161166f90613619565b60405180910390fd5b80600760008573ffffffffffffffffffffffffffffffffffffffff1673ffffffffffffffffffffffffffffffffffffffff16815260200190815260200160002060008473ffffffffffffffffffffffffffffffffffffffff1673ffffffffffffffffffffffffffffffffffffffff168152602001908152602001600020819055508173ffffffffffffffffffffffffffffffffffffffff168373ffffffffffffffffffffffffffffffffffffffff167f8c5be1e5ebec7d5bd14f71427d1e84f3dd0314c0f7b2291e5b200ac8c7c3b9258360405161175691906137f4565b60405180910390a3505050565b600061176f8484611503565b90507fffffffffffffffffffffffffffffffffffffffffffffffffffffffffffffffff81146117e957818110156117db576040517f08c379a00000000000000000000000000000000000000000000000000000000081526004016117d290613659565b60405180910390fd5b6117e88484848403611598565b5b50505050565b600073ffffffffffffffffffffffffffffffffffffffff168373ffffffffffffffffffffffffffffffffffffffff16141561185f576040517f08c379a0000000000000000000000000000000000000000000000000000000008152600401611856906136f9565b60405180910390fd5b600073ffffffffffffffffffffffffffffffffffffffff168273ffffffffffffffffffffffffffffffffffffffff1614156118cf576040517f08c379a00000000000000000000000000000000000000000000000000000000081526004016118c6906135d9565b60405180910390fd5b6118da838383612263565b60008060008573ffffffffffffffffffffffffffffffffffffffff1673ffffffffffffffffffffffffffffffffffffffff16815260200190815260200160002054905081811015611960576040517f08c379a000000000000000000000000000000000000000000000000000000000815260040161195790613679565b60405180910390fd5b6000828261196e9190613989565b9050600160008673ffffffffffffffffffffffffffffffffffffffff1673ffffffffffffffffffffffffffffffffffffffff168152602001908152602001600020548110156119f2576040517f08c379a00000000000000000000000000000000000000000000000000000000081526004016119e990613639565b60405180910390fd5b8282036000808773ffffffffffffffffffffffffffffffffffffffff1673ffffffffffffffffffffffffffffffffffffffff16815260200190815260200160002081905550826000808673ffffffffffffffffffffffffffffffffffffffff1673ffffffffffffffffffffffffffffffffffffffff1681526020019081526020016000206000828254611a8591906138a8565b92505081905550600060055443611a9c91906138fe565b905060006002600083815260200190815260200160002060008873ffffffffffffffffffffffffffffffffffffffff1673ffffffffffffffffffffffffffffffffffffffff168152602001908152602001600020805490501415611b26576001600460008381526020019081526020016000206000828254611b1e91906138a8565b925050819055505b6002600082815260200190815260200160002060008773ffffffffffffffffffffffffffffffffffffffff1673ffffffffffffffffffffffffffffffffffffffff16815260200190815260200160002060405180608001604052808873ffffffffffffffffffffffffffffffffffffffff1681526020018773ffffffffffffffffffffffffffffffffffffffff16815260200186815260200143815250908060018154018082558091505060019003906000526020600020906004020160009091909190915060008201518160000160006101000a81548173ffffffffffffffffffffffffffffffffffffffff021916908373ffffffffffffffffffffffffffffffffffffffff16021790555060208201518160010160006101000a81548173ffffffffffffffffffffffffffffffffffffffff021916908373ffffffffffffffffffffffffffffffffffffffff160217905550604082015181600201556060820151816003015550508473ffffffffffffffffffffffffffffffffffffffff168673ffffffffffffffffffffffffffffffffffffffff167fddf252ad1be2c89b69c2b068fc378daa952ba7f163c4a11628f55a4df523b3ef86604051611ced91906137f4565b60405180910390a3611d00868686612268565b505050505050565b600060016000846020015173ffffffffffffffffffffffffffffffffffffffff1673ffffffffffffffffffffffffffffffffffffffff16815260200190815260200160002054600080856020015173ffffffffffffffffffffffffffffffffffffffff1673ffffffffffffffffffffffffffffffffffffffff16815260200190815260200160002054611d9b9190613989565b905080836040015111611eec57826040015160016000856020015173ffffffffffffffffffffffffffffffffffffffff1673ffffffffffffffffffffffffffffffffffffffff1681526020019081526020016000206000828254611dff91906138a8565b925050819055506003600083815260200190815260200160002083908060018154018082558091505060019003906000526020600020906004020160009091909190915060008201518160000160006101000a81548173ffffffffffffffffffffffffffffffffffffffff021916908373ffffffffffffffffffffffffffffffffffffffff16021790555060208201518160010160006101000a81548173ffffffffffffffffffffffffffffffffffffffff021916908373ffffffffffffffffffffffffffffffffffffffff1602179055506040820151816002015560608201518160030155505061225e565b8060016000856020015173ffffffffffffffffffffffffffffffffffffffff1673ffffffffffffffffffffffffffffffffffffffff1681526020019081526020016000206000828254611f3f91906138a8565b92505081905550600360008381526020019081526020016000206040518060800160405280856000015173ffffffffffffffffffffffffffffffffffffffff168152602001856020015173ffffffffffffffffffffffffffffffffffffffff1681526020018381526020018560600151815250908060018154018082558091505060019003906000526020600020906004020160009091909190915060008201518160000160006101000a81548173ffffffffffffffffffffffffffffffffffffffff021916908373ffffffffffffffffffffffffffffffffffffffff16021790555060208201518160010160006101000a81548173ffffffffffffffffffffffffffffffffffffffff021916908373ffffffffffffffffffffffffffffffffffffffff160217905550604082015181600201556060820151816003015550506000806120a085602001516001876060015161209b91906138a8565b61226d565b9150915060008386604001516120b69190613989565b905060005b8351811015612259576000604051806080016040528086848151811061210a577f4e487b7100000000000000000000000000000000000000000000000000000000600052603260045260246000fd5b60200260200101516000015173ffffffffffffffffffffffffffffffffffffffff16815260200186848151811061216a577f4e487b7100000000000000000000000000000000000000000000000000000000600052603260045260246000fd5b60200260200101516020015173ffffffffffffffffffffffffffffffffffffffff168152602001858785815181106121cb577f4e487b7100000000000000000000000000000000000000000000000000000000600052603260045260246000fd5b602002602001015160400151866121e2919061392f565b6121ec91906138fe565b815260200186848151811061222a577f4e487b7100000000000000000000000000000000000000000000000000000000600052603260045260246000fd5b60200260200101516060015181525090506122458188611d08565b50808061225190613b09565b9150506120bb565b505050505b505050565b505050565b505050565b60606000806005548461228091906138fe565b905060006002600083815260200190815260200160002060008773ffffffffffffffffffffffffffffffffffffffff1673ffffffffffffffffffffffffffffffffffffffff16815260200190815260200160002080549050905060006122ea83886000858a612a58565b9050600080945060006005544361230191906138fe565b90507fffffffffffffffffffffffffffffffffffffffffffffffffffffffffffffffff83146123445782846123369190613989565b8261234191906138a8565b91505b600060018661235391906138a8565b90505b818110156123d2576002600082815260200190815260200160002060008b73ffffffffffffffffffffffffffffffffffffffff1673ffffffffffffffffffffffffffffffffffffffff16815260200190815260200160002080549050836123bd91906138a8565b925080806123ca90613b09565b915050612356565b508167ffffffffffffffff811115612413577f4e487b7100000000000000000000000000000000000000000000000000000000600052604160045260246000fd5b60405190808252806020026020018201604052801561244c57816020015b612439612d68565b8152602001906001900390816124315790505b50965060007fffffffffffffffffffffffffffffffffffffffffffffffffffffffffffffffff8414612751575b848410156127505760006002600088815260200190815260200160002060008c73ffffffffffffffffffffffffffffffffffffffff1673ffffffffffffffffffffffffffffffffffffffff168152602001908152602001600020858154811061250b577f4e487b7100000000000000000000000000000000000000000000000000000000600052603260045260246000fd5b90600052602060002090600402016040518060800160405290816000820160009054906101000a900473ffffffffffffffffffffffffffffffffffffffff1673ffffffffffffffffffffffffffffffffffffffff1673ffffffffffffffffffffffffffffffffffffffff1681526020016001820160009054906101000a900473ffffffffffffffffffffffffffffffffffffffff1673ffffffffffffffffffffffffffffffffffffffff1673ffffffffffffffffffffffffffffffffffffffff1681526020016002820154815260200160038201548152505090506040518060800160405280826000015173ffffffffffffffffffffffffffffffffffffffff168152602001826020015173ffffffffffffffffffffffffffffffffffffffff16815260200182604001518152602001826060015181525089838151811061267c577f4e487b7100000000000000000000000000000000000000000000000000000000600052603260045260246000fd5b60200260200101819052506002600088815260200190815260200160002060008c73ffffffffffffffffffffffffffffffffffffffff1673ffffffffffffffffffffffffffffffffffffffff168152602001908152602001600020858154811061270f577f4e487b7100000000000000000000000000000000000000000000000000000000600052603260045260246000fd5b9060005260206000209060040201600201548861272c91906138a8565b9750818061273990613b09565b92505050838061274890613b09565b945050612479565b5b600060018761276091906138a8565b90505b82811015612a4a5760005b6002600083815260200190815260200160002060008d73ffffffffffffffffffffffffffffffffffffffff1673ffffffffffffffffffffffffffffffffffffffff16815260200190815260200160002080549050811015612a28576002600083815260200190815260200160002060008d73ffffffffffffffffffffffffffffffffffffffff1673ffffffffffffffffffffffffffffffffffffffff1681526020019081526020016000208181548110612851577f4e487b7100000000000000000000000000000000000000000000000000000000600052603260045260246000fd5b90600052602060002090600402016040518060800160405290816000820160009054906101000a900473ffffffffffffffffffffffffffffffffffffffff1673ffffffffffffffffffffffffffffffffffffffff1673ffffffffffffffffffffffffffffffffffffffff1681526020016001820160009054906101000a900473ffffffffffffffffffffffffffffffffffffffff1673ffffffffffffffffffffffffffffffffffffffff1673ffffffffffffffffffffffffffffffffffffffff168152602001600282015481526020016003820154815250508a8481518110612963577f4e487b7100000000000000000000000000000000000000000000000000000000600052603260045260246000fd5b60200260200101819052506002600083815260200190815260200160002060008d73ffffffffffffffffffffffffffffffffffffffff1673ffffffffffffffffffffffffffffffffffffffff16815260200190815260200160002081815481106129f6577f4e487b7100000000000000000000000000000000000000000000000000000000600052603260045260246000fd5b90600052602060002090600402016002015489612a1391906138a8565b98508080612a2090613b09565b91505061276e565b508180612a3490613b09565b9250508080612a4290613b09565b915050612763565b505050505050509250929050565b6000808484612a679190613989565b90506000811480612b1c5750600181148015612b1b5750826002600089815260200190815260200160002060008873ffffffffffffffffffffffffffffffffffffffff1673ffffffffffffffffffffffffffffffffffffffff1681526020019081526020016000208681548110612b07577f4e487b7100000000000000000000000000000000000000000000000000000000600052603260045260246000fd5b906000526020600020906004020160030154105b5b15612b4a577fffffffffffffffffffffffffffffffffffffffffffffffffffffffffffffffff915050612d3b565b6000600282612b5991906138fe565b86612b6491906138a8565b90506000600260008a815260200190815260200160002060008973ffffffffffffffffffffffffffffffffffffffff1673ffffffffffffffffffffffffffffffffffffffff1681526020019081526020016000208281548110612bf0577f4e487b7100000000000000000000000000000000000000000000000000000000600052603260045260246000fd5b906000526020600020906004020160030154905080851015612c2357612c198989898589612a58565b9350505050612d3b565b80851115612c4e57612c448989600185612c3d91906138a8565b8989612a58565b9350505050612d3b565b5b600082118015612c6c57506000600183612c699190613989565b10155b8015612d1c575084600260008b815260200190815260200160002060008a73ffffffffffffffffffffffffffffffffffffffff1673ffffffffffffffffffffffffffffffffffffffff168152602001908152602001600020600184612cd19190613989565b81548110612d08577f4e487b7100000000000000000000000000000000000000000000000000000000600052603260045260246000fd5b906000526020600020906004020160030154115b15612d34578180612d2c90613a79565b925050612c4f565b8193505050505b95945050505050565b5080546000825560040290600052602060002090810190612d659190612dbc565b50565b6040518060800160405280600073ffffffffffffffffffffffffffffffffffffffff168152602001600073ffffffffffffffffffffffffffffffffffffffff16815260200160008152602001600081525090565b5b80821115612e2d57600080820160006101000a81549073ffffffffffffffffffffffffffffffffffffffff02191690556001820160006101000a81549073ffffffffffffffffffffffffffffffffffffffff02191690556002820160009055600382016000905550600401612dbd565b5090565b600081359050612e40816140c7565b92915050565b60008083601f840112612e5857600080fd5b8235905067ffffffffffffffff811115612e7157600080fd5b602083019150836020820283011115612e8957600080fd5b9250929050565b600081359050612e9f816140de565b92915050565b600081359050612eb4816140f5565b92915050565b600060208284031215612ecc57600080fd5b6000612eda84828501612e31565b91505092915050565b60008060408385031215612ef657600080fd5b6000612f0485828601612e31565b9250506020612f1585828601612e31565b9150509250929050565b600080600060608486031215612f3457600080fd5b6000612f4286828701612e31565b9350506020612f5386828701612e31565b9250506040612f6486828701612ea5565b9150509250925092565b600080600080600060a08688031215612f8657600080fd5b6000612f9488828901612e31565b9550506020612fa588828901612e31565b9450506040612fb688828901612ea5565b9350506060612fc788828901612ea5565b9250506080612fd888828901612ea5565b9150509295509295909350565b60008060408385031215612ff857600080fd5b600061300685828601612e31565b925050602061301785828601612ea5565b9150509250929050565b60008060006040848603121561303657600080fd5b600084013567ffffffffffffffff81111561305057600080fd5b61305c86828701612e46565b9350935050602061306f86828701612ea5565b9150509250925092565b60006020828403121561308b57600080fd5b600061309984828501612e90565b91505092915050565b600080604083850312156130b557600080fd5b60006130c385828601612ea5565b92505060206130d485828601612e31565b9150509250929050565b60006130ea83836133f9565b60808301905092915050565b6130ff816139e7565b82525050565b61310e816139e7565b82525050565b600061311f82613863565b6131298185613886565b935061313483613853565b8060005b8381101561316557815161314c88826130de565b975061315783613879565b925050600181019050613138565b5085935050505092915050565b61317b816139f9565b82525050565b61318a81613a05565b82525050565b600061319b8261386e565b6131a58185613897565b93506131b5818560208601613a46565b6131be81613bdf565b840191505092915050565b60006131d6602383613897565b91506131e182613bfd565b604082019050919050565b60006131f9605483613897565b915061320482613c4c565b606082019050919050565b600061321c602283613897565b915061322782613cc1565b604082019050919050565b600061323f602d83613897565b915061324a82613d10565b604082019050919050565b6000613262601d83613897565b915061326d82613d5f565b602082019050919050565b6000613285602683613897565b915061329082613d88565b604082019050919050565b60006132a8602d83613897565b91506132b382613dd7565b604082019050919050565b60006132cb605283613897565b91506132d682613e26565b606082019050919050565b60006132ee603683613897565b91506132f982613e9b565b604082019050919050565b6000613311602583613897565b915061331c82613eea565b604082019050919050565b6000613334601f83613897565b915061333f82613f39565b602082019050919050565b6000613357602483613897565b915061336282613f62565b604082019050919050565b600061337a601b83613897565b915061338582613fb1565b602082019050919050565b600061339d603683613897565b91506133a882613fda565b604082019050919050565b60006133c0603983613897565b91506133cb82614029565b604082019050919050565b60006133e3602583613897565b91506133ee82614078565b604082019050919050565b60808201600082015161340f60008501826130f6565b50602082015161342260208501826130f6565b50604082015161343560408501826134d1565b50606082015161344860608501826134d1565b50505050565b60808201600080830154905061346381613ad5565b61347060008601826130f6565b506001830154905061348181613ad5565b61348e60208601826130f6565b506002830154905061349f81613aef565b6134ac60408601826134d1565b50600383015490506134bd81613aef565b6134ca60608601826134d1565b5050505050565b6134da81613a2f565b82525050565b6134e981613a2f565b82525050565b6134f881613a39565b82525050565b600060c0820190506135136000830189613105565b6135206020830188613105565b61352d60408301876134e0565b61353a60608301866134e0565b61354760808301856134e0565b61355460a0830184613181565b979650505050505050565b600060208201905081810360008301526135798184613114565b905092915050565b60006020820190506135966000830184613172565b92915050565b60006020820190506135b16000830184613181565b92915050565b600060208201905081810360008301526135d18184613190565b905092915050565b600060208201905081810360008301526135f2816131c9565b9050919050565b60006020820190508181036000830152613612816131ec565b9050919050565b600060208201905081810360008301526136328161320f565b9050919050565b6000602082019050818103600083015261365281613232565b9050919050565b6000602082019050818103600083015261367281613255565b9050919050565b6000602082019050818103600083015261369281613278565b9050919050565b600060208201905081810360008301526136b28161329b565b9050919050565b600060208201905081810360008301526136d2816132be565b9050919050565b600060208201905081810360008301526136f2816132e1565b9050919050565b6000602082019050818103600083015261371281613304565b9050919050565b6000602082019050818103600083015261373281613327565b9050919050565b600060208201905081810360008301526137528161334a565b9050919050565b600060208201905081810360008301526137728161336d565b9050919050565b6000602082019050818103600083015261379281613390565b9050919050565b600060208201905081810360008301526137b2816133b3565b9050919050565b600060208201905081810360008301526137d2816133d6565b9050919050565b60006080820190506137ee600083018461344e565b92915050565b600060208201905061380960008301846134e0565b92915050565b600060408201905061382460008301856134e0565b61383160208301846134e0565b9392505050565b600060208201905061384d60008301846134ef565b92915050565b6000819050602082019050919050565b600081519050919050565b600081519050919050565b6000602082019050919050565b600082825260208201905092915050565b600082825260208201905092915050565b60006138b382613a2f565b91506138be83613a2f565b9250827fffffffffffffffffffffffffffffffffffffffffffffffffffffffffffffffff038211156138f3576138f2613b52565b5b828201905092915050565b600061390982613a2f565b915061391483613a2f565b92508261392457613923613b81565b5b828204905092915050565b600061393a82613a2f565b915061394583613a2f565b9250817fffffffffffffffffffffffffffffffffffffffffffffffffffffffffffffffff048311821515161561397e5761397d613b52565b5b828202905092915050565b600061399482613a2f565b915061399f83613a2f565b9250828210156139b2576139b1613b52565b5b828203905092915050565b600073ffffffffffffffffffffffffffffffffffffffff82169050919050565b6000819050919050565b60006139f282613a0f565b9050919050565b60008115159050919050565b6000819050919050565b600073ffffffffffffffffffffffffffffffffffffffff82169050919050565b6000819050919050565b600060ff82169050919050565b60005b83811015613a64578082015181840152602081019050613a49565b83811115613a73576000848401525b50505050565b6000613a8482613a2f565b91506000821415613a9857613a97613b52565b5b600182039050919050565b60006002820490506001821680613abb57607f821691505b60208210811415613acf57613ace613bb0565b5b50919050565b6000613ae8613ae383613bf0565b6139bd565b9050919050565b6000613b02613afd83613bf0565b6139dd565b9050919050565b6000613b1482613a2f565b91507fffffffffffffffffffffffffffffffffffffffffffffffffffffffffffffffff821415613b4757613b46613b52565b5b600182019050919050565b7f4e487b7100000000000000000000000000000000000000000000000000000000600052601160045260246000fd5b7f4e487b7100000000000000000000000000000000000000000000000000000000600052601260045260246000fd5b7f4e487b7100000000000000000000000000000000000000000000000000000000600052602260045260246000fd5b6000601f19601f8301169050919050565b60008160001c9050919050565b7f45524332303a207472616e7366657220746f20746865207a65726f206164647260008201527f6573730000000000000000000000000000000000000000000000000000000000602082015250565b7f4552433230523a20737065636966696564207472616e73616374696f6e20626c60008201527f6f636b206e756d6265722069732067726561746572207468616e20746865206360208201527f757272656e7420626c6f636b206e756d6265722e000000000000000000000000604082015250565b7f45524332303a20617070726f766520746f20746865207a65726f20616464726560008201527f7373000000000000000000000000000000000000000000000000000000000000602082015250565b7f4552433230523a2043616e6e6f74207370656e642066726f7a656e206d6f6e6560008201527f7920696e206163636f756e742e00000000000000000000000000000000000000602082015250565b7f45524332303a20696e73756666696369656e7420616c6c6f77616e6365000000600082015250565b7f45524332303a207472616e7366657220616d6f756e742065786365656473206260008201527f616c616e63650000000000000000000000000000000000000000000000000000602082015250565b7f4552433230523a20696e64657820676976656e20646f6573206e6f74206d617460008201527f6368207370656e64697475726500000000000000000000000000000000000000602082015250565b7f4552433230523a2061646472657373657320746f20636c65616e20666f72206260008201527f6c6f636b2045706f636820646f6573206e6f74206d617463682074686520616360208201527f7475616c20646174612073746f726167652e0000000000000000000000000000604082015250565b7f45524332302d523a20426c6f636b2045706f6368206973206e6f7420616c6c6f60008201527f77656420746f20626520636c6561726564207965742e00000000000000000000602082015250565b7f45524332303a207472616e736665722066726f6d20746865207a65726f20616460008201527f6472657373000000000000000000000000000000000000000000000000000000602082015250565b7f4552433230523a20496e76616c696420696e6465782070726f76696465642e00600082015250565b7f45524332303a20617070726f76652066726f6d20746865207a65726f2061646460008201527f7265737300000000000000000000000000000000000000000000000000000000602082015250565b7f455243373231523a20556e617574686f72697a65642063616c6c2e0000000000600082015250565b7f4552433230523a20737065636966696564207472616e73616374696f6e20697360008201527f206e6f206c6f6e6765722072657665727369626c652e00000000000000000000602082015250565b7f4552433230523a204d75737420636c6561722074686520656e7469726520626c60008201527f6f636b2045706f636827732064617461206174206f6e63652e00000000000000602082015250565b7f45524332303a2064656372656173656420616c6c6f77616e63652062656c6f7760008201527f207a65726f000000000000000000000000000000000000000000000000000000602082015250565b6140d0816139e7565b81146140db57600080fd5b50565b6140e781613a05565b81146140f257600080fd5b50565b6140fe81613a2f565b811461410957600080fd5b5056fea2646970667358221220bc181a87a2c4aa94cd5d281a91e73b791d5c542f6121e3d87961a1f63265026d64736f6c63430008010033",
  "linkReferences": {},
  "deployedLinkReferences": {}
}