{
  "_format": "hh-sol-artifact-1",
  "contractName": "ERC721R",
  "sourceName": "contracts/ERC721R.sol",
  "abi": [
    {
      "inputs": [
        {
          "internalType": "string",
          "name": "name_",
          "type": "string"
        },
        {
          "internalType": "string",
          "name": "symbol_",
          "type": "string"
        },
        {
          "internalType": "uint256",
          "name": "reversiblePeriod_",
          "type": "uint256"
        },
        {
          "internalType": "address",
          "name": "governanceContract_",
          "type": "address"
        }
      ],
      "stateMutability": "nonpayable",
      "type": "constructor"
    },
    {
      "anonymous": false,
      "inputs": [
        {
          "indexed": true,
          "internalType": "address",
          "name": "owner",
          "type": "address"
        },
        {
          "indexed": true,
          "internalType": "address",
          "name": "approved",
          "type": "address"
        },
        {
          "indexed": true,
          "internalType": "uint256",
          "name": "tokenId",
          "type": "uint256"
        }
      ],
      "name": "Approval",
      "type": "event"
    },
    {
      "anonymous": false,
      "inputs": [
        {
          "indexed": true,
          "internalType": "address",
          "name": "owner",
          "type": "address"
        },
        {
          "indexed": true,
          "internalType": "address",
          "name": "operator",
          "type": "address"
        },
        {
          "indexed": false,
          "internalType": "bool",
          "name": "approved",
          "type": "bool"
        }
      ],
      "name": "ApprovalForAll",
      "type": "event"
    },
    {
      "anonymous": false,
      "inputs": [
        {
          "indexed": true,
          "internalType": "address",
          "name": "from",
          "type": "address"
        },
        {
          "indexed": true,
          "internalType": "address",
          "name": "to",
          "type": "address"
        },
        {
          "indexed": true,
          "internalType": "uint256",
          "name": "tokenId",
          "type": "uint256"
        }
      ],
      "name": "Transfer",
      "type": "event"
    },
    {
      "inputs": [],
      "name": "NUM_REVERSIBLE_BLOCKS",
      "outputs": [
        {
          "internalType": "uint256",
          "name": "",
          "type": "uint256"
        }
      ],
      "stateMutability": "view",
      "type": "function"
    },
    {
      "inputs": [
        {
          "internalType": "uint256",
          "name": "",
          "type": "uint256"
        }
      ],
      "name": "_owners",
      "outputs": [
        {
          "internalType": "contract OwningQueue",
          "name": "",
          "type": "address"
        }
      ],
      "stateMutability": "view",
      "type": "function"
    },
    {
      "inputs": [
        {
          "internalType": "address",
          "name": "to",
          "type": "address"
        },
        {
          "internalType": "uint256",
          "name": "tokenId",
          "type": "uint256"
        }
      ],
      "name": "approve",
      "outputs": [],
      "stateMutability": "nonpayable",
      "type": "function"
    },
    {
      "inputs": [
        {
          "internalType": "address",
          "name": "owner",
          "type": "address"
        }
      ],
      "name": "balanceOf",
      "outputs": [
        {
          "internalType": "uint256",
          "name": "",
          "type": "uint256"
        }
      ],
      "stateMutability": "view",
      "type": "function"
    },
    {
      "inputs": [
        {
          "internalType": "uint256[]",
          "name": "tokenIds",
          "type": "uint256[]"
        }
      ],
      "name": "clean",
      "outputs": [],
      "stateMutability": "nonpayable",
      "type": "function"
    },
    {
      "inputs": [
        {
          "internalType": "address",
          "name": "from",
          "type": "address"
        },
        {
          "internalType": "address",
          "name": "to",
          "type": "address"
        },
        {
          "internalType": "uint256",
          "name": "tokenId",
          "type": "uint256"
        },
        {
          "internalType": "uint256",
          "name": "blockNumber",
          "type": "uint256"
        },
        {
          "internalType": "uint256",
          "name": "index",
          "type": "uint256"
        }
      ],
      "name": "freeze",
      "outputs": [
        {
          "internalType": "bool",
          "name": "successful",
          "type": "bool"
        }
      ],
      "stateMutability": "nonpayable",
      "type": "function"
    },
    {
      "inputs": [
        {
          "internalType": "uint256",
          "name": "tokenId",
          "type": "uint256"
        }
      ],
      "name": "getApproved",
      "outputs": [
        {
          "internalType": "address",
          "name": "",
          "type": "address"
        }
      ],
      "stateMutability": "view",
      "type": "function"
    },
    {
      "inputs": [
        {
          "internalType": "address",
          "name": "owner",
          "type": "address"
        },
        {
          "internalType": "address",
          "name": "operator",
          "type": "address"
        }
      ],
      "name": "isApprovedForAll",
      "outputs": [
        {
          "internalType": "bool",
          "name": "",
          "type": "bool"
        }
      ],
      "stateMutability": "view",
      "type": "function"
    },
    {
      "inputs": [],
      "name": "name",
      "outputs": [
        {
          "internalType": "string",
          "name": "",
          "type": "string"
        }
      ],
      "stateMutability": "view",
      "type": "function"
    },
    {
      "inputs": [
        {
          "internalType": "uint256",
          "name": "tokenId",
          "type": "uint256"
        }
      ],
      "name": "ownerOf",
      "outputs": [
        {
          "internalType": "address",
          "name": "",
          "type": "address"
        }
      ],
      "stateMutability": "view",
      "type": "function"
    },
    {
      "inputs": [
        {
          "internalType": "uint256",
          "name": "tokenId",
          "type": "uint256"
        }
      ],
      "name": "rejectReverse",
      "outputs": [
        {
          "internalType": "bool",
          "name": "successful",
          "type": "bool"
        }
      ],
      "stateMutability": "nonpayable",
      "type": "function"
    },
    {
      "inputs": [
        {
          "internalType": "uint256",
          "name": "tokenId",
          "type": "uint256"
        },
        {
          "internalType": "address",
          "name": "original_owner",
          "type": "address"
        }
      ],
      "name": "reverse",
      "outputs": [
        {
          "internalType": "bool",
          "name": "successful",
          "type": "bool"
        }
      ],
      "stateMutability": "nonpayable",
      "type": "function"
    },
    {
      "inputs": [
        {
          "internalType": "address",
          "name": "from",
          "type": "address"
        },
        {
          "internalType": "address",
          "name": "to",
          "type": "address"
        },
        {
          "internalType": "uint256",
          "name": "tokenId",
          "type": "uint256"
        }
      ],
      "name": "safeTransferFrom",
      "outputs": [],
      "stateMutability": "nonpayable",
      "type": "function"
    },
    {
      "inputs": [
        {
          "internalType": "address",
          "name": "from",
          "type": "address"
        },
        {
          "internalType": "address",
          "name": "to",
          "type": "address"
        },
        {
          "internalType": "uint256",
          "name": "tokenId",
          "type": "uint256"
        },
        {
          "internalType": "bytes",
          "name": "data",
          "type": "bytes"
        }
      ],
      "name": "safeTransferFrom",
      "outputs": [],
      "stateMutability": "nonpayable",
      "type": "function"
    },
    {
      "inputs": [
        {
          "internalType": "address",
          "name": "operator",
          "type": "address"
        },
        {
          "internalType": "bool",
          "name": "approved",
          "type": "bool"
        }
      ],
      "name": "setApprovalForAll",
      "outputs": [],
      "stateMutability": "nonpayable",
      "type": "function"
    },
    {
      "inputs": [
        {
          "internalType": "bytes4",
          "name": "interfaceId",
          "type": "bytes4"
        }
      ],
      "name": "supportsInterface",
      "outputs": [
        {
          "internalType": "bool",
          "name": "",
          "type": "bool"
        }
      ],
      "stateMutability": "view",
      "type": "function"
    },
    {
      "inputs": [],
      "name": "symbol",
      "outputs": [
        {
          "internalType": "string",
          "name": "",
          "type": "string"
        }
      ],
      "stateMutability": "view",
      "type": "function"
    },
    {
      "inputs": [
        {
          "internalType": "uint256",
          "name": "tokenId",
          "type": "uint256"
        }
      ],
      "name": "tokenURI",
      "outputs": [
        {
          "internalType": "string",
          "name": "",
          "type": "string"
        }
      ],
      "stateMutability": "view",
      "type": "function"
    },
    {
      "inputs": [
        {
          "internalType": "address",
          "name": "from",
          "type": "address"
        },
        {
          "internalType": "address",
          "name": "to",
          "type": "address"
        },
        {
          "internalType": "uint256",
          "name": "tokenId",
          "type": "uint256"
        }
      ],
      "name": "transferFrom",
      "outputs": [],
      "stateMutability": "nonpayable",
      "type": "function"
    }
  ],
  "bytecode": "0x6080604052620157c06002553480156200001857600080fd5b5060405162003f0838038062003f0883398181016040528101906200003e919062000212565b836000908051906020019062000056929190620000c2565b5082600190805190602001906200006f929190620000c2565b508160028190555080600360006101000a81548173ffffffffffffffffffffffffffffffffffffffff021916908373ffffffffffffffffffffffffffffffffffffffff1602179055505050505062000492565b828054620000d09062000383565b90600052602060002090601f016020900481019282620000f4576000855562000140565b82601f106200010f57805160ff191683800117855562000140565b8280016001018555821562000140579182015b828111156200013f57825182559160200191906001019062000122565b5b5090506200014f919062000153565b5090565b5b808211156200016e57600081600090555060010162000154565b5090565b6000620001896200018384620002d9565b620002b0565b905082815260208101848484011115620001a257600080fd5b620001af8482856200034d565b509392505050565b600081519050620001c8816200045e565b92915050565b600082601f830112620001e057600080fd5b8151620001f284826020860162000172565b91505092915050565b6000815190506200020c8162000478565b92915050565b600080600080608085870312156200022957600080fd5b600085015167ffffffffffffffff8111156200024457600080fd5b6200025287828801620001ce565b945050602085015167ffffffffffffffff8111156200027057600080fd5b6200027e87828801620001ce565b93505060406200029187828801620001fb565b9250506060620002a487828801620001b7565b91505092959194509250565b6000620002bc620002cf565b9050620002ca8282620003b9565b919050565b6000604051905090565b600067ffffffffffffffff821115620002f757620002f66200041e565b5b62000302826200044d565b9050602081019050919050565b60006200031c8262000323565b9050919050565b600073ffffffffffffffffffffffffffffffffffffffff82169050919050565b6000819050919050565b60005b838110156200036d57808201518184015260208101905062000350565b838111156200037d576000848401525b50505050565b600060028204905060018216806200039c57607f821691505b60208210811415620003b357620003b2620003ef565b5b50919050565b620003c4826200044d565b810181811067ffffffffffffffff82111715620003e657620003e56200041e565b5b80604052505050565b7f4e487b7100000000000000000000000000000000000000000000000000000000600052602260045260246000fd5b7f4e487b7100000000000000000000000000000000000000000000000000000000600052604160045260246000fd5b6000601f19601f8301169050919050565b62000469816200030f565b81146200047557600080fd5b50565b620004838162000343565b81146200048f57600080fd5b50565b613a6680620004a26000396000f3fe608060405234801561001057600080fd5b50600436106101215760003560e01c806387a3b25b116100ad578063b88d4fde11610071578063b88d4fde14610340578063c87b56dd1461035c578063d6e483c91461038c578063e3eea9d0146103a8578063e985e9c5146103d857610121565b806387a3b25b1461027657806395d89b41146102a6578063992924a6146102c457806399c5ff88146102f4578063a22cb4651461032457610121565b806323b872dd116100f457806323b872dd146101c057806342842e0e146101dc57806360927b21146101f85780636352211e1461021657806370a082311461024657610121565b806301ffc9a71461012657806306fdde0314610156578063081812fc14610174578063095ea7b3146101a4575b600080fd5b610140600480360381019061013b91906128dc565b610408565b60405161014d9190612e12565b60405180910390f35b61015e6104ea565b60405161016b9190612e48565b60405180910390f35b61018e60048036038101906101899190612957565b61057c565b60405161019b9190612dab565b60405180910390f35b6101be60048036038101906101b9919061285b565b610601565b005b6101da60048036038101906101d591906126de565b610719565b005b6101f660048036038101906101f191906126de565b610779565b005b610200610799565b60405161020d91906130c5565b60405180910390f35b610230600480360381019061022b9190612957565b61079f565b60405161023d9190612dab565b60405180910390f35b610260600480360381019061025b9190612679565b61098f565b60405161026d91906130c5565b60405180910390f35b610290600480360381019061028b91906127a8565b610a47565b60405161029d9190612e12565b60405180910390f35b6102ae610f45565b6040516102bb9190612e48565b60405180910390f35b6102de60048036038101906102d99190612957565b610fd7565b6040516102eb9190612e2d565b60405180910390f35b61030e600480360381019061030991906129a9565b61100a565b60405161031b9190612e12565b60405180910390f35b61033e6004803603810190610339919061281f565b611254565b005b61035a6004803603810190610355919061272d565b61126a565b005b61037660048036038101906103719190612957565b6112cc565b6040516103839190612e48565b60405180910390f35b6103a660048036038101906103a19190612897565b611373565b005b6103c260048036038101906103bd9190612957565b6118ae565b6040516103cf9190612e12565b60405180910390f35b6103f260048036038101906103ed91906126a2565b611975565b6040516103ff9190612e12565b60405180910390f35b60007f80ac58cd000000000000000000000000000000000000000000000000000000007bffffffffffffffffffffffffffffffffffffffffffffffffffffffff1916827bffffffffffffffffffffffffffffffffffffffffffffffffffffffff191614806104d357507f5b5e139f000000000000000000000000000000000000000000000000000000007bffffffffffffffffffffffffffffffffffffffffffffffffffffffff1916827bffffffffffffffffffffffffffffffffffffffffffffffffffffffff1916145b806104e357506104e282611a09565b5b9050919050565b6060600080546104f99061330e565b80601f01602080910402602001604051908101604052809291908181526020018280546105259061330e565b80156105725780601f1061054757610100808354040283529160200191610572565b820191906000526020600020905b81548152906001019060200180831161055557829003601f168201915b5050505050905090565b600061058782611a73565b6105c6576040517f08c379a00000000000000000000000000000000000000000000000000000000081526004016105bd90612fca565b60405180910390fd5b6006600083815260200190815260200160002060009054906101000a900473ffffffffffffffffffffffffffffffffffffffff169050919050565b600061060c8261079f565b90508073ffffffffffffffffffffffffffffffffffffffff168373ffffffffffffffffffffffffffffffffffffffff16141561067d576040517f08c379a00000000000000000000000000000000000000000000000000000000081526004016106749061300a565b60405180910390fd5b8073ffffffffffffffffffffffffffffffffffffffff1661069c611ab4565b73ffffffffffffffffffffffffffffffffffffffff1614806106cb57506106ca816106c5611ab4565b611975565b5b61070a576040517f08c379a000000000000000000000000000000000000000000000000000000000815260040161070190612f8a565b60405180910390fd5b6107148383611abc565b505050565b61072a610724611ab4565b82611b75565b610769576040517f08c379a00000000000000000000000000000000000000000000000000000000081526004016107609061302a565b60405180910390fd5b610774838383611c53565b505050565b6107948383836040518060200160405280600081525061126a565b505050565b60025481565b6000806004600084815260200190815260200160002060009054906101000a900473ffffffffffffffffffffffffffffffffffffffff1673ffffffffffffffffffffffffffffffffffffffff16639507d39a60016004600087815260200190815260200160002060009054906101000a900473ffffffffffffffffffffffffffffffffffffffff1673ffffffffffffffffffffffffffffffffffffffff16634d6228316040518163ffffffff1660e01b815260040160206040518083038186803b15801561086c57600080fd5b505afa158015610880573d6000803e3d6000fd5b505050506040513d601f19601f820116820180604052508101906108a49190612980565b036040518263ffffffff1660e01b81526004016108c191906130c5565b604080518083038186803b1580156108d857600080fd5b505afa1580156108ec573d6000803e3d6000fd5b505050506040513d601f19601f82011682018060405250810190610910919061292e565b600001519050600073ffffffffffffffffffffffffffffffffffffffff168173ffffffffffffffffffffffffffffffffffffffff161415610986576040517f08c379a000000000000000000000000000000000000000000000000000000000815260040161097d90612faa565b60405180910390fd5b80915050919050565b60008073ffffffffffffffffffffffffffffffffffffffff168273ffffffffffffffffffffffffffffffffffffffff161415610a00576040517f08c379a00000000000000000000000000000000000000000000000000000000081526004016109f790612f6a565b60405180910390fd5b600560008373ffffffffffffffffffffffffffffffffffffffff1673ffffffffffffffffffffffffffffffffffffffff168152602001908152602001600020549050919050565b6000600360009054906101000a900473ffffffffffffffffffffffffffffffffffffffff1673ffffffffffffffffffffffffffffffffffffffff163373ffffffffffffffffffffffffffffffffffffffff1614610ad9576040517f08c379a0000000000000000000000000000000000000000000000000000000008152600401610ad09061304a565b60405180910390fd5b60025443610ae79190613200565b831015610b29576040517f08c379a0000000000000000000000000000000000000000000000000000000008152600401610b2090612f4a565b60405180910390fd5b60006004600086815260200190815260200160002060009054906101000a900473ffffffffffffffffffffffffffffffffffffffff1673ffffffffffffffffffffffffffffffffffffffff16631e2231436040518163ffffffff1660e01b815260040160206040518083038186803b158015610ba457600080fd5b505afa158015610bb8573d6000803e3d6000fd5b505050506040513d601f19601f82011682018060405250810190610bdc9190612980565b905060006004600087815260200190815260200160002060009054906101000a900473ffffffffffffffffffffffffffffffffffffffff1673ffffffffffffffffffffffffffffffffffffffff16634d6228316040518163ffffffff1660e01b815260040160206040518083038186803b158015610c5957600080fd5b505afa158015610c6d573d6000803e3d6000fd5b505050506040513d601f19601f82011682018060405250810190610c919190612980565b9050818410158015610ca7575060018183010384105b610ce6576040517f08c379a0000000000000000000000000000000000000000000000000000000008152600401610cdd90612e6a565b60405180910390fd5b8773ffffffffffffffffffffffffffffffffffffffff166004600088815260200190815260200160002060009054906101000a900473ffffffffffffffffffffffffffffffffffffffff1673ffffffffffffffffffffffffffffffffffffffff16639507d39a866040518263ffffffff1660e01b8152600401610d6991906130c5565b604080518083038186803b158015610d8057600080fd5b505afa158015610d94573d6000803e3d6000fd5b505050506040513d601f19601f82011682018060405250810190610db8919061292e565b6000015173ffffffffffffffffffffffffffffffffffffffff16148015610ecb57508673ffffffffffffffffffffffffffffffffffffffff166004600088815260200190815260200160002060009054906101000a900473ffffffffffffffffffffffffffffffffffffffff1673ffffffffffffffffffffffffffffffffffffffff16639507d39a600187016040518263ffffffff1660e01b8152600401610e6091906130c5565b604080518083038186803b158015610e7757600080fd5b505afa158015610e8b573d6000803e3d6000fd5b505050506040513d601f19601f82011682018060405250810190610eaf919061292e565b6000015173ffffffffffffffffffffffffffffffffffffffff16145b610f0a576040517f08c379a0000000000000000000000000000000000000000000000000000000008152600401610f019061308a565b60405180910390fd5b60016008600088815260200190815260200160002060006101000a81548160ff02191690831515021790555060019250505095945050505050565b606060018054610f549061330e565b80601f0160208091040260200160405190810160405280929190818152602001828054610f809061330e565b8015610fcd5780601f10610fa257610100808354040283529160200191610fcd565b820191906000526020600020905b815481529060010190602001808311610fb057829003601f168201915b5050505050905090565b60046020528060005260406000206000915054906101000a900473ffffffffffffffffffffffffffffffffffffffff1681565b6000600360009054906101000a900473ffffffffffffffffffffffffffffffffffffffff1673ffffffffffffffffffffffffffffffffffffffff163373ffffffffffffffffffffffffffffffffffffffff161461109c576040517f08c379a00000000000000000000000000000000000000000000000000000000081526004016110939061304a565b60405180910390fd5b60006004600085815260200190815260200160002060009054906101000a900473ffffffffffffffffffffffffffffffffffffffff1673ffffffffffffffffffffffffffffffffffffffff16639507d39a60016004600088815260200190815260200160002060009054906101000a900473ffffffffffffffffffffffffffffffffffffffff1673ffffffffffffffffffffffffffffffffffffffff16634d6228316040518163ffffffff1660e01b815260040160206040518083038186803b15801561116857600080fd5b505afa15801561117c573d6000803e3d6000fd5b505050506040513d601f19601f820116820180604052508101906111a09190612980565b036040518263ffffffff1660e01b81526004016111bd91906130c5565b604080518083038186803b1580156111d457600080fd5b505afa1580156111e8573d6000803e3d6000fd5b505050506040513d601f19601f8201168201806040525081019061120c919061292e565b60000151905060006008600086815260200190815260200160002060006101000a81548160ff021916908315150217905550611249818486610719565b506001905092915050565b61126661125f611ab4565b8383611f97565b5050565b61127b611275611ab4565b83611b75565b6112ba576040517f08c379a00000000000000000000000000000000000000000000000000000000081526004016112b19061302a565b60405180910390fd5b6112c684848484612104565b50505050565b60606112d782611a73565b611316576040517f08c379a000000000000000000000000000000000000000000000000000000000815260040161130d90612fea565b60405180910390fd5b6000611320612160565b90506000815111611340576040518060200160405280600081525061136b565b8061134a84612177565b60405160200161135b929190612d87565b6040516020818303038152906040525b915050919050565b60005b828290508110156118a9576001600460008585858181106113c0577f4e487b7100000000000000000000000000000000000000000000000000000000600052603260045260246000fd5b90506020020135815260200190815260200160002060009054906101000a900473ffffffffffffffffffffffffffffffffffffffff1673ffffffffffffffffffffffffffffffffffffffff16631f7b6d326040518163ffffffff1660e01b815260040160206040518083038186803b15801561143b57600080fd5b505afa15801561144f573d6000803e3d6000fd5b505050506040513d601f19601f820116820180604052508101906114739190612980565b116114b3576040517f08c379a00000000000000000000000000000000000000000000000000000000081526004016114aa9061306a565b60405180910390fd5b6000600460008585858181106114f2577f4e487b7100000000000000000000000000000000000000000000000000000000600052603260045260246000fd5b90506020020135815260200190815260200160002060009054906101000a900473ffffffffffffffffffffffffffffffffffffffff1673ffffffffffffffffffffffffffffffffffffffff16631e2231436040518163ffffffff1660e01b815260040160206040518083038186803b15801561156d57600080fd5b505afa158015611581573d6000803e3d6000fd5b505050506040513d601f19601f820116820180604052508101906115a59190612980565b90505b6001600460008686868181106115e7577f4e487b7100000000000000000000000000000000000000000000000000000000600052603260045260246000fd5b90506020020135815260200190815260200160002060009054906101000a900473ffffffffffffffffffffffffffffffffffffffff1673ffffffffffffffffffffffffffffffffffffffff16631f7b6d326040518163ffffffff1660e01b815260040160206040518083038186803b15801561166257600080fd5b505afa158015611676573d6000803e3d6000fd5b505050506040513d601f19601f8201168201806040525081019061169a9190612980565b1115611895576002544303600460008686868181106116e2577f4e487b7100000000000000000000000000000000000000000000000000000000600052603260045260246000fd5b90506020020135815260200190815260200160002060009054906101000a900473ffffffffffffffffffffffffffffffffffffffff1673ffffffffffffffffffffffffffffffffffffffff16639507d39a600184016040518263ffffffff1660e01b815260040161175391906130c5565b604080518083038186803b15801561176a57600080fd5b505afa15801561177e573d6000803e3d6000fd5b505050506040513d601f19601f820116820180604052508101906117a2919061292e565b60200151101561188b57600460008585858181106117e9577f4e487b7100000000000000000000000000000000000000000000000000000000600052603260045260246000fd5b90506020020135815260200190815260200160002060009054906101000a900473ffffffffffffffffffffffffffffffffffffffff1673ffffffffffffffffffffffffffffffffffffffff1663957908d16040518163ffffffff1660e01b8152600401600060405180830381600087803b15801561186657600080fd5b505af115801561187a573d6000803e3d6000fd5b505050508080600101915050611890565b611895565b6115a8565b5080806118a190613371565b915050611376565b505050565b6000600360009054906101000a900473ffffffffffffffffffffffffffffffffffffffff1673ffffffffffffffffffffffffffffffffffffffff163373ffffffffffffffffffffffffffffffffffffffff1614611940576040517f08c379a00000000000000000000000000000000000000000000000000000000081526004016119379061304a565b60405180910390fd5b60006008600084815260200190815260200160002060006101000a81548160ff02191690831515021790555060019050919050565b6000600760008473ffffffffffffffffffffffffffffffffffffffff1673ffffffffffffffffffffffffffffffffffffffff16815260200190815260200160002060008373ffffffffffffffffffffffffffffffffffffffff1673ffffffffffffffffffffffffffffffffffffffff16815260200190815260200160002060009054906101000a900460ff16905092915050565b60007f01ffc9a7000000000000000000000000000000000000000000000000000000007bffffffffffffffffffffffffffffffffffffffffffffffffffffffff1916827bffffffffffffffffffffffffffffffffffffffffffffffffffffffff1916149050919050565b60008073ffffffffffffffffffffffffffffffffffffffff16611a958361079f565b73ffffffffffffffffffffffffffffffffffffffff1614159050919050565b600033905090565b816006600083815260200190815260200160002060006101000a81548173ffffffffffffffffffffffffffffffffffffffff021916908373ffffffffffffffffffffffffffffffffffffffff160217905550808273ffffffffffffffffffffffffffffffffffffffff16611b2f8361079f565b73ffffffffffffffffffffffffffffffffffffffff167f8c5be1e5ebec7d5bd14f71427d1e84f3dd0314c0f7b2291e5b200ac8c7c3b92560405160405180910390a45050565b6000611b8082611a73565b611bbf576040517f08c379a0000000000000000000000000000000000000000000000000000000008152600401611bb690612f2a565b60405180910390fd5b6000611bca8361079f565b90508073ffffffffffffffffffffffffffffffffffffffff168473ffffffffffffffffffffffffffffffffffffffff161480611c0c5750611c0b8185611975565b5b80611c4a57508373ffffffffffffffffffffffffffffffffffffffff16611c328461057c565b73ffffffffffffffffffffffffffffffffffffffff16145b91505092915050565b8273ffffffffffffffffffffffffffffffffffffffff16611c738261079f565b73ffffffffffffffffffffffffffffffffffffffff1614611cc9576040517f08c379a0000000000000000000000000000000000000000000000000000000008152600401611cc090612eaa565b60405180910390fd5b600073ffffffffffffffffffffffffffffffffffffffff168273ffffffffffffffffffffffffffffffffffffffff161415611d39576040517f08c379a0000000000000000000000000000000000000000000000000000000008152600401611d3090612eea565b60405180910390fd5b600015156008600083815260200190815260200160002060009054906101000a900460ff16151514611da0576040517f08c379a0000000000000000000000000000000000000000000000000000000008152600401611d9790612eca565b60405180910390fd5b611dab838383612324565b611db6600082611abc565b6001600560008573ffffffffffffffffffffffffffffffffffffffff1673ffffffffffffffffffffffffffffffffffffffff1681526020019081526020016000206000828254611e069190613200565b925050819055506001600560008473ffffffffffffffffffffffffffffffffffffffff1673ffffffffffffffffffffffffffffffffffffffff1681526020019081526020016000206000828254611e5d9190613179565b925050819055506004600082815260200190815260200160002060009054906101000a900473ffffffffffffffffffffffffffffffffffffffff1673ffffffffffffffffffffffffffffffffffffffff166387c11d1b60405180604001604052808573ffffffffffffffffffffffffffffffffffffffff168152602001438152506040518263ffffffff1660e01b8152600401611efa91906130aa565b600060405180830381600087803b158015611f1457600080fd5b505af1158015611f28573d6000803e3d6000fd5b50505050808273ffffffffffffffffffffffffffffffffffffffff168473ffffffffffffffffffffffffffffffffffffffff167fddf252ad1be2c89b69c2b068fc378daa952ba7f163c4a11628f55a4df523b3ef60405160405180910390a4611f92838383612329565b505050565b8173ffffffffffffffffffffffffffffffffffffffff168373ffffffffffffffffffffffffffffffffffffffff161415612006576040517f08c379a0000000000000000000000000000000000000000000000000000000008152600401611ffd90612f0a565b60405180910390fd5b80600760008573ffffffffffffffffffffffffffffffffffffffff1673ffffffffffffffffffffffffffffffffffffffff16815260200190815260200160002060008473ffffffffffffffffffffffffffffffffffffffff1673ffffffffffffffffffffffffffffffffffffffff16815260200190815260200160002060006101000a81548160ff0219169083151502179055508173ffffffffffffffffffffffffffffffffffffffff168373ffffffffffffffffffffffffffffffffffffffff167f17307eab39ab6107e8899845ad3d59bd9653f200f220920489ca2b5937696c31836040516120f79190612e12565b60405180910390a3505050565b61210f848484611c53565b61211b8484848461232e565b61215a576040517f08c379a000000000000000000000000000000000000000000000000000000000815260040161215190612e8a565b60405180910390fd5b50505050565b606060405180602001604052806000815250905090565b606060008214156121bf576040518060400160405280600181526020017f3000000000000000000000000000000000000000000000000000000000000000815250905061231f565b600082905060005b600082146121f15780806121da90613371565b915050600a826121ea91906131cf565b91506121c7565b60008167ffffffffffffffff811115612233577f4e487b7100000000000000000000000000000000000000000000000000000000600052604160045260246000fd5b6040519080825280601f01601f1916602001820160405280156122655781602001600182028036833780820191505090505b5090505b600085146123185760018261227e9190613200565b9150600a8561228d91906133ba565b60306122999190613179565b60f81b8183815181106122d5577f4e487b7100000000000000000000000000000000000000000000000000000000600052603260045260246000fd5b60200101907effffffffffffffffffffffffffffffffffffffffffffffffffffffffffffff1916908160001a905350600a8561231191906131cf565b9450612269565b8093505050505b919050565b505050565b505050565b600061234f8473ffffffffffffffffffffffffffffffffffffffff166124c5565b156124b8578373ffffffffffffffffffffffffffffffffffffffff1663150b7a02612378611ab4565b8786866040518563ffffffff1660e01b815260040161239a9493929190612dc6565b602060405180830381600087803b1580156123b457600080fd5b505af19250505080156123e557506040513d601f19601f820116820180604052508101906123e29190612905565b60015b612468573d8060008114612415576040519150601f19603f3d011682016040523d82523d6000602084013e61241a565b606091505b50600081511415612460576040517f08c379a000000000000000000000000000000000000000000000000000000000815260040161245790612e8a565b60405180910390fd5b805181602001fd5b63150b7a0260e01b7bffffffffffffffffffffffffffffffffffffffffffffffffffffffff1916817bffffffffffffffffffffffffffffffffffffffffffffffffffffffff1916149150506124bd565b600190505b949350505050565b6000808273ffffffffffffffffffffffffffffffffffffffff163b119050919050565b60006124fb6124f684613105565b6130e0565b90508281526020810184848401111561251357600080fd5b61251e8482856132cc565b509392505050565b600081359050612535816139d4565b92915050565b60008151905061254a816139d4565b92915050565b60008083601f84011261256257600080fd5b8235905067ffffffffffffffff81111561257b57600080fd5b60208301915083602082028301111561259357600080fd5b9250929050565b6000813590506125a9816139eb565b92915050565b6000813590506125be81613a02565b92915050565b6000815190506125d381613a02565b92915050565b600082601f8301126125ea57600080fd5b81356125fa8482602086016124e8565b91505092915050565b60006040828403121561261557600080fd5b61261f60406130e0565b9050600061262f8482850161253b565b600083015250602061264384828501612664565b60208301525092915050565b60008135905061265e81613a19565b92915050565b60008151905061267381613a19565b92915050565b60006020828403121561268b57600080fd5b600061269984828501612526565b91505092915050565b600080604083850312156126b557600080fd5b60006126c385828601612526565b92505060206126d485828601612526565b9150509250929050565b6000806000606084860312156126f357600080fd5b600061270186828701612526565b935050602061271286828701612526565b92505060406127238682870161264f565b9150509250925092565b6000806000806080858703121561274357600080fd5b600061275187828801612526565b945050602061276287828801612526565b93505060406127738782880161264f565b925050606085013567ffffffffffffffff81111561279057600080fd5b61279c878288016125d9565b91505092959194509250565b600080600080600060a086880312156127c057600080fd5b60006127ce88828901612526565b95505060206127df88828901612526565b94505060406127f08882890161264f565b93505060606128018882890161264f565b92505060806128128882890161264f565b9150509295509295909350565b6000806040838503121561283257600080fd5b600061284085828601612526565b92505060206128518582860161259a565b9150509250929050565b6000806040838503121561286e57600080fd5b600061287c85828601612526565b925050602061288d8582860161264f565b9150509250929050565b600080602083850312156128aa57600080fd5b600083013567ffffffffffffffff8111156128c457600080fd5b6128d085828601612550565b92509250509250929050565b6000602082840312156128ee57600080fd5b60006128fc848285016125af565b91505092915050565b60006020828403121561291757600080fd5b6000612925848285016125c4565b91505092915050565b60006040828403121561294057600080fd5b600061294e84828501612603565b91505092915050565b60006020828403121561296957600080fd5b60006129778482850161264f565b91505092915050565b60006020828403121561299257600080fd5b60006129a084828501612664565b91505092915050565b600080604083850312156129bc57600080fd5b60006129ca8582860161264f565b92505060206129db85828601612526565b9150509250929050565b6129ee81613234565b82525050565b6129fd81613234565b82525050565b612a0c81613246565b82525050565b6000612a1d82613136565b612a27818561314c565b9350612a378185602086016132db565b612a40816134a7565b840191505092915050565b612a54816132a8565b82525050565b6000612a6582613141565b612a6f818561315d565b9350612a7f8185602086016132db565b612a88816134a7565b840191505092915050565b6000612a9e82613141565b612aa8818561316e565b9350612ab88185602086016132db565b80840191505092915050565b6000612ad160368361315d565b9150612adc826134b8565b604082019050919050565b6000612af460328361315d565b9150612aff82613507565b604082019050919050565b6000612b1760258361315d565b9150612b2282613556565b604082019050919050565b6000612b3a601e8361315d565b9150612b45826135a5565b602082019050919050565b6000612b5d60248361315d565b9150612b68826135ce565b604082019050919050565b6000612b8060198361315d565b9150612b8b8261361d565b602082019050919050565b6000612ba3602c8361315d565b9150612bae82613646565b604082019050919050565b6000612bc660378361315d565b9150612bd182613695565b604082019050919050565b6000612be960298361315d565b9150612bf4826136e4565b604082019050919050565b6000612c0c60388361315d565b9150612c1782613733565b604082019050919050565b6000612c2f60298361315d565b9150612c3a82613782565b604082019050919050565b6000612c52602c8361315d565b9150612c5d826137d1565b604082019050919050565b6000612c75602f8361315d565b9150612c8082613820565b604082019050919050565b6000612c9860218361315d565b9150612ca38261386f565b604082019050919050565b6000612cbb60318361315d565b9150612cc6826138be565b604082019050919050565b6000612cde601b8361315d565b9150612ce98261390d565b602082019050919050565b6000612d0160258361315d565b9150612d0c82613936565b604082019050919050565b6000612d2460368361315d565b9150612d2f82613985565b604082019050919050565b604082016000820151612d5060008501826129e5565b506020820151612d636020850182612d69565b50505050565b612d728161329e565b82525050565b612d818161329e565b82525050565b6000612d938285612a93565b9150612d9f8284612a93565b91508190509392505050565b6000602082019050612dc060008301846129f4565b92915050565b6000608082019050612ddb60008301876129f4565b612de860208301866129f4565b612df56040830185612d78565b8181036060830152612e078184612a12565b905095945050505050565b6000602082019050612e276000830184612a03565b92915050565b6000602082019050612e426000830184612a4b565b92915050565b60006020820190508181036000830152612e628184612a5a565b905092915050565b60006020820190508181036000830152612e8381612ac4565b9050919050565b60006020820190508181036000830152612ea381612ae7565b9050919050565b60006020820190508181036000830152612ec381612b0a565b9050919050565b60006020820190508181036000830152612ee381612b2d565b9050919050565b60006020820190508181036000830152612f0381612b50565b9050919050565b60006020820190508181036000830152612f2381612b73565b9050919050565b60006020820190508181036000830152612f4381612b96565b9050919050565b60006020820190508181036000830152612f6381612bb9565b9050919050565b60006020820190508181036000830152612f8381612bdc565b9050919050565b60006020820190508181036000830152612fa381612bff565b9050919050565b60006020820190508181036000830152612fc381612c22565b9050919050565b60006020820190508181036000830152612fe381612c45565b9050919050565b6000602082019050818103600083015261300381612c68565b9050919050565b6000602082019050818103600083015261302381612c8b565b9050919050565b6000602082019050818103600083015261304381612cae565b9050919050565b6000602082019050818103600083015261306381612cd1565b9050919050565b6000602082019050818103600083015261308381612cf4565b9050919050565b600060208201905081810360008301526130a381612d17565b9050919050565b60006040820190506130bf6000830184612d3a565b92915050565b60006020820190506130da6000830184612d78565b92915050565b60006130ea6130fb565b90506130f68282613340565b919050565b6000604051905090565b600067ffffffffffffffff8211156131205761311f613478565b5b613129826134a7565b9050602081019050919050565b600081519050919050565b600081519050919050565b600082825260208201905092915050565b600082825260208201905092915050565b600081905092915050565b60006131848261329e565b915061318f8361329e565b9250827fffffffffffffffffffffffffffffffffffffffffffffffffffffffffffffffff038211156131c4576131c36133eb565b5b828201905092915050565b60006131da8261329e565b91506131e58361329e565b9250826131f5576131f461341a565b5b828204905092915050565b600061320b8261329e565b91506132168361329e565b925082821015613229576132286133eb565b5b828203905092915050565b600061323f8261327e565b9050919050565b60008115159050919050565b60007fffffffff0000000000000000000000000000000000000000000000000000000082169050919050565b600073ffffffffffffffffffffffffffffffffffffffff82169050919050565b6000819050919050565b60006132b3826132ba565b9050919050565b60006132c58261327e565b9050919050565b82818337600083830152505050565b60005b838110156132f95780820151818401526020810190506132de565b83811115613308576000848401525b50505050565b6000600282049050600182168061332657607f821691505b6020821081141561333a57613339613449565b5b50919050565b613349826134a7565b810181811067ffffffffffffffff8211171561336857613367613478565b5b80604052505050565b600061337c8261329e565b91507fffffffffffffffffffffffffffffffffffffffffffffffffffffffffffffffff8214156133af576133ae6133eb565b5b600182019050919050565b60006133c58261329e565b91506133d08361329e565b9250826133e0576133df61341a565b5b828206905092915050565b7f4e487b7100000000000000000000000000000000000000000000000000000000600052601160045260246000fd5b7f4e487b7100000000000000000000000000000000000000000000000000000000600052601260045260246000fd5b7f4e487b7100000000000000000000000000000000000000000000000000000000600052602260045260246000fd5b7f4e487b7100000000000000000000000000000000000000000000000000000000600052604160045260246000fd5b6000601f19601f8301169050919050565b7f455243373231523a20566572696669636174696f6e206f66207370656369666960008201527f6564207472616e73616374696f6e206661696c65642e00000000000000000000602082015250565b7f4552433732313a207472616e7366657220746f206e6f6e20455243373231526560008201527f63656976657220696d706c656d656e7465720000000000000000000000000000602082015250565b7f4552433732313a207472616e736665722066726f6d20696e636f72726563742060008201527f6f776e6572000000000000000000000000000000000000000000000000000000602082015250565b7f455243373231523a207472616e736665722066726f7a656e20746f6b656e0000600082015250565b7f4552433732313a207472616e7366657220746f20746865207a65726f2061646460008201527f7265737300000000000000000000000000000000000000000000000000000000602082015250565b7f4552433732313a20617070726f766520746f2063616c6c657200000000000000600082015250565b7f4552433732313a206f70657261746f7220717565727920666f72206e6f6e657860008201527f697374656e7420746f6b656e0000000000000000000000000000000000000000602082015250565b7f455243373231523a20737065636966696564207472616e73616374696f6e206960008201527f73206e6f206c6f6e6765722072657665727369626c652e000000000000000000602082015250565b7f4552433732313a2061646472657373207a65726f206973206e6f74206120766160008201527f6c6964206f776e65720000000000000000000000000000000000000000000000602082015250565b7f4552433732313a20617070726f76652063616c6c6572206973206e6f74206f7760008201527f6e6572206e6f7220617070726f76656420666f7220616c6c0000000000000000602082015250565b7f4552433732313a206f776e657220717565727920666f72206e6f6e657869737460008201527f656e7420746f6b656e0000000000000000000000000000000000000000000000602082015250565b7f4552433732313a20617070726f76656420717565727920666f72206e6f6e657860008201527f697374656e7420746f6b656e0000000000000000000000000000000000000000602082015250565b7f4552433732314d657461646174613a2055524920717565727920666f72206e6f60008201527f6e6578697374656e7420746f6b656e0000000000000000000000000000000000602082015250565b7f4552433732313a20617070726f76616c20746f2063757272656e74206f776e6560008201527f7200000000000000000000000000000000000000000000000000000000000000602082015250565b7f4552433732313a207472616e736665722063616c6c6572206973206e6f74206f60008201527f776e6572206e6f7220617070726f766564000000000000000000000000000000602082015250565b7f455243373231523a20556e617574686f72697a65642063616c6c2e0000000000600082015250565b7f43616e6e6f742064656c657465207265636f7264206f662063757272656e742060008201527f6f776e6572000000000000000000000000000000000000000000000000000000602082015250565b7f455243373231523a20496e64657820646f6573206e6f74206d6174636820746860008201527f6520636f6e746573746564206f776e6572736869702e00000000000000000000602082015250565b6139dd81613234565b81146139e857600080fd5b50565b6139f481613246565b81146139ff57600080fd5b50565b613a0b81613252565b8114613a1657600080fd5b50565b613a228161329e565b8114613a2d57600080fd5b5056fea2646970667358221220efffd0ff2307fe8960eae4c460a0a6313b4545082693e6852e92daf61be630ec64736f6c63430008010033",
  "linkReferences": {},
  "deployedLinkReferences": {}
}