{
  "_format": "hh-sol-artifact-1",
  "contractName": "OwningQueue",
  "sourceName": "contracts/ERC721R.sol",
  "abi": [
    {
      "inputs": [],
      "name": "dequeue",
      "outputs": [],
      "stateMutability": "nonpayable",
      "type": "function"
    },
    {
      "inputs": [
        {
          "components": [
            {
              "internalType": "address",
              "name": "owner",
              "type": "address"
            },
            {
              "internalType": "uint256",
              "name": "startBlock",
              "type": "uint256"
            }
          ],
          "internalType": "struct SharedStructs.Owning",
          "name": "data",
          "type": "tuple"
        }
      ],
      "name": "enqueue",
      "outputs": [],
      "stateMutability": "nonpayable",
      "type": "function"
    },
    {
      "inputs": [
        {
          "internalType": "uint256",
          "name": "idx",
          "type": "uint256"
        }
      ],
      "name": "get",
      "outputs": [
        {
          "components": [
            {
              "internalType": "address",
              "name": "owner",
              "type": "address"
            },
            {
              "internalType": "uint256",
              "name": "startBlock",
              "type": "uint256"
            }
          ],
          "internalType": "struct SharedStructs.Owning",
          "name": "data",
          "type": "tuple"
        }
      ],
      "stateMutability": "view",
      "type": "function"
    },
    {
      "inputs": [],
      "name": "getFirst",
      "outputs": [
        {
          "internalType": "uint256",
          "name": "",
          "type": "uint256"
        }
      ],
      "stateMutability": "view",
      "type": "function"
    },
    {
      "inputs": [],
      "name": "getLast",
      "outputs": [
        {
          "internalType": "uint256",
          "name": "",
          "type": "uint256"
        }
      ],
      "stateMutability": "view",
      "type": "function"
    },
    {
      "inputs": [],
      "name": "getOwningQueueArr",
      "outputs": [
        {
          "components": [
            {
              "internalType": "address",
              "name": "owner",
              "type": "address"
            },
            {
              "internalType": "uint256",
              "name": "startBlock",
              "type": "uint256"
            }
          ],
          "internalType": "struct SharedStructs.Owning[]",
          "name": "",
          "type": "tuple[]"
        }
      ],
      "stateMutability": "view",
      "type": "function"
    },
    {
      "inputs": [],
      "name": "length",
      "outputs": [
        {
          "internalType": "uint256",
          "name": "len",
          "type": "uint256"
        }
      ],
      "stateMutability": "view",
      "type": "function"
    },
    {
      "inputs": [
        {
          "internalType": "uint256",
          "name": "",
          "type": "uint256"
        }
      ],
      "name": "queue",
      "outputs": [
        {
          "internalType": "address",
          "name": "owner",
          "type": "address"
        },
        {
          "internalType": "uint256",
          "name": "startBlock",
          "type": "uint256"
        }
      ],
      "stateMutability": "view",
      "type": "function"
    }
  ],
  "bytecode": "0x6080604052600060015560006002557fffffffffffffffffffffffffffffffffffffffffffffffffffffffffffffffff60035534801561003e57600080fd5b50610bf98061004e6000396000f3fe608060405234801561001057600080fd5b50600436106100885760003560e01c80639507d39a1161005b5780639507d39a14610103578063957908d114610133578063b11593cd1461013d578063ddf0b0091461015b57610088565b80631e2231431461008d5780631f7b6d32146100ab5780634d622831146100c957806387c11d1b146100e7575b600080fd5b61009561018c565b6040516100a29190610914565b60405180910390f35b6100b3610196565b6040516100c09190610914565b60405180910390f35b6100d16101ad565b6040516100de9190610914565b60405180910390f35b61010160048036038101906100fc919061069d565b6101b7565b005b61011d600480360381019061011891906106c6565b61027b565b60405161012a91906108f9565b60405180910390f35b61013b610307565b005b6101456103a6565b6040516101529190610897565b60405180910390f35b610175600480360381019061017091906106c6565b61059e565b60405161018392919061086e565b60405180910390f35b6000600154905090565b60006001546002546101a8919061099e565b905090565b6000600254905090565b80600080600254815260200190815260200160002060008201518160000160006101000a81548173ffffffffffffffffffffffffffffffffffffffff021916908373ffffffffffffffffffffffffffffffffffffffff1602179055506020820151816001015590505060016002600082825401925050819055506002546001541415610278576040517f08c379a000000000000000000000000000000000000000000000000000000000815260040161026f906108b9565b60405180910390fd5b50565b6102836105e2565b6000808381526020019081526020016000206040518060400160405290816000820160009054906101000a900473ffffffffffffffffffffffffffffffffffffffff1673ffffffffffffffffffffffffffffffffffffffff1673ffffffffffffffffffffffffffffffffffffffff1681526020016001820154815250509050919050565b600154600254141561034e576040517f08c379a0000000000000000000000000000000000000000000000000000000008152600401610345906108d9565b60405180910390fd5b6000806001548152602001908152602001600020600080820160006101000a81549073ffffffffffffffffffffffffffffffffffffffff02191690556001820160009055505060018060008282540192505081905550565b606060003073ffffffffffffffffffffffffffffffffffffffff16631f7b6d326040518163ffffffff1660e01b815260040160206040518083038186803b1580156103f057600080fd5b505afa158015610404573d6000803e3d6000fd5b505050506040513d601f19601f8201168201806040525081019061042891906106ef565b67ffffffffffffffff811115610467577f4e487b7100000000000000000000000000000000000000000000000000000000600052604160045260246000fd5b6040519080825280602002602001820160405280156104a057816020015b61048d6105e2565b8152602001906001900390816104855790505b509050600060015490505b600254811015610596576000808281526020019081526020016000206040518060400160405290816000820160009054906101000a900473ffffffffffffffffffffffffffffffffffffffff1673ffffffffffffffffffffffffffffffffffffffff1673ffffffffffffffffffffffffffffffffffffffff1681526020016001820154815250508260015483610541919061099e565b81518110610578577f4e487b7100000000000000000000000000000000000000000000000000000000600052603260045260246000fd5b6020026020010181905250808061058e90610a3f565b9150506104ab565b508091505090565b60006020528060005260406000206000915090508060000160009054906101000a900473ffffffffffffffffffffffffffffffffffffffff16908060010154905082565b6040518060400160405280600073ffffffffffffffffffffffffffffffffffffffff168152602001600081525090565b60008135905061062181610b95565b92915050565b60006040828403121561063957600080fd5b610643604061092f565b9050600061065384828501610612565b600083015250602061066784828501610673565b60208301525092915050565b60008135905061068281610bac565b92915050565b60008151905061069781610bac565b92915050565b6000604082840312156106af57600080fd5b60006106bd84828501610627565b91505092915050565b6000602082840312156106d857600080fd5b60006106e684828501610673565b91505092915050565b60006020828403121561070157600080fd5b600061070f84828501610688565b91505092915050565b600061072483836107f2565b60408301905092915050565b610739816109d2565b82525050565b610748816109d2565b82525050565b600061075982610964565b610763818561097c565b935061076e83610954565b8060005b8381101561079f5781516107868882610718565b97506107918361096f565b925050600181019050610772565b5085935050505092915050565b60006107b960608361098d565b91506107c482610af7565b606082019050919050565b60006107dc600c8361098d565b91506107e782610b6c565b602082019050919050565b6040820160008201516108086000850182610730565b50602082015161081b6020850182610850565b50505050565b6040820160008201516108376000850182610730565b50602082015161084a6020850182610850565b50505050565b61085981610a04565b82525050565b61086881610a04565b82525050565b6000604082019050610883600083018561073f565b610890602083018461085f565b9392505050565b600060208201905081810360008301526108b1818461074e565b905092915050565b600060208201905081810360008301526108d2816107ac565b9050919050565b600060208201905081810360008301526108f2816107cf565b9050919050565b600060408201905061090e6000830184610821565b92915050565b6000602082019050610929600083018461085f565b92915050565b600061093961094a565b90506109458282610a0e565b919050565b6000604051905090565b6000819050602082019050919050565b600081519050919050565b6000602082019050919050565b600082825260208201905092915050565b600082825260208201905092915050565b60006109a982610a04565b91506109b483610a04565b9250828210156109c7576109c6610a88565b5b828203905092915050565b60006109dd826109e4565b9050919050565b600073ffffffffffffffffffffffffffffffffffffffff82169050919050565b6000819050919050565b610a1782610ae6565b810181811067ffffffffffffffff82111715610a3657610a35610ab7565b5b80604052505050565b6000610a4a82610a04565b91507fffffffffffffffffffffffffffffffffffffffffffffffffffffffffffffffff821415610a7d57610a7c610a88565b5b600182019050919050565b7f4e487b7100000000000000000000000000000000000000000000000000000000600052601160045260246000fd5b7f4e487b7100000000000000000000000000000000000000000000000000000000600052604160045260246000fd5b6000601f19601f8301169050919050565b7f63616e206f6e6c7920757365203078666666666666666666666666666666666660008201527f666666666666666666666666666666666666666666666666666666666666666660208201527f666666666666666666666666666666202d203120746f74616c20736c6f74732e604082015250565b7f456d7074792071756575652e0000000000000000000000000000000000000000600082015250565b610b9e816109d2565b8114610ba957600080fd5b50565b610bb581610a04565b8114610bc057600080fd5b5056fea2646970667358221220beb71388585bdd8d0fa7af962aa255209ddef504231141f2ab999ff5c50e768d64736f6c63430008010033",
  "linkReferences": {},
  "deployedLinkReferences": {}
}